:020000040800F2
:10000000C00A00209D010008614C00081D43000843
:100010005D4C0008D31100083D620008000000009C
:10002000000000000000000000000000295200084D
:10003000D7140008000000007D4F00081157000889
:10004000B7010008B7010008B7010008B7010008B0
:10005000B7010008B7010008B7010008B7010008A0
:10006000B7010008B7010008B7010008B701000890
:10007000B7010008B7010008B7010008B701000880
:10008000B7010008B7010008910F0008B701000888
:10009000B7010008B7010008B7010008B701000860
:1000A000B7010008E1570008B7010008B7010008D0
:1000B000B7010008B7010008B7010008B701000840
:1000C000B7010008B7010008B7010008B701000830
:1000D000B70100082D620008B7010008B701000849
:1000E000B7010008B7010008B7010008B701000810
:1000F000B7010008B7010008B7010008B701000800
:10010000B7010008B7010008B7010008B7010008EF
:10011000B7010008B7010008B7010008F15700084F
:100120008D130008B70100089D130008AD130008E7
:10013000B7010008B7010008B7010008B7010008BF
:10014000B7010008B7010008B7010008B7010008AF
:10015000B7010008B7010008BD130008B701000887
:10016000B7010008B7010008B7010008B70100088F
:10017000B7010008B7010008B7010008000000003F
:10018000B7010008B7010008DFF80CD000F03EFD11
:1001900000480047BD670008C00A002006488047A5
:1001A00006480047FEE7FEE7FEE7FEE7FEE7FEE75C
:1001B000FEE7FEE7FEE7FEE7CD57000889010008ED
:1001C0002DE9F05F0546002092469B46884606468C
:1001D000814640241BE0284641464746224600F01F
:1001E000F4FB53465A46C01A914110D311461846A3
:1001F000224600F0DBFB2D1A67EB01084F46224632
:100200000120002100F0D2FB17EB00094E41201E17
:10021000A4F10104DFDC484631462A464346BDE8E6
:10022000F09FD2B201E000F8012B491EFBD27047CB
:100230000022F6E710B513460A4604461946FFF7B2
:10024000F0FF204610BDCAB2401E10F8011F8A42BE
:1002500002D00029F9D10020704700000FB400B58A
:100260008DB010A909900B9000914FF0FF300A90CB
:1002700000200C9005480690054807906A4609A89A
:100280000F9900F0CBFB0DB05DF814FB390A0008A4
:10029000570A00082DE9FF4F087883B09946FF28D8
:1002A00005D0491C2D2804D00024002008E000209F
:1002B0000BE00124F9E700EB800003EB4000491C50
:1002C0000B78FF2BF7D104B140420023029314783E
:1002D00019461D462D2C01D02B2C04D1521C2D2C3F
:1002E00013D000240294AA461478FF2C0FD00A25BC
:1002F000A3FB057801FB05814FF0000C03FB0C11FB
:10030000521CE3194AEB0101EEE70124EAE78144BC
:1003100053EA010002D019F5C87F06DA03980021DC
:10032000C0E9001107B0BDE8F08F0025AE4E2F46A2
:10033000DFF8B882184600F05CFCCDE90001B9F1A5
:10034000000002DAC9F1000400E004460023A74AD5
:100350001AEB030B42EB045A12E0E00707D02A46DF
:1003600033463846414600F0ECF9074688462A46AF
:1003700033461046194600F0E4F905460E4664106F
:10038000002CEAD1DDE90001B9F1000F5A465346CD
:1003900006DA00F048FA3A46434600F044FA05E02F
:1003A00000F0CFF93A46434600F0CBF9029A0AB181
:1003B00081F00041039AC2E90001B3E72DE9FF4F44
:1003C0001F468DB0D7E901464FF0FF382E20454635
:1003D0004FF000090B90B9696D1C0E988847396A77
:1003E000824688470028F6D1BAF1FF3F0AD024F4AC
:1003F000D064002E11DDBAF12B0F08D0BAF12D0F09
:100400000BD102E0404611B08DE744F48064B96935
:100410006D1C0E9888478246761E6946600501D598
:100420002D2000E02B208DF8000001F1010B0DF1D3
:10043000200809E0B9696D1C0E98884782460F981C
:1004400044F40074761E0560002E02DDBAF1300F10
:10045000F0D00B998A453ED144F0800406E00F9914
:10046000681CA9F1010944F400740860B9696D1CA5
:10047000761E0E98884782463028F0D02BE00B99E4
:100480008A4505D1200603D444F08004761E18E086
:10049000504605F067FF08B30DF11301761E44F4D2
:1004A00000748B4508D2AAF130000BF8010B20062E
:1004B00007D5A9F1010003E0200602D409F10100EB
:1004C0008146A00502D50F99681C0860B9696D1CAA
:1004D0000E9888478246002ED1DC53E0002E51DD75
:1004E000BAF1650F02D0BAF1450F4BD1A00549D53D
:1004F000B9696D1C24F44074761E0E9888478246B4
:10050000002E0CDD2B2804D0BAF12D0F07D144F4B6
:100510008074B9696D1C0E9888478246761EE00586
:1005200001D52D2100E02B2108F8011BCDF82C80EE
:1005300021E00DF12901761E44F4007488450CD2A7
:10054000AAF1300010F0FF0088F8000002D10B99EA
:10055000884509D908F1010806E0E00501D52448DD
:1005600001E042F20F708146B9696D1C0E98884710
:1005700082460F980560002E04DD504605F0F2FE1D
:100580000028D6D1F9690E988847FF208BF8000023
:1005900088F800000020069007904B466A4608A99C
:1005A00006A8FFF777FEA00502D46FF001002AE746
:1005B00014F0240F0AD0E00714D1DDE906123868E0
:1005C000031D3B600068C0E900120BE0DDE9060195
:1005D00000F0D0F90146E00704D13868021D3A6006
:1005E0000068016028460EE7000014400000F03F5C
:1005F000F1D8FFFF2DE9FE4F804681EA0300C00FCE
:100600000C46009021F0004123F00045B8EB0200B9
:10061000A94105D24046214690461C460B4602465B
:1006200023F00040104347D0270DC7F30A00C3F35F
:100630000A510290401A019040286BDAC3F313006C
:1006400040F4801B0098924620B10023D2EB030AAD
:1006500063EB0B0B01985946C0F14002504600F085
:10066000A5F906460D4650465946019A00F0BDF9D7
:1006700010EB08006141002487EA115284EAE77315
:100680001A4340D0009A62B3019A012A4FEA0752F6
:1006900015DC001B61EB02014FF0004202EA075239
:1006A000CDE90042001C41F5801132462B4600F096
:1006B00052FA03B0BDE8F08F40462146F9E7001B2F
:1006C00061EB0201001C41F5801300185B4120180A
:1006D000A2F5001747EB030140EAD570B6196D414A
:1006E00011E06D084FEA360645EAC0754FEA075239
:1006F000001B61EB0201001C41F5801149084FEA23
:1007000030000019514132462B4603B0BDE8F04F8E
:1007100000F012BA0098012240000023D0EB020240
:1007200063EBE073009821464FEAE074B8EB0000F9
:1007300061EB0401E9E783F000435BE781F00041EE
:1007400058E72DE9FE4F81EA030404F0004421F04C
:10075000004100944FF0000B23F0004350EA0104E5
:100760005ED052EA03045BD0C3F30A54C1F30A55C6
:100770002C44A4F2F3340194A0FB0254C1F31301FE
:1007800041F48011C3F3130343F4801301FB0244CB
:1007900000FB034E840A970A44EA815447EA8357D0
:1007A000A4FB076802958D0A05FB07854FEA932C89
:1007B00004FB0C542705029D4FEA065847EA1637FA
:1007C000B5EB08056EEB070C870E920E47EA811712
:1007D00042EA8312A7FB0201B6EB0B0164EB0004B3
:1007E0002B0D43EA0C335E1844EB1C50DA4651469D
:1007F000E7FB0201C5F313044FEA0B3343EA14533A
:100800004FEA0432019C43EA0603A4F10C0402946B
:10081000009CCDE900B400F09EF903B0BDE8F08F74
:1008200000200146F9E72DE9F04D81EA030404F0C8
:10083000004B21F0004514464FF0000A23F0004120
:1008400050EA050220D054EA01021DD0C5F30A5730
:100850000246C5F31303C1F31300C1F30A5640F473
:10086000801543F48013A7EB0608101BD64608F248
:10087000FD3873EB050002D308F1010801E092187E
:100880005B41B8F1000F03DA00200146BDE8F08DAE
:1008900000204FF48011064684460EE0171B73EBD0
:1008A000050705D3121B63EB050306434CEA010C55
:1008B00049084FEA300092185B4150EA0107EDD138
:1008C00052EA030012D082EA040083EA05010843D9
:1008D00005D0101BAB4106D20122002306E0002206
:1008E0004FF0004302E06FF0010253101AEB0600D4
:1008F0004CEB085110EB0A0041EB0B01BDE8F04D49
:1009000000F01AB90EB540F2334102910021CDE951
:1009100000110A460B4600F01EF903B000BD00F0BE
:10092000004230F000400AD0C10D01F56071C0F303
:10093000160042EA0151C2084007114370470020E7
:100940000146704730B5041E71F1000404DB4FF01E
:100950000044404264EB0101141E73F1000405DB06
:100960001C464FF00043524263EB04038B4208BF26
:10097000824230BD01F0004330B421F0004150EA22
:10098000010206D00A0DA2F56072C1F31301002A1C
:1009900002DC30BC00207047440F44EAC104C100AF
:1009A000E01830BC00EBC25000F066B8202A04DB2F
:1009B000203A00FA02F1002070479140C2F1200372
:1009C00020FA03F3194390407047202A04DB203AB1
:1009D00021FA02F00021704721FA02F3D040C2F15F
:1009E00020029140084319467047202A06DBCB17A6
:1009F000203A41FA02F043EAE07306E041FA02F3DA
:100A0000D040C2F1200291400843194670470000CF
:100A1000026811441378016018467047D160044998
:100A200051610449116200211161114600F006B9BB
:100A3000110A0008310C0008426842B1016811F83F
:100A4000013B23B1521EC0E9001218467047012134
:100A5000C160881E704742685AB1C368016843B9D3
:100A600083688B4205D0491E521CC0E90012002049
:100A700070474FF0FF3070470029A8BF7047401CF7
:100A8000490008BF20F00100704710B4B0FA80FCA4
:100A900000FA0CF050EA010404BF10BC704749B1E1
:100AA000CCF1200421FA04F411FA0CF118BF012151
:100AB00021430843A3EB0C01CB1D4FEA00614FEA31
:100AC000102042BF002010BC704700EBC350104400
:100AD0000029A4BF10BC7047401C490008BF20F08B
:100AE000010010BC7047F0B400F0004221F000415A
:100AF00020F00040CE0DC30DC1F3160141F40001FA
:100B0000C0F316004C42154640F40000761E09E082
:100B100010EB440002D582F0004240428842F7D8F0
:100B200040005B1EB342F9DA18B1F0BC0021FFF7B8
:100B3000ACBF2846F0BC704710B5141E73F100041A
:100B400008DA401C41F1000192185B411A4301D1BF
:100B500020F0010010BD2DE9F04D92469B4611B1E9
:100B6000B1FA81F202E0B0FA80F220329046FFF74B
:100B70001DFF04460F4640EA0A0041EA0B015346B6
:100B80005A46084313D0114653EA010019D0C8F160
:100B900040025046FFF719FF05460E46504659469B
:100BA0004246FFF703FF084305D0012004E020463A
:100BB0003946BDE8F08D0020054346EAE0762C4337
:100BC00037430A986305E40AA0EB08000022FD0AF7
:100BD00044EA47540A3002D500200146E9E70105FE
:100BE00010196941DDE9084500196941BDE8F04D7A
:100BF000A2E70EB540F2334202920022CDE9002274
:100C00001346FFF7A8FF03B000BD0000064C074DD8
:100C100006E0E06840F0010394E8070098471034CC
:100C2000AC42F6D3FFF7B4FA746B0008946B00087B
:100C3000C0B24FF4F05100F097B900002DE9F34F26
:100C40008BB04FF0000801F10C000C464FF0010B87
:100C500046460DF1080A019062690121019890470A
:100C6000051E2DD0252D2CD0216A8847C0B1626980
:100C7000012101989047216A88470028F7D1411E39
:100C800062690198904700E0761CA1690B9888473B
:100C9000216A88470028F7D1E1690B988847DBE78C
:100CA000A1690B9888470746A84201D1761CD3E773
:100CB000E1690B9888477F1C02D1B8F1000F6FD013
:100CC00046E1002762693D463946019890472A2847
:100CD00004D162690121019890470125DFF88492CF
:100CE0006269012101989047A0F130010A290AD2D6
:100CF0004F45E5DC07EB870100EB4107303FDFD4D0
:100D000045F01005ECE7E90601D46FF000476C28C8
:100D10000AD04C2814D0682815D06A280DD0742821
:100D20001CD07A281AD01DE06269012101989047F1
:100D30006C2802D045F0040514E045F002050DE0F2
:100D400045F020050AE06269012101989047682872
:100D500002D045F0080505E045F40065626901210F
:100D600001989047C4E9015765283DD019DC5828FF
:100D70007AD00CDC452837D004DC252826D0412841
:100D800031D131E046282FD047282CD12CE05B28E8
:100D900077D0612828D063287CD0642823D15AE0FA
:100DA000D0E06F2848D008DC66281DD067281BD00B
:100DB000692821D06E2816D127E0702845D07328E5
:100DC00068D0752847D078280DD14DE0A1690B98DF
:100DD0008847054625283FF469AFE1690B988847A5
:100DE0006D1C3FF46AAFB3E023466A466FF0010022
:100DF0000B99FFF7E3FA9EE045F040006060A8071A
:100E000023464FF0000236D43EE0E8077FF447AFB8
:100E10002068011D21600068290501D506701BE7C7
:100E2000290701D5068017E7A90703D5F117C0E9FF
:100E3000006111E706600FE745F040006060A80719
:100E400023464FF0080216D41EE040F60E0125EAB4
:100E50000100606016E045F040006060A80723468E
:100E60004FF00A0207D40FE045F040006060A80789
:100E700008D5234610226FF001000B99AFF30080D4
:100E800059E007E0234610226FF001000B99AFF301
:100E9000008050E04FF000094F464B46632802D0D7
:100EA0005B2806D040E0E80601D40120A0600127BD
:100EB0003AE062690121019890475E2805D14FF020
:100EC00001096269494601989047216939B90021B1
:100ED0000A46534643F82120491C0829FADBB0B3DF
:100EE000216969B9C11700EBD16253110AEB830183
:100EF00022F01F02821A01200B68904003430B600E
:100F000062690121019890475D28E8D1B9F1000F8D
:100F100009D00020514651F82020D24341F820202A
:100F2000401C0828F7DB02AB224600976FF0010057
:100F30000B99AFF3008000280CDA401C08D1BBF1FC
:100F4000000F05D04FF0FF300DB0BDE8F08FFFE788
:100F50004046F9E7E90701D108F1010806444FF0DE
:100F6000000B79E6CCCCCC0C7F2801D9002208E01C
:100F7000064A02EB5002C007127800D1120902F0B3
:100F80000F0201209040084070470000346B0008B9
:100F900010B5034800F06AFE024800F067FE10BD7D
:100FA00070000020B800002055494A6822F4403201
:100FB0004A604A6843681A434A600268526822F4E9
:100FC000807203685A6002685368026943EA022229
:100FD00003685A600268526822F0407203685A60DF
:100FE0000268526883681A4303685A60026892680C
:100FF00022F4006203689A6002689268C3681A4328
:1010000003689A603F4B826A9A4218D002689268DD
:1010100022F0706203689A6002689268836A1A43D9
:1010200003689A600268926822F0405203689A60EE
:1010300002689268C36A1A4303689A600BE0026808
:10104000926822F0706203689A600268926822F0E7
:10105000405203689A600268926822F002020368B4
:101060009A6002689368027E43EA420203689A60CB
:101070002022125CA2B10268526842F40062036846
:101080005A600268526822F4604203685A6002683B
:101090005368426A521E43EA423203685A6005E0CE
:1010A0000268526822F4006203685A600268D26AD9
:1010B00022F470020368DA620268D36A828B521EDD
:1010C00043EA02520368DA620268926822F400720C
:1010D00003689A600268936890F8302043EA4222DD
:1010E00003689A600268926822F4806203689A60DA
:1010F00002689368426943EA822203689A607047F3
:10110000002301400100000F10B500F04FF8044625
:101110004FF6FF70844202D1BFEE000A10BD00EE10
:10112000104AB8EE400ADFED040A60EE200A9FED97
:10113000031A80EE810AF1E70000B4430000804505
:101140002DE9F04107460E46154604F047FA6C209B
:1011500004F076FA20B104F05BFA0020BDE8F081DB
:10116000384604F06DFA18B104F052FA0020F5E7A1
:1011700004F034FA6D2004F063FA18B104F048FA70
:101180000020EBE700240BE0691EA14201DD0121F4
:1011900000E00021084604F0DFF93055601CC4B2BD
:1011A000AC42F1DB04F034FA0120D7E708B50222A3
:1011B00069460E20FFF7C4FF40B19DF801009DF87D
:1011C000001040EA0120C0F30B0008BD4FF6FF708D
:1011D000FBE700BFFEE7000070B52DED028B054672
:1011E0000C468935A878401CA87015F88909002894
:1011F0006CD105F081FC95F88B00FFF783FB41EC87
:10120000180B94ED001BB0EE410AF0EE610A53ECAE
:10121000102BFFF797FB5AD20121544800F0A4FB92
:101220000646FFF76FFBC4E908010121504800F0B2
:101230009BFB0646FFF766FBC4E90A0194ED081B19
:10124000B0EE410AF0EE610A9FED4A1B53EC112B00
:1012500051EC100BFFF7CEF9C4E9080194ED0A1B1D
:10126000B0EE410AF0EE610A9FED441B53EC112BE6
:1012700051EC100BFFF7BEF9C4E90A0194ED082BFD
:10128000B0EE420AF0EE620A94ED022BB0EE421A82
:10129000F0EE621A53EC102B51EC110BFFF7AAF988
:1012A000C4E9020194ED0A2BB0EE420AF0EE620AA4
:1012B00094ED042BB0EE421AF0EE621A53EC102BB0
:1012C00051EC110BFFF796F9C4E904014AE094EDE3
:1012D000021BB0EE410AF0EE610A9FED2A1B53ECAF
:1012E000112B51EC100BFFF72CFAC4E9020194ED1D
:1012F000041BB0EE410AF0EE610A9FED221B53EC95
:10130000112B51EC100BFFF71CFAC4E9040194ED0A
:10131000002BB0EE420AF0EE620A94ED022BB0EE22
:10132000421AF0EE621A53EC102B51EC110BFFF73E
:101330007AFAC4E90E0194ED002BB0EE420AF0EE09
:10134000620A94ED042BB0EE421AF0EE621A53ECEE
:10135000102B51EC110BFFF766FAC4E910010120C4
:1013600085F88900BDEC028B70BD00007000002084
:10137000B80000200000000000002040000000C075
:10138000CCCC1C40000000A0B3664A3F10B5024818
:1013900000F084FE10BD00000001002010B50248DE
:1013A00000F07CFE10BD00003803002010B502489C
:1013B00000F074FE10BD00006001002010B502486E
:1013C00000F06CFE10BD0000980300200146087874
:1013D00010381823B0FBF3F20848805CC865032A74
:1013E00005D908686FF30900001D886503E00868E7
:1013F0006FF309008865886D70470000146B000862
:10140000014600208A6A8B69CBB932B1012A0DD01E
:10141000022A03D0032A10D10EE000BFCB6A03F0EA
:101420008073B3F1807F00D1012007E0CB6AB3F174
:10143000C07F00D1012001E000E000BF34E08B69F3
:10144000B3F5005F1AD132B1012A07D0022A03D0C6
:10145000032A11D10AE000BF01200EE0CB6A03F09D
:101460008073B3F1807F00D1012006E0CB6AB3F135
:10147000C07F00D1012000E000BF15E032B1012A99
:1014800005D0022A04D0032A0CD103E000BF00BF1C
:10149000012008E0CB6A03F08073B3F1807F00D1B4
:1014A000012000E000BF00BF704730B50468246829
:1014B00024F4802405682C60046863608468402CF0
:1014C00004D10468A2600468E16003E00468A160DC
:1014D0000468E26030BD704772B600BFFEE70000EE
:1014E0007CB505460E460DA00068019000240DE075
:1014F00005EB8400D0ED000AB0EE600A684600F00B
:101500000FF80421684604F0D7F8641CB442EFDBFE
:10151000042101A804F0D0F87CBD00000000807F09
:1015200008B58DED000A009901700099090A417013
:101530000099090C81700099090EC17008BD000066
:1015400070B505460C461646FFF7DEFD84ED030A2E
:1015500094ED030AD6ED000A30EE600A84ED030A2A
:1015600094ED030ADFED150AB4EEE00AF1EE10FA8D
:1015700007DD94ED030ADFED110A30EE600A84ED19
:10158000030A94ED030AB5EEC00AF1EE10FA07D291
:1015900094ED030ADFED090A30EE200A84ED030A18
:1015A000D4ED030A95F8800000EE100AB8EE400A68
:1015B00020EE800A85ED1F0A70BD00000000B443D4
:1015C000D1ED030AC0ED010AD0ED010A90ED001A39
:1015D00070EEC10AB0EE600ADFED120AB4EEE00A66
:1015E000F1EE10FA06DDDFED100A70EE600AB0EEE3
:1015F000600A0CE0DFED0D0AB4EEE00AF1EE10FA3D
:1016000005D2DFED090A70EE200AB0EE600AD0EDD7
:10161000050A70EE800AC0ED050AD0ED010AC0EDA2
:10162000000A7047000034430000B443000034C394
:10163000D1ED031AC0ED011AD0ED011A90ED002A88
:1016400071EEC21AB0EE610ADFED1A1AB4EEE10AC9
:10165000F1EE10FA06DDDFED181A70EE611AB0EE49
:10166000610A0CE0DFED151AB4EEE10AF1EE10FAB2
:1016700005D2DFED111A70EE211AB0EE610AB0EE5C
:10168000401ADFED0F1A61EE210ADFED0E1A60EE4F
:10169000A11A90ED042ADFED0C2A42EE821AC0ED69
:1016A000031AD0ED011AC0ED001AD0ED031AC0EDF7
:1016B000041A7047000034430000B443000034C3F0
:1016C0000000C842CDCCCC3D6666663F30B50246D0
:1016D000854C8869A04200D000BF00BF92F83C0052
:1016E000012801D1022030BD012082F83C0000BF5A
:1016F0000868092816D91068C0680C780A3C04EB01
:1017000044050724AC40A0431468E0600C780A3C10
:1017100004EB44048868A0401468E468204314681B
:10172000E06013E0106800690C7804EB44050724BE
:10173000AC40A043146820610C7804EB4404886832
:10174000A040146824692043146820611068806BED
:1017500020F440101468A0631068846B088A401E4F
:1017600044EA00501468A0630879C01C0C7C001B7C
:1017700000EB80041F20A0401468A46B8443106811
:1017800084630879C01C0C7C001B00EB8004088873
:1017900080B2A0401468A46B20431468A063524C2C
:1017A0008869A04218D01068806820F470201468FE
:1017B000A060106880688C6920431468A06010687D
:1017C000806820F440101468A06010688068CC69BC
:1017D00020431468A0600BE01068806820F470203B
:1017E0001468A0601068806820F440101468A0603D
:1017F000487D30B11068406840F4806014686060D3
:1018000005E01068406820F4806014686060087D1E
:1018100030B11068406840F480501468606005E0A2
:101820001068406820F4805014686060486801289F
:1018300004D002280FD0032827D119E0106840698E
:101840006FF30B001468606110684069CC68204336
:101850001468606126E0106880696FF30B001468FB
:10186000A06110688069CC6820431468A06119E009
:101870001068C0696FF30B001468E0611068C069FC
:10188000CC6820431468E0610CE01068006A6FF3D4
:101890000B00146820621068006ACC68204314684A
:1018A000206200BF00BF114B114C1068A04206D14E
:1018B0000868122803D1586840F4800058600C4C26
:1018C0001068A04209D10868102802D008681128C1
:1018D00003D1586840F40000586000BF002082F82F
:1018E0003C0000BF00BFFEE601000F0000230140E6
:1018F0000020014010B5044615492068884226D1D1
:101900004FF40041134800F0BFFE13480078072849
:101910001BD2DFE800F00407080D1114170005F0D2
:10192000EBF813E012E00D490D48FFF755FC0DE010
:101930000C4801F0D7FD09E003F022FB06E003F0BC
:101940001FFB03E003F01CFB00E000BF00BF10BD65
:101950000020014000040240100000208804002004
:10196000F8030020A802002008B5024600200090DD
:10197000401F13681860012911D002290BD00329D8
:1019800005D004290FD11068806C00900CE010681D
:10199000406C009008E01068006C009004E0106853
:1019A000C06B009000E000BF00BF009808BD0000C1
:1019B00038B50146002000900022002300BF91F8B6
:1019C0003C00012801D1022038BD012081F83C00F3
:1019D00000BF0868806800F00100A0B9086880684E
:1019E00040F001000D68A86038480068384DB0FB31
:1019F000F5F000EB4000009002E00098401E0090DF
:101A000000980028F9D10868806800F001000028DB
:101A100051D0086C42F20105A84340F4805008649C
:101A2000086C00F4807008B90020486400BF0020F2
:101A300081F83C0000BF401F0D68286008684068BE
:101A400040F080000D686860224C606800F01F0064
:101A5000B0B90868806800F4401008B9012000E0BF
:101A60000020024608684068012525EA90230AB351
:101A700003B30868806840F480000D68A86022E025
:101A80000868806800F4401008B9012000E00020D8
:101A9000024608684068012525EA90230E4D086833
:101AA000A84210D132B12BB10868806840F48000A0
:101AB0000D68A86007E0086C40F010000864486CEE
:101AC00040F00100486400207EE700000C00002088
:101AD00040420F00002301400020014038B502467B
:101AE0000020009000BF92F83C00012801D10220A4
:101AF00038BD012082F83C0000BF0868092816D9CB
:101B00001068C0680C780A3C04EB44050724AC401C
:101B1000A0431468E0600C780A3C04EB4404886835
:101B2000A0401468E46820431468E06013E0106883
:101B300000690C7804EB44050724AC40A04314680A
:101B400020610C7804EB44048868A0401468246980
:101B50002043146820614868072817D21068406B3A
:101B60000C79641E04EB84051F24AC40A043146868
:101B70006063088880B20C79641E04EB8404A04082
:101B80001468646B20431468606331E048680D2872
:101B900017D21068006B0C79E41F04EB84051F2436
:101BA000AC40A04314682063088880B20C79E41F1D
:101BB00004EB8404A0401468246B20431468206361
:101BC00016E01068C06A0C790D3C04EB84051F24F4
:101BD000AC40A0431468E062088880B20C790D3CE8
:101BE00004EB8404A0401468E46A20431468E062B3
:101BF000194B1A4C1068A04206D10868122803D16C
:101C0000586840F480005860144C1068A0421CD101
:101C10000868102802D00868112816D1586840F4C6
:101C200000005860086810280FD10D4800680D4C5E
:101C3000B0FBF4F000EB80004000009002E0009860
:101C4000401E009000980028F9D100BF002082F8C3
:101C50003C0000BF00BF4BE70023014000200140D3
:101C60000C00002040420F00704770472DE9F04102
:101C7000044600250026206807682068D0F8048004
:101C800007F0020508F0200695B38EB3206C00F033
:101C9000100018B9206C40F400702064206880683F
:101CA00000F04050E8B9207ED8B92068C06A00F43E
:101CB000700020B12068806800F4806088B92068D6
:101CC000406820F0200021684860206C20F480707B
:101CD0002064206C00F4805018B9206C40F00100A2
:101CE00020642046FFF7C0FF6FF0120021680860F3
:101CF00007F0040508F08006E5B3DEB3206C00F0C1
:101D0000100018B9206C40F40050206420688068EE
:101D100000F4401038BB2068806B00F4401020B104
:101D20002068806800F48060E8B92068406800F4AA
:101D30008060C0B92068806800F0405098B9207E6B
:101D400088B92068406820F0800021684860206CD5
:101D500020F480502064206C00F4807018B9206C4E
:101D600040F0010020642046FFF7C4FD6FF00C0036
:101D70002168086007F0010508F0400685B17EB1D2
:101D80002068006800F0010050B1206C40F4803001
:101D90002064204600F050F86FF0010021680860D0
:101DA00007F0200508F080667DB176B1606C40F0E8
:101DB000020060646FF02000216808602046FFF791
:101DC00054FF6FF0200021680860BDE8F08100003A
:101DD00070B5044600250CB9012070BD1549A06AF4
:101DE000884200D000BF206C30B9204600F026F8B1
:101DF0000020606484F83C00206C00F0100088B97A
:101E0000206C20F4885040F0020020642046FFF748
:101E1000CBF800206064206C20F0020040F001004C
:101E2000206400E0012500BF002084F83C0000BFD2
:101E30002846D2E70100000F7047000010B586B0B9
:101E40000446142101A8FEF7F3F958492068884296
:101E500052D100BF002000905548006840F48070C7
:101E6000534908600846006800F48070009000BF85
:101E700000BF00BF002000904D481438006840F0BB
:101E800004004B49143908600846006800F004005B
:101E9000009000BF00BF09200190032002900020A5
:101EA000039001A9434800F0EDFA43484349086014
:101EB00000204860002141488160C1604FF480618A
:101EC000016149004161890081610021C1610162B4
:101ED000416200F003FA08B1FFF7FEFA00BF37488D
:101EE000A063846300BF00221146122000F06AFC48
:101EF000122000F053FC57E031492068884253D14A
:101F000000BF002000902A48006840F40070284973
:101F100008600846006800F40070009000BF00BF31
:101F200000BF0020009022481438006840F00400F0
:101F30001F49143908600846006800F0040000904A
:101F400000BF00BF022001900320029000200390F8
:101F500001A9184800F096FA174848301949086056
:101F60004FF000704860002116488160C1604FF456
:101F70008061016149004161890081610021C16185
:101F80000162416200F0AAF908B1FFF7A5FA00BFAB
:101F90000C48A063846300BF00221146122000F0A9
:101FA00011FC122000F0FAFB06B010BD0020014029
:101FB0004438024000080240106402400001002042
:101FC000002101406001002070B50446A56D00F0BD
:101FD0006BFB064694F83500022808D08020606527
:101FE00000BF002084F8340000BF012070BD2068CD
:101FF000006820F01600216808602068406920F021
:10200000800021684861206C08B9A06C28B1206864
:10201000006820F00800216808602068006820F04F
:1020200001002168086010E000F03EFB801B0528DD
:102030000BD920206065032084F8350000BF002004
:1020400084F8340000BF0320D0E72068006800F067
:1020500001000028E8D194F85C103F208840A86077
:10206000012084F8350000BF002084F8340000BF50
:1020700000BFBBE7014691F83500022803D080205D
:10208000486501207047052081F835000868006820
:1020900020F001000A6810600020F3E7F8B504465C
:1020A000002000908C4800684FF41651B0FBF1F707
:1020B000A56D2E6894F85C1008208840304098B1D7
:1020C0002068006800F0040070B12068006820F00B
:1020D00004002168086094F85C1008208840A8601B
:1020E000606D40F00100606594F85C10012088404C
:1020F000304068B12068406900F0800040B194F839
:102100005C1001208840A860606D40F002006065AE
:1021100094F85C1004208840304068B12068006862
:1021200000F0020040B194F85C1004208840A860E0
:10213000606D40F00400606594F85C1010208840E9
:10214000304078B32068006800F0080050B394F87D
:102150005C1010208840A8602068006800F480208F
:1021600080B12068006800F4002028B9206CC8B154
:102170002046216C884715E0A06C98B12046A16CE0
:1021800088470FE02068006800F4807028B9206854
:10219000006820F0080021680860206C10B120461B
:1021A000216C884794F85C1020208840304000283B
:1021B00065D02068006800F0100000285FD094F817
:1021C0005C1020208840A86094F83500052828D1AC
:1021D0002068006820F016002168086020684069C7
:1021E00020F0800021684861206C08B9A06C28B1FB
:1021F0002068006820F008002168086094F85C10EE
:102200003F208840A860012084F8350000BF0020EE
:1022100084F8340000BF206D10B12046216D88473E
:10222000F8BD2068006800F4802080B12068006854
:1022300000F4002028B9606C10B12046616C88471A
:102240001DE0E06BD8B12046E16B884717E02068BD
:10225000006800F4807068B92068006820F0100001
:1022600021680860012084F8350000BF002084F850
:10227000340000BFE06B10B12046E16B8847606D11
:1022800038B3606D00F00100F0B1052084F835002E
:102290002068006820F001002168086000BF0098F5
:1022A000401C0090B84200D905E02068006800F0AA
:1022B00001000028F3D100BF012084F8350000BFE1
:1022C000002084F8340000BFE06C10B12046E16CBF
:1022D000884700BFA4E700000C0000202DE9F04172
:1022E0000446002500F0E0F9074614B90120BDE8D6
:1022F000F081606A00B100BF022084F8350000BFA1
:10230000002084F8340000BF2068006820F001003D
:10231000216808600AE000F0C7F9C01B052805D94C
:1023200020206065032084F83500E0E7206800681D
:1023300000F001000028EED1206805682148054022
:10234000D4E901010843E168084321690843616950
:102350000843A1690843E1690843216A084305432A
:10236000606A042803D1D4E90B01084305432068BF
:1023700005602068456925F00705606A0543606AC5
:1023800004280DD1A06A0543E06A48B12046FFF752
:1023900037F828B140206065012084F83500A6E7B1
:1023A000206845612046FFF711F8064694F85C1056
:1023B0003F208840B06000206065012084F835002F
:1023C000002094E73F8010F02DE9F04704460D46C9
:1023D00016461F464FF00008D4F8589000BF94F8F6
:1023E0003400012802D10220BDE8F087012084F8E2
:1023F000340000BF94F83500012825D1022084F86C
:102400003500002060653B46324629462046FFF7EE
:102410004CF894F85C103F208840C9F80800206808
:10242000006840F0160021680860206C28B1206820
:10243000006840F00800216808602068006840F0EB
:1024400001002168086006E000BF002084F8340025
:1024500000BF4FF002084046C6E7000070B50446D2
:1024600000F022F906462546681C10B104480078A1
:10247000054400BF00F018F9801BA842FAD370BDD4
:1024800008000020F8B502460B4600250024002075
:102490000021D6E0012606FA01F51E6806EA0504C9
:1024A000AC4274D11E7906F00306012E04D01E79C9
:1024B00006F00306022E13D190684F000326BE409B
:1024C000B0434F00DE68BE40304390605068012644
:1024D0008E40B0431E79C6F300168E4030435060E4
:1024E0001E7906F00306032E09D0D0684F0003269C
:1024F000BE40B0434F009E68BE403043D0601E795E
:1025000006F00306022E13D1CF0802F1200656F87A
:1025100027004E07F70E0F26BE40B0434F07FF0EB1
:102520001E69BE403043CF0802F1200646F827005E
:1025300010684F000326BE40B0431E7906F0030624
:102540004F00BE40304310605E6806F44036002EF7
:1025500076D000BF002600963C4E366846F4804692
:102560003A4F3E603E46366806F48046009600BF0D
:1025700000BF374E8F0856F827008E07370F0F26FB
:10258000BE40B043334EB24202D1002624E057E0B1
:10259000314EB24201D101261EE0304EB24201D18D
:1025A000022619E02E4EB24201D1032614E02D4E30
:1025B000B24201D104260FE02B4EB24201D10526D2
:1025C0000AE02A4EB24201D1062605E0284EB24268
:1025D00001D1072600E008268F073F0FBE40304399
:1025E0001B4E8F0846F82700224E3068A0435E68D5
:1025F00006F4801606B120431E4E3060361D30684A
:10260000A0435E6806F4001606B12043194E361D3D
:102610003060184E361F3068A0435E6806F40036FE
:1026200006B12043134E361F3060361F3068A0437A
:102630005E6806F4803606B120430E4E083E3060D8
:10264000491C1029FFF426AFF8BD000044380240B1
:102650000838014000000240000402400008024027
:10266000000C02400010024000140240001802401A
:10267000001C0240083C0140024613690B400BB1AC
:10268000012000E00020704710B5426921EA0203F2
:1026900002EA010443EA0443836110BD0AB1816187
:1026A00001E00B0483617047014800687047000037
:1026B00000000020034800680349097808440149E4
:1026C00008607047000000200800002010B50D4889
:1026D000006840F400700B4908600846006840F448
:1026E000806008600846006840F48070086003203D
:1026F00000F0A6F80F2000F007F800F02BF80020FB
:1027000010BD0000003C024070B504460E48007841
:102710004FF47A71B1FBF0F00C490968B1FBF0F5A8
:10272000284600F0D7FC08B1012070BD102C07D25C
:1027300000222146501E00F045F80548046001E0E3
:102740000120F2E70020F0E7080000200C00002044
:102750000400002008B500BF002000900E4800686B
:1027600040F480400C4908600846006800F480404E
:10277000009000BF00BF00BF00200090081F00684D
:1027800040F08050091F08600846006800F0805043
:10279000009000BF00BF08BD443802400146084613
:1027A00000280DDB00BF00BF00F01F0301229A408C
:1027B00043099B0003F1E023C3F8002100BF00BFE1
:1027C00000BF70472DE9F05F80460D461646002792
:1027D00003F036FD074639462A46334601F0070026
:1027E000C0F1070ABAF1040F02D94FF0040A01E060
:1027F000C0F1070AD14600F1040ABAF1070F02D26C
:102800004FF0000A01E0A0F1030AD4464FF0010A9C
:102810000AFA09FAAAF1010A0AEA020A0AFA0CFA01
:102820004FF0010B0BFA0CFBABF1010B0BEA030BA6
:102830004AEA0B042146404603F00AFDBDE8F09F3A
:1028400000BF00F00702064B19684FF6FF0319405E
:10285000044B0B4343EA0221014B196000BF704750
:102860000CED00E00000FA0570B504460D460CB909
:10287000012070BD5848006800F00700A84209D246
:1028800055490D700846006800F00700A84201D0C5
:102890000120EEE7207800F0020002281DD1207808
:1028A00000F00400042805D14C48006840F4E050D2
:1028B0004A490860207800F00800082805D14748F8
:1028C000006840F46040454908604448006820F0D2
:1028D000F000A168084341490860207800F0010039
:1028E000A8B36068012807D13C4808380068C0F3E5
:1028F0004040B8B90120BCE76068022802D0606897
:10290000032807D1354808380068C0F3406048B94B
:102910000120AEE7314808380068C0F3400008B92C
:102920000120A6E72D48006820F0030061680843F5
:102930002A490860FFF7B8FE064609E0FFF7B4FE33
:10294000801B41F28831884202D9032091E707E0D9
:102950002248006800F00C006168B0EB810FEDD1F7
:102960001D48006800F00700A84209D91A490D70F7
:102970000846006800F00700A84201D0012078E76F
:10298000207800F00400042807D11448006820F4DF
:10299000E050E168084311490860207800F0080021
:1029A000082808D10D48006820F46040216940EAF9
:1029B000C1000A49086000F03FF808490968C1F3FE
:1029C0000311074A515CC840064908600648006880
:1029D000FFF79AFE00204CE7003C02400838024016
:1029E0001C6B00080C000020040000200148006857
:1029F000704700000C00002000B5FFF7F7FF044906
:102A00000968C1F38221034A515CC84000BD00003F
:102A1000083802402C6B000800B5FFF7E7FF0449B7
:102A20000968C1F34231034A515CC84000BD00004F
:102A3000083802402C6B00082DE9F04700240025DF
:102A40000026A1462548006800F00C0020B10428AB
:102A500005D008283AD105E0DFF8849039E0DFF8A6
:102A6000849036E01D48001F006800F03F041B48BA
:102A7000001F006800F4800078B11A481749091F48
:102A80000968C1F38811A0FB0170014622460023AA
:102A90003846FDF795FB05460EE011480F49091F22
:102AA0000968C1F38811A0FB01700146224600238A
:102AB0003846FDF785FB05460848001F0068C0F34F
:102AC0000140401C4600B5FBF6F902E0DFF810902B
:102AD00000BF00BF4846BDE8F0870000083802404C
:102AE0000024F40000127A00F8B504460CB9012065
:102AF000F8BD207800F00100002874D0F948006883
:102B000000F00C0004280DD0F648006800F00C001E
:102B1000082813D1F348001F006800F48000B0F5C6
:102B2000800F0BD1EF4808380068C0F34040002800
:102B300059D06068002856D10120D9E700BF6068ED
:102B4000B0F5803F08D1E7480838006840F480308D
:102B5000E449083908601EE06068B0F5A02F0DD187
:102B6000E0480838006840F48020DE4908390860F1
:102B70000846006840F4803008600CE0D948083806
:102B8000006820F48030D74908390860084600689A
:102B900020F48020086000BF606890B1FFF784FDDA
:102BA000054606E0FFF780FD401B642801D903209D
:102BB0009EE7CC4808380068C0F340400028F1D0B8
:102BC00011E0FFF771FD054606E0FFF76DFD401BC4
:102BD000642801D903208BE7C24808380068C0F395
:102BE00040400028F1D1207800F0020002285FD197
:102BF000BC48006800F00C0058B1BA48006800F00A
:102C00000C0008281CD1B748001F006800F48000A1
:102C1000B0B9B44808380068C0F3400020B1E0689B
:102C2000012801D0012063E7AE480838006820F091
:102C3000F800216940EAC100AA490839086037E074
:102C4000E06800B30120A8490860FFF72DFD0546A4
:102C500006E0FFF729FD401B022801D9032047E7C2
:102C6000A04808380068C0F340000028F1D09D4813
:102C70000838006820F0F800216940EAC10099494D
:102C80000839086014E0002097490860FFF70CFD40
:102C9000054606E0FFF708FD401B022801D9032086
:102CA00026E7904808380068C0F340000028F1D1BA
:102CB000207800F0080008282CD16069A8B1012014
:102CC0008A490860FFF7F0FC054606E0FFF7ECFCD8
:102CD000401B022801D903200AE782486C300068B3
:102CE000C0F340000028F1D014E000207F490860C4
:102CF000FFF7DAFC054606E0FFF7D6FC401B02288A
:102D000001D90320F4E677486C300068C0F3400036
:102D10000028F1D1207800F00400042870D10027A9
:102D200070483830006800F0805090B900BF002033
:102D300000906C483830006840F080506949383164
:102D400008600846006800F08050009000BF00BF97
:102D500001276748006800F48070B0B964480068D3
:102D600040F4807062490860FFF79EFC054606E06B
:102D7000FFF79AFC401B022801D90320B8E65C4803
:102D8000006800F480700028F2D000BFA06801281D
:102D900008D154486830006840F00100514968315A
:102DA00008601DE0A06805280DD14E486830006815
:102DB00040F004004B49683108600846006840F064
:102DC000010008600CE047486830006820F001000E
:102DD0004449683108600846006820F00400086033
:102DE00000BFA068A8B1FFF75FFC054609E0FFF748
:102DF0005BFC401B41F28831884202D9032077E610
:102E000026E0384868300068C0F340000028EED063
:102E100013E0FFF749FC054608E0FFF745FC401BBF
:102E200041F28831884201D9032061E62D4868309B
:102E30000068C0F340000028EFD1012F07D12948D6
:102E40003830006820F0805026493831086000BFD3
:102E5000A069002845D02348006800F00C0008282D
:102E60005DD0A069022845D100201F490866FFF700
:102E70001BFC054606E0FFF717FC401B022801D9A2
:102E8000032035E6174808380068C0F34060002882
:102E9000F1D1D4E907010843616A40EA81110122B6
:102EA000A06AC2EB500041EA00412C20005D41EADB
:102EB00000600C49091F086001200B490866FFF7F4
:102EC000F3FB054606E0FFF7EFFB401B022801D9A4
:102ED00003200DE6034808380068C0F3406000286E
:102EE000F1D049E00838024000004742800E4742D6
:102EF00000700040002021490866FFF7D5FB054619
:102F000006E0FFF7D1FB401B022801D90320EFE5C3
:102F10001B480068C0F340600028F2D12CE0A06993
:102F2000012800D1E4E51648001D0668A0690128C3
:102F300020D006F48001E06981421BD106F03F01F8
:102F4000206A814216D147F6C0703040616AB0EB0A
:102F5000811F0FD106F440310122A06AC2EB50005C
:102F6000B1EB004F06D106F070612C20005DB1EB93
:102F7000006F01D00120BBE50020B9E50000474209
:102F80000038024010B504460CB9012010BD606A3B
:102F900038B96068B0F5827F00D105E00021E161B9
:102FA00002E00021216161610021A16294F85100D9
:102FB00028B9002084F85000204600F047F802208D
:102FC00084F851002068006820F040002168086003
:102FD000A08800F48270218901F404410843A1898A
:102FE00001F400610843217C01F002010843217DC6
:102FF00001F001010843218B01F400710843217F96
:1030000001F0380108432021095D01F080010843E7
:10301000218D01F400510843216808600421A06952
:1030200001EA104094F8241001F0100108432168CF
:1030300048602068C06920F400602168C8610020F1
:103040006065012084F8510000209FE710B586B02C
:103050000446142101A8FDF7EBF81B4920688842BB
:103060002FD100BF002000901848006840F40040B5
:10307000164908600846006800F40040009000BF50
:1030800000BF00BF0020009010481038006840F0DA
:1030900002000E49103908600846006800F002007E
:1030A000009000BF00BF3820019002200290002055
:1030B0000390032004900620059001A90448FFF71F
:1030C000E1F906B010BD0000003C0040403802406D
:1030D0000004024070B504462546681EB0F1807FAA
:1030E00001D301200FE0681E4FF0E02148610F215D
:1030F0004FF0FF3003F0ACF800204FF0E021886182
:1031000007200861002070BD7047704710B5034666
:10311000002200BF93F83C00012801D1022010BD1D
:10312000012083F83C0000BF22F0FF00CC6840EA99
:10313000040222F440708C6840EA040222F48060A9
:103140004C6840EA040222F400600C6840EA040281
:1031500022F480500C6940EA040222F400504C69C9
:1031600040EA040222F48040CC6940EA0402186874
:10317000426400BF002083F83C0000BF00BFCEE7E0
:1031800030B502460B4600BF92F83C00012801D141
:10319000022030BD012082F83C0000BF022082F8EE
:1031A0003D00106844681068816824F07004186855
:1031B000044310684460184D1068A8421BD0106882
:1031C000B0F1804F17D0154D1068A84213D0144DA0
:1031D0001068A8420FD0134D1068A8420BD0124DB2
:1031E0001068A84207D0114D1068A84203D0104DB6
:1031F0001068A84205D121F0800158680143106889
:103200008160012082F83D0000BF002082F83C0070
:1032100000BF00BFBDE70000000001400004004007
:1032200000080040000C0040000401400040014044
:103230000018004070B504460D4615B994F84200D8
:103240000BE0042D02D14320005D06E0082D02D1E1
:103250004420005D01E04520005D012801D00120EF
:1032600070BD1DB9022084F842000EE0042D03D188
:1032700002214320015508E0082D03D102214420FA
:10328000015502E00221452001550422294620680B
:1032900002F037FB2068406C40F40040216848642D
:1032A0001A49206888421BD02068B0F1804F17D09F
:1032B00017492068884213D01649206888420FD0E9
:1032C0001549206888420BD014492068884207D0ED
:1032D00013492068884203D01249206888420CD1E3
:1032E0002068806800F00706062E0CD02068006871
:1032F00040F001002168086005E02068006840F0A7
:103300000100216808600020AAE7000000000140D9
:103310000004004000080040000C00400004014090
:10332000004001400018004010B504460CB90120CF
:1033300010BD94F83D0028B9002084F83C002046D8
:1033400000F026F8022084F83D00211D206802F0DC
:1033500057FA012084F8460000BF84F83E0001219E
:103360003F200155402001554120015500BF00BFBD
:10337000012084F842004320015544200155452096
:10338000015500BF012084F83D000020D0E7000077
:1033900038B5044628492068884218D100BF00206B
:1033A00000902648006840F0010024490860084663
:1033B000006800F00100009000BF00BF002211462D
:1033C0001920FFF7FFF91920FFF7E8F933E01C494E
:1033D0002068884211D100BF002000901748001FCC
:1033E000006840F010001549091F08600846006891
:1033F00000F01000009000BF1DE0124920688842D4
:1034000019D100BF002000900C48001F006840F058
:1034100020000A49091F08600846006800F02000E3
:10342000009000BF00BF002211463720FFF7CAF905
:103430003720FFF7B3F938BD00000140443802409F
:103440000010004000140040014691F83D000128A2
:1034500001D001207047022081F83D001A4B086816
:1034600098421BD00868B0F1804F17D0174B0868FE
:10347000984213D0164B086898420FD0154B086835
:1034800098420BD0144B0868984207D0134B086839
:10349000984203D0124B086898420CD108688068A3
:1034A00000F00702062A0CD00868006840F001000E
:1034B0000B68186005E00868006840F001000B68C0
:1034C00018600020C6E70000000001400004004032
:1034D00000080040000C0040000401400040014092
:1034E00000180040014691F83D00012801D001205C
:1034F0007047022081F83D000868C06840F0010074
:103500000B68D8601A4B086898421BD00868B0F165
:10351000804F17D0174B0868984213D0164B086895
:1035200098420FD0154B086898420BD0144B08688E
:10353000984207D0134B0868984203D0124B086892
:1035400098420CD10868806800F00702062A0CD067
:103550000868006840F001000B68186005E0086822
:10356000006840F001000B6818600020C0E7000010
:10357000000001400004004000080040000C004032
:103580000004014000400140001800402DE9F041D6
:1035900004460D46002700BF94F83C00012802D1E4
:1035A0000220BDE8F081012084F83C0000BF022029
:1035B00084F83D002068866826F0770626F47F466A
:1035C000206886602868502833D00CDC202850D032
:1035D00004DC00284BD0102851D149E0302849D0D4
:1035E00040284CD139E060282DD0702807D0B0F5A4
:1035F000805F03D0B0F5005F41D10DE041E0D5E937
:1036000002136A68206802F08DF92068866846F027
:1036100077062068866034E0D5E902136A6820687E
:1036200002F080F92068806840F48040216888605A
:1036300027E0EA686968206802F064FA502120688F
:1036400002F07BF91DE0EA686968206802F06DFA13
:103650006021206802F071F913E0EA686968206867
:1036600002F050FA4021206802F067F909E000BF3B
:1036700000BF00BF2968206802F05FF901E0012760
:1036800000BF00BF012084F83D0000BF002084F887
:103690003C0000BF384684E7704770B50446206898
:1036A000C5682068066906F00200022819D105F0F5
:1036B0000200022815D1401F2168086101202077EF
:1036C0002068806900F0030018B12046FFF7E4FF8E
:1036D00005E0204600F0CAF8204600F07EF9002000
:1036E000207706F00400042819D105F0040004280E
:1036F00015D1C043216808610220207720688069C5
:1037000000F4407018B12046FFF7C6FF05E02046E0
:1037100000F0ACF8204600F060F90020207706F0B9
:103720000800082819D105F00800082815D1C04361
:1037300021680861042020772068C06900F0030038
:1037400018B12046FFF7A8FF05E0204600F08EF8EC
:10375000204600F042F90020207706F010001028E3
:1037600019D105F01000102815D1C0432168086157
:10377000082020772068C06900F4407018B1204606
:10378000FFF78AFF05E0204600F070F8204600F0C1
:1037900024F90020207706F0010048B105F001006F
:1037A00030B16FF0010021680861204600F09CF9FB
:1037B00006F08000802809D105F08000802805D11E
:1037C000C043216808612046FFF79EFC06F04000D8
:1037D000402809D105F04000402805D1C0432168A8
:1037E0000861204600F0B8F906F02000202809D131
:1037F00005F02000202805D1C0432168086120463B
:10380000FFF783FC70BD000010B586B0044614219C
:1038100001A8FCF70DFD1249206888421DD100BFA8
:10382000002000900F48006840F010000D4908602B
:103830000846006800F01000009000BF00BF4FF481
:103840007C500190022002900020039004900120FF
:10385000059001A90448FEF715FE06B010BD000052
:1038600000000140303802400010024070472DE94E
:10387000F04104460D461646002700BF94F83C0070
:10388000012802D10220BDE8F081012084F83C002B
:1038900000BF36B1042E1BD0082E31D00C2E5ED1C5
:1038A00045E02946206802F051F82068806940F020
:1038B0000800216888612068806920F00400216880
:1038C000886120688069296908432168886148E027
:1038D0002946206802F072F82068806940F4006090
:1038E000216888612068806920F48060216888618F
:1038F00020688069296940EA01202168886130E0F8
:103900002946206802F098F82068C06940F0080055
:103910002168C8612068C06920F004002168C8617E
:103920002068C069296908432168C86119E02946EF
:10393000206802F0BDF82068C06940F4006021688A
:10394000C8612068C06920F480602168C86120686F
:10395000C069296940EA01202168C86101E00127A6
:1039600000BF00BF00BF002084F83C0000BF384605
:1039700089E710B504460CB9012010BD94F83D004C
:1039800028B9002084F83C00204600F025F80220E9
:1039900084F83D00211D206801F032FF012084F8E9
:1039A000460000BF84F83E0001213F200155402021
:1039B00001554120015500BF00BF012084F842009D
:1039C00043200155442001554520015500BF0120E9
:1039D00084F83D000020D0E77047704770B504467A
:1039E0000D4615B994F83E000BE0042D02D13F209E
:1039F000005D06E0082D02D14020005D01E041207D
:103A0000005D012801D0012070BD1DB9022084F89D
:103A10003E000EE0042D03D102213F20015508E0B5
:103A2000082D03D102214020015502E0022141204E
:103A3000015501222946206801F052FF23492068E0
:103A4000884203D022492068884201D1012000E049
:103A5000002028B12068406C40F400402168486490
:103A60001A49206888421BD02068B0F1804F17D0D7
:103A700018492068884213D01749206888420FD01F
:103A80001649206888420BD011492068884207D027
:103A900013492068884203D01249206888420CD11B
:103AA0002068806800F00706062E0CD020680068A9
:103AB00040F001002168086005E02068006840F0DF
:103AC00001002168086000209EE70000000001401E
:103AD000000401400004004000080040000C0040C9
:103AE000004001400018004010B504461449206809
:103AF000884224D1134A14491448FDF721FD134884
:103B0000D0ED1F0AB0EE600A02F034FC0F4880EDE1
:103B10001F0AB7EE000A80ED0B0A9FED0D0A80ED3B
:103B20000A0A02F0B5FF094802F08EFF074801F0CB
:103B30007DFB01F0D3FD03210648FDF7D1FC10BD4C
:103B400000140040D8040020F0040020F8030020F6
:103B500000000000A40600207047F8B504460D469A
:103B6000164694F8420020282DD105B10EB9012047
:103B7000F8BD0120206300206063324629462046BC
:103B800002F072FA0746206B012819D100BF00200D
:103B9000009020680068009020684068009000BF96
:103BA00000BF00BF00BF21680C3151E8001F41F089
:103BB000100021680C3141E80002002AF3D100E036
:103BC00001273846D4E70220D2E70000F8B50446C2
:103BD0000E465F4890F8890000286FD05D49206844
:103BE00088426BD180225C495C48FFF7B6FF5A4897
:103BF0000078732806D1584840786D2802D10020FB
:103C00005749087054480078742827D152484078A2
:103C10006D2823D104205249087025214E48FCF715
:103C200012FB0546CDB19FED4F0A8DED000A6A46A5
:103C30004DA1681CFCF712FB012809D19DED000A7B
:103C40004A4880ED030A0121084602F059FD03E0CD
:103C50000121022002F054FD00BF6CE03E480078D4
:103C6000762832D13C4840786D282ED105203C4939
:103C700008709FED3C0A3E4880ED090A9FED390A25
:103C80003C4880ED090A25213348FCF7DCFA05465B
:103C9000D5B19FED340A8DED000A6A4632A1681C49
:103CA000FCF7DCFA01280AD19DED000A304880EDCE
:103CB000030A0121084602F023FD04E047E0012148
:103CC000022002F01DFD00BF35E023480078702877
:103CD00031D1214840786D282DD106202049087027
:103CE00000201B4981F88A00084690F88A00401C91
:103CF00081F88A0025211848FCF7A5FA0546CDB1C0
:103D00009FED180A8DED000A6A4617A1681CFCF7A2
:103D1000A5FA012809D19DED000A164880ED030A95
:103D20000121084602F0ECFC03E00121022002F030
:103D3000E7FC00BF00BF10480068006820F00800E2
:103D40000D490968086080210348FCF771FAF8BD45
:103D5000F80300200010014024060020F00200209B
:103D60001000002000000000256600000005002073
:103D70008C050020C40500203803002010B504463F
:103D80000A492068884210D1802209490948FFF772
:103D9000E4FE09480068006820F008000649096848
:103DA000086080210248FCF743FA10BD0010014072
:103DB00024060020F0020020380300202DE9F84FEF
:103DC0000446206805682068C668206847694FF087
:103DD0000009CA4605F00F09B9F1000F0AD105F034
:103DE000200038B106F0200020B1204601F0A7FFE6
:103DF000BDE8F88FB9F1000F7CD007F0010018B9C9
:103E000006F49070002875D005F0010030B106F47A
:103E1000807018B1606C40F00100606405F004002F
:103E200030B107F0010018B1606C40F0020060642E
:103E300005F0020030B107F0010018B1606C40F0ED
:103E40000400606405F0080048B106F0200010B9D5
:103E500007F0010018B1606C40F008006064606C0D
:103E6000002846D005F0200028B106F0200010B14F
:103E7000204601F064FF20684069C0F3801A606C3E
:103E800000F0080010B9BAF1000F2DD0204601F063
:103E9000FDFE2068406900F04000402820D100BFAE
:103EA00000BF2168143151E8001F21F04000216853
:103EB000143141E80002002AF3D100BFE06B50B199
:103EC0007F48E16B0865E06BFEF7D4F888B1E06BE2
:103ED000016D88470DE02046FFF750FF09E009E03B
:103EE0002046FFF74BFF04E02046FFF747FF002086
:103EF00060647DE7206B012878D105F01000002870
:103F000074D006F010000028FAD000BF0020009006
:103F100020680068009020684068009000BF00BFE3
:103F20002068406900F04000402870D1E06B0068D4
:103F300040681FFA80F8B8F1000F58D0A08D4045B6
:103F400055DDA4F82E80E06BC069B0F5807F43D0CA
:103F500000BF00BF21680C3151E8001F21F48070C0
:103F600021680C3141E80002002AF3D100BF00BFF4
:103F700000BF2168143151E8001F21F001002168C1
:103F8000143141E80002002AF3D100BF00BF00BF96
:103F90002168143151E8001F21F0400021681431DC
:103FA00041E80002002AF3D100BF202084F842003B
:103FB0000020206300BF00BF21680C3151E8001FC2
:103FC00021F0100021680C3141E80002002AF3D1F1
:103FD00000BFE06BFDF7F8FF02206063A08DE28D6B
:103FE000801A81B22046FFF7F1FD0EE052E0A08D6D
:103FF00040450AD1E06BC069B0F5807F05D1022051
:104000006063A18D2046FFF7E1FDF1E6FFE7A08D9B
:10401000E18D401A1FFA80F8E08DD0B3B8F1000F9F
:1040200037D000BF00BF21680C3151E8001F21F4D8
:10403000907021680C3141E80002002AF3D100BFE2
:1040400000BF00BF2168143151E8001F21F00100BA
:104050002168143141E80002002AF3D100BF20207A
:1040600084F842000020206300BF00BF21680C31AB
:1040700051E8001F21F0100021680C3141E80002D6
:10408000002AF3D100BF0220606341462046FFF7BB
:104090009DFDADE605F0800030B106F0800018B15E
:1040A000204602F04DF8A3E605F0400030B106F0DE
:1040B000400018B1204601F01FFE99E600BF97E6C8
:1040C000535B000810B504460CB9012010BDA0696F
:1040D00000B100E000BF94F8410028B9002084F846
:1040E0004000204600F02AF8242084F8410020688F
:1040F000C06820F400502168C860204601F09EFE90
:104100002068006920F490402168086120684069B7
:1041100020F02A00216848612068C06840F40050FF
:104120002168C86000206064202084F8410084F881
:1041300042000020606300BFC8E7000010B586B0F1
:104140000446142101A8FCF773F83D492068884211
:1041500073D100BF002000903A48006840F0100082
:10416000384908600846006800F01000009000BF61
:1041700000BF00BF0020009032481438006840F0B3
:1041800002003049143908600846006800F0020057
:10419000009000BF00BFC0200190022002900020CC
:1041A0000390032004900720059001A92648FEF7FC
:1041B00069F92648264908604FF0006048600021F0
:1041C00023488160C1604FF4806101610021416139
:1041D0008161C16101624162FEF780F808B1FDF7BB
:1041E0007BF900BF1A48E063846300BF174878304A
:1041F000184908604FF00060486040211548816010
:104200000021C1604FF48061016100214161816141
:10421000C16101624162FEF761F808B1FDF75CF926
:1042200000BF0C48A063846300BF00221146252014
:10423000FEF7C8FA2520FEF7B1FA06B010BD00005F
:104240000010014044380240000402404064024033
:104250003803002098030020704770472DE9F84F7D
:1042600004460E46174699464FF0000A94F841005E
:10427000202850D106B117B90120BDE8F88F0020E1
:104280006064212084F84100FEF70EFA8246A7847C
:10429000E784A068B0F5805F04D1206910B90025DB
:1042A000B04602E035464FF000081EE053460022BB
:1042B00080212046CDF8009001F072FF20B120202F
:1042C00084F841000320D8E745B9B8F80000C0F3EE
:1042D00008002168486008F1020803E02878216896
:1042E00048606D1CE08C401EE084E08C0028DDD12D
:1042F0005346002240212046CDF8009001F050FFA7
:1043000020B1202084F841000320B6E7202084F863
:1043100041000020B1E70220AFE7704700BFFEE791
:104320009FED080B80ED000B9FED080B80ED020B5D
:104330009FED060B80ED040B9FED040B80ED060B4B
:10434000704700000000000000006940000000000D
:1043500000000000B7EE080A80ED030A9FED1A0A7C
:1043600080ED000A9FED190A80ED010A9FED180A01
:1043700080ED0A0A9FED170A80ED0B0AB2EE040ADF
:1043800080ED0C0ABAEE040A80ED0D0A9FED120AC8
:1043900081ED030A9FED0C0A81ED000A9FED0B0AE7
:1043A00081ED010A9FED0A0A81ED0A0A9FED090AD3
:1043B00081ED0B0AB2EE080A81ED0C0ABAEE080A8A
:1043C00081ED0D0A70470000EC51783FF4FD543C3C
:1043D0006666E6406666E6C0000000009FED060ADD
:1043E00080ED000A9FED050A80ED010A9FED040AA9
:1043F00080ED020A70470000074232390080BB4559
:10440000CDCC4C3E9FED0C0A80ED000A9FED0B0ACF
:1044100080ED010A9FED0A0A80ED020A9FED090A6C
:1044200080ED030A9FED080A80ED040A9FED070A5C
:1044300080ED050A70470000000000003480373B23
:104440009F71613A4260653B3333A340333323406D
:104450009FED0E0A80ED030AB7EE080A80ED000A10
:104460009FED0A0A80ED010A9FED090A80ED0A0A14
:104470009FED080A80ED0B0A9FED070A80ED0C0AFC
:104480009FED060A80ED0D0A704700000000000055
:10449000CDCCCC3DCDCCCCBD0000C8420000C8C2C4
:1044A000B2EE080A703080ED050A07210174B7EEFC
:1044B000000A00ED020A002101764176C1760177FB
:1044C00041777038704700009FED0A0A80ED000ABE
:1044D0009FED080A80ED010A9FED070A80ED020AB0
:1044E0009FED040A80ED030A9FED020A80ED040AA5
:1044F000704700000000000000007A459FED0E0AA2
:1045000080ED030A9FED0D0A80ED000A9FED0C0A75
:1045100080ED010A9FED0B0A80ED0A0A9FED0A0A61
:1045200080ED0B0A9FED090A80ED0C0A9FED080A49
:1045300080ED0D0A7047000000000000BC74933C41
:1045400017B7D13A6666E6406666E6C05C8F0A41F8
:104550005C8F0AC110B50D48FFF754FF0C48FFF7F8
:10456000DFFE0C48FFF79CFF0B490C48FFF7F2FEFB
:104570000B48FFF7A9FF0B48FFF7C0FF0A48FFF7FA
:1045800067FF0A48FFF72AFF10BD0000D80400208B
:1045900088040020F80300203805002000050020D2
:1045A000700500208C050020C4050020FC050020BB
:1045B00091ED1C0A80ED030A90ED020AD0ED030A8A
:1045C00020EE200AD0ED020AB7EE001A71EE600A62
:1045D00090ED061A00EE810A80ED090A90ED090AB5
:1045E00080ED060A90ED090A81ED1C0A91ED1D0A85
:1045F00080ED040A90ED020AD0ED040A20EE200AB4
:10460000D0ED020AB7EE001A71EE600A90ED071ABB
:1046100000EE810A80ED090A90ED090A80ED070A93
:1046200090ED090A81ED1D0A91ED1E0A80ED050A43
:1046300090ED020AD0ED050A20EE200AD0ED020A24
:10464000B7EE001A71EE600A90ED081A00EE810ACA
:1046500080ED090A90ED090A80ED080A90ED090A3B
:1046600081ED1E0A7047000000B58DB00020099052
:104670000A900B900C90202101A8FBF7D9FD23484C
:10468000234908604FF48030486000212048816051
:104690000161017680F82010C1621E49816200210B
:1046A000C1600121C161002180F830100121416108
:1046B000FDF78EFB08B1FCF70FFF0D2009900120DC
:1046C0000A9000200B9009A91148FDF707FA08B1DC
:1046D000FCF702FF0A2001900120029005900020C3
:1046E00003904FF4801008900011079000208DF87F
:1046F00019008DF81800049001A90548FCF7E6FFA1
:1047000008B1FCF7E9FE0DB000BD0000002001403B
:10471000700000200100000F00B58DB0002009904E
:104720000A900B900C90202101A8FBF781FD2348F3
:10473000234908604FF480304860002120488160A0
:104740000161017680F82010C1621E49816200215A
:10475000C1600121C161002180F830100121416157
:10476000FDF736FB08B1FCF7B7FE0B2009900120DE
:104770000A9000200B9009A91148FDF7AFF908B184
:10478000FCF7AAFE0B20019001200290059000206A
:1047900003904FF4801008900011079000208DF8CE
:1047A00019008DF81800049001A90548FCF78EFF48
:1047B00008B1FCF791FE0DB000BD000000210140E2
:1047C000B80000200100000F08B500BF00200090D5
:1047D0001648006840F480001449086008460068E4
:1047E00000F48000009000BF00BF00221146382076
:1047F000FDF7E8FF3820FDF7D1FF002211463A20EF
:10480000FDF7E0FF3A20FDF7C9FF002211463B20EB
:10481000FDF7D8FF3B20FDF7C1FF002211464620DF
:10482000FDF7D0FF4620FDF7B9FF08BD3038024044
:1048300000B587B0142102A8FBF7FAFC00BF0020E6
:1048400001905448006840F0100052490860084642
:10485000006800F01000019000BF00BF00BF002002
:1048600001900846006840F0800008600846006833
:1048700000F08000019000BF00BF00BF0020019049
:104880000846006840F0040008600846006800F030
:104890000400019000BF00BF00BF00200190084647
:1048A000006840F0010008600846006800F0010060
:1048B000019000BF00BF00BF0020019008460068C3
:1048C00040F0020008600846006800F00200019015
:1048D00000BF00BF01224FF4E0712F48FDF7DEFE5C
:1048E00000224FF400412D48FDF7D8FE012251026D
:1048F0002B48FDF7D3FE00224FF400412648FDF778
:10490000CDFE18200290002003900120049002A9FF
:104910002448FDF7B7FD01200290002003900220FB
:10492000049002A91C48FDF7ADFD48F2C0000290BA
:104930000120039000200490059002A91648FDF77D
:10494000A1FD4FF40040029001200390002004904C
:104950000320059002A91148FDF794FD4FF4007063
:10496000029011200390002004900320059002A9DA
:104970000B48FDF787FD4FF48070029001200390F3
:10498000002004900320059002A90348FDF77AFD5A
:1049900007B000BD30380240000002400004024071
:1049A000000802400010024010B50E480E49086091
:1049B0004FF48270486000210B488160C160016142
:1049C00041614FF4007181610021C1610162416266
:1049D00081620A21C162FEF7D5FA08B1FCF77CFDBD
:1049E00010BD0000003C0040C001002000B595B0A3
:1049F000002011901290139014900F9010901C2191
:104A000008A8FBF715FC20216846FBF711FC364887
:104A1000364908600020486060213448816040F6D3
:104A2000AB51C16000210161072141618021816199
:104A3000FEF77AFC08B1FCF74FFD4FF4805011905F
:104A400011A92A48FEF7A2FD08B1FCF745FD274849
:104A5000FEF78FFF08B1FCF73FFD20200F900020EC
:104A600010900FA92148FEF78BFB08B1FCF734FD2D
:104A7000702008904FF49670099000200A900B90D7
:104A80000C900D900E90002208A91848FEF7EFFE3A
:104A900008B1FCF721FD042208A91448FEF7E7FE3F
:104AA00008B1FCF719FD082208A91048FEF7DFFE3F
:104AB00008B1FCF711FD0020009001900290052044
:104AC0000390002004904FF40050059000200790C0
:104AD00069460648FEF71AFB08B1FCF7FDFC0348DF
:104AE000FEF792FE15B000BD000001401802002044
:104AF0001CB50020009001900E480F49086053201B
:104B0000486000210C4881604FF6FF71C1600021B0
:104B10008161FEF709FC08B1FCF7DEFC0020009083
:104B2000019069460448FEF72BFB08B1FCF7D4FC62
:104B30001CBD000000100040600200201CB50020D9
:104B4000009001900D480E490860532048600021F4
:104B50000B488160F921C16080218161FEF7E4FB8F
:104B600008B1FCF7B9FC00200090019069460448A8
:104B7000FEF706FB08B1FCF7AFFC1CBD00140040BB
:104B8000A802002010B50A480A4908600A4848608F
:104B9000002108488160C16001610C214161002150
:104BA0008161C161FFF78EFA08B1FCF795FC10BD79
:104BB00000100140F0020020C0C62D002DE9F04198
:104BC0002DED028B04460E461546B1EE080A84ED23
:104BD0000A0A9FED1E0A84ED0B0A9FED1C0A84ED64
:104BE0001F0A204601F054FF204601F02DFF204609
:104BF00000F01CFB4FF4FA60FDF730FC9FED130A48
:104C0000B0EE408A00270AE0FCF77EFA85ED030A41
:104C100095ED030A30EE080AB0EE408A7F1C642F3F
:104C2000F2DB9FED0B0AC8EE000AC6ED000A00F0A9
:104C300055FD03210748FCF753FC80210648FDF78A
:104C400023FDBDEC028BBDE8F081000000000000F8
:104C50000000C842A40600200000024000BFFEE79A
:104C600000BFFEE7624890ED0B0A624880ED040A3F
:104C70005F4890ED0A0A604880ED040A5D4890EDB7
:104C8000030AD0ED040A30EE600A80ED060A90EDCA
:104C9000090AD0ED060A90ED011A00EE810A80EDB6
:104CA000090A90ED090AD0ED0A0AB4EEE00AF1EE25
:104CB00010FA04DD90ED0A0A80ED090A0DE04D4876
:104CC00090ED090AD0ED0B0AB4EEE00AF1EE10FA0D
:104CD00003D290ED0B0A80ED090A464890ED090ACF
:104CE000D0ED000A90ED061A00EE810A80ED050A6B
:104CF00090ED050AD0ED0C0AB4EEE00AF1EE10FAE0
:104D000004DD90ED0C0A80ED050A0DE0394890EDC8
:104D1000050AD0ED0D0AB4EEE00AF1EE10FA03D266
:104D200090ED0D0A80ED050A334890ED030AD0EDB1
:104D3000040A30EE600A80ED060A90ED090AD0ED13
:104D4000060A90ED011A00EE810A80ED090A90ED45
:104D5000090AD0ED0A0AB4EEE00AF1EE10FA04DD19
:104D600090ED0A0A80ED090A0DE0234890ED090A4A
:104D7000D0ED0B0AB4EEE00AF1EE10FA03D290ED9A
:104D80000B0A80ED090A1C4890ED090AD0ED000AD3
:104D900090ED061A00EE810A80ED050A90ED050AF5
:104DA000D0ED0C0AB4EEE00AF1EE10FA04DD90ED5D
:104DB0000C0A80ED050A0DE00F4890ED050AD0EDD4
:104DC0000D0AB4EEE00AF1EE10FA03D290ED0D0AEE
:104DD00080ED050A074890ED050A054880ED0B0AAD
:104DE000054890ED050A024880ED0A0A7047000068
:104DF000F803002000050020380500202D4890ED24
:104E0000050A2D4880ED040A90ED030AD0ED040A4E
:104E100030EE600A80ED060A90ED090AD0ED060A30
:104E200090ED011A00EE810A80ED090A90ED090A61
:104E3000D0ED0A0AB4EEE00AF1EE10FA04DD90EDCE
:104E40000A0A80ED090A0DE01B4890ED090AD0ED31
:104E50000B0AB4EEE00AF1EE10FA03D290ED0B0A61
:104E600080ED090A144890ED090AD0ED000A90ED92
:104E7000061A00EE810A80ED050A90ED050AD0EDD4
:104E80000C0AB4EEE00AF1EE10FA04DD90ED0C0A23
:104E900080ED050A0DE0084890ED050AD0ED0D0AF9
:104EA000B4EEE00AF1EE10FA03D290ED0D0A80EDB7
:104EB000050A704770050020C40500202D4890EDBC
:104EC000030A2D4880ED040A90ED030AD0ED040A90
:104ED00030EE600A80ED060A90ED090AD0ED060A70
:104EE00090ED011A00EE810A80ED090A90ED090AA1
:104EF000D0ED0A0AB4EEE00AF1EE10FA04DD90ED0E
:104F00000A0A80ED090A0DE01B4890ED090AD0ED70
:104F10000B0AB4EEE00AF1EE10FA03D290ED0B0AA0
:104F200080ED090A144890ED090AD0ED000A90EDD1
:104F3000061A00EE810A80ED050A90ED050AD0ED13
:104F40000C0AB4EEE00AF1EE10FA04DD90ED0C0A62
:104F500080ED050A0DE0084890ED050AD0ED0D0A38
:104F6000B4EEE00AF1EE10FA03D290ED0D0A80EDF6
:104F7000050A7047700500208C050020704700006E
:104F800010B52DED088B954890F8890000287CD04D
:104F90004FF400419248FDF777FB01219148FCF75F
:104FA000E3FC00EE100AB8EE400A8C4880ED140ACB
:104FB00001218D48FCF7D8FC00EE100AB8EE400A3B
:104FC000864880ED150A894A8949FCF7B9FA834871
:104FD000D0ED1F0AB0EE600A01F0CCF97F4880EDF9
:104FE0001F0A90ED140ADFED830A20EE200A80EDFF
:104FF000170A90ED150ADFED7F0A20EE200A80EDFA
:10500000180A90ED170A10EE101A0846FBF787FCF5
:1050100041EC1B0B784890ED0E1BB0EE410AF0EE10
:10502000610A53EC102B51EC1B0BFBF784FB41EC9A
:105030001A0B81F0004141EC190B9FED700B53EC02
:10504000102BFBF77EFB41EC180BFBF793FC63493D
:105050000867084690ED180A10EE101A0846FBF78C
:105060005EFC41EC1B0B644890ED101BB0EE410A56
:10507000F0EE610A53EC102B51EC1B0BFBF75BFBC2
:1050800041EC1A0B81F0004100E0A4E041EC190B67
:105090009FED5A0B53EC102BFBF753FB41EC180B15
:1050A000FBF768FC4D494867084690ED1C0AB1EED5
:1050B000400AD0ED1D0A30EE600A80ED1E0A51480C
:1050C000FFF776FA454801F00BFA4F4A4F4943483B
:1050D00001F0E6FB4E480078052821D13F4890F8C2
:1050E0008C00401C3D4981F88C00084690F88C00EB
:1050F00005285FDB002081F88C003D494548FCF71E
:1051000097FA444890ED030A434880ED040AFFF7FC
:10511000D5FE414890ED050A3C4880ED030A49E080
:105120003B480078062845D12C4890F88D00401C5B
:105130002A4981F88D00084690F88A00B8B100200D
:1051400081F88A009FED350A324880ED050A9FED0F
:10515000330A80ED060A9FED310A80ED040A9FEDC7
:105160002F0A80ED010A9FED2D0A80ED030A1B48EE
:1051700090F88D0032281DDB0020184981F88D0041
:105180001B492448FCF71CFA224890ED050A2448E4
:1051900080ED040AFFF732FE214890ED050A1E4813
:1051A00080ED030AFFF78AFE1B4890ED050A1748B9
:1051B00080ED030AFFF756FD084801F069FC074837
:1051C00001F042FC054800F031F800F087FA0321B5
:1051D0001448FCF785F9BDEC088B10BDF8030020DE
:1051E0000004024070000020B8000020D804002015
:1051F000F00400209D35533A880400200000000090
:1052000000000040FC0500203805002000050020BB
:1052100010000020700500208C0500200000000018
:10522000C4050020A40600207047000010B5044605
:10523000204601F03BF9002084F881009FEDB80A78
:1052400084ED110A9FEDB60A84ED120A9FEDB40AAF
:1052500084ED130A94ED040AB5EEC00AF1EE10FADB
:1052600002DD012084F8810094ED050AB5EEC00A44
:10527000F1EE10FA04DD94F88100801C84F88100BE
:1052800094ED060AB5EEC00AF1EE10FA04DD94F8CA
:105290008100001D84F88100D4ED1A0A94ED211AD2
:1052A00080EE810AD4ED010A9FED9E1A60EE810A1C
:1052B00020EE200A84ED070A94ED1A0A94ED211AD3
:1052C000C0EE010A94ED000AB0EE081A20EE010AC1
:1052D00094ED011ADFED932A02EE810A20EE800A96
:1052E000F0EE000A80EE201A84ED081A94ED1A0AF6
:1052F00094ED211AC0EE010A94ED000AB8EE081AE6
:1053000020EE010A94ED011ADFED862A02EE810AF1
:1053100020EE800AF0EE000A80EE201A84ED091AD1
:1053200094F8810007282FD2DFE800F02E0409103E
:10533000171E2500D4ED091A94ED082A25E0D4EDB6
:10534000081A94ED070AB1EE402A1EE094ED090A0E
:10535000F1EE401A94ED072A17E094ED070AF1EEFA
:10536000401A94ED092A10E0D4ED071A94ED080ACA
:10537000B1EE402A09E094ED080AF1EE401A94EDEE
:10538000090AB1EE402A00E000BF00BF31EE820AF8
:10539000D4ED1A0AB4EEE00AF1EE10FA0CDD31EEAB
:1053A000820AC1EE800AF0EE601A31EE820AC2EE85
:1053B000000AB0EE602A01E000BF00BF94ED1A0AB7
:1053C00030EE610A30EE420AF6EE000A20EE200AC4
:1053D00084ED0C0A94ED0C0A30EE210A84ED0D0ADE
:1053E00094ED0D0A30EE020A84ED0E0A94F8810065
:1053F000072853D2DFE800F05204111E2B38450075
:1054000094ED0D0A84ED110A94ED0C0A84ED120A54
:1054100094ED0E0A84ED130A40E094ED0C0A84ED3D
:10542000110A94ED0E0A84ED120A94ED0D0A84ED32
:10543000130A33E094ED0C0A84ED110A94ED0D0A81
:1054400084ED120A94ED0E0A84ED130A26E094ED21
:105450000E0A84ED110A94ED0D0A84ED120A94ED02
:105460000C0A84ED130A19E094ED0E0A84ED110A7A
:1054700094ED0C0A84ED120A94ED0D0A84ED130AE2
:105480000CE094ED0D0A84ED110A94ED0E0A84ED02
:10549000120A94ED0C0A84ED130A00BF00BFD4ED8C
:1054A000110A2148C06A00EE100AB8EE400A20EE48
:1054B000800A84ED110AD4ED120A1B48C06A00EE7E
:1054C000100AB8EE400A20EE800A84ED120AD4EDEC
:1054D000130A1548C06A00EE100AB8EE400A20EE22
:1054E000800A84ED130A94ED110ABCEEC00A10EE96
:1054F000100A0E490968486394ED120ABCEEC00A0E
:1055000010EE100A09490968886394ED130ABCEE8D
:10551000C00A10EE100A05490968C86310BD0000F2
:1055200000000000D0B3DD3F000001401802002061
:1055300008B5002000900AE000BF00BF00BF00BF18
:1055400000BF00BF00BF00BF0098401C0090009843
:105550000528F1DB08BD000070B5054600244FF4B6
:1055600000701C490860002616E06006040EFFF774
:10557000DFFF4FF4807018498861FFF7D9FF1548A5
:1055800008380068C0F3402008B144F001044FF02F
:10559000807011498861761C082EE6DB25B14FF03A
:1055A00000700C49086003E04FF40070094908607E
:1055B000FFF7BEFF4FF4807007498861FFF7B8FF1F
:1055C0004FF0807004498861C0130249086020468A
:1055D00070BD0000180802400000024010B54FF4F2
:1055E000007009490860401008498861FFF7A0FF72
:1055F0004FF0007004490860FFF79AFF4FF0807089
:105600000249886110BD00001808024000000240F5
:1056100010B54FF0007008490860FFF789FF4FF49C
:10562000807006498861FFF783FF4FF400700249DC
:105630000860FFF77DFF10BD18080240000002401F
:1056400070B5044600261AE004F0800020B14FF443
:1056500000701749086003E04FF0007014490860BB
:105660006006040EFFF764FF4FF4807011498861F3
:10567000FFF75EFF4FF080700E498861761C082EA0
:10568000E2DB4FF400700A490860FFF751FF4FF466
:10569000807008498861FFF74BFF054808380068AB
:1056A000C0F340254FF0807002498861284670BDE4
:1056B000180802400000024070B504460D4604B1CF
:1056C00005B970BD0A232A4621460348FEF7C6FDE8
:1056D000064600BFF5E70000F0020020094890ED03
:1056E0001F0A094880ED000A084890ED030A0648A1
:1056F00080ED010A034890ED0B0A034880ED020A91
:1057000070470000F8030020A40600207005002068
:1057100010B5FCF7CFFF10BD00B593B0302107A83E
:10572000FAF786FD142102A8FAF782FD00BF0020D7
:1057300001902448006840F08050224908600846E3
:10574000006800F08050019000BF00BF00BF002043
:1057500001901D48006840F480401B4908600846DD
:10576000006800F48040019000BF00BF0120079056
:105770000004089002200D9041050E9104210F9124
:10578000A8211091022111910421129107A8FDF77F
:10579000ABF908B1FBF7A0FE0F20029002200390A6
:1057A000002004904FF4A05005904FF480500690D4
:1057B000052102A8FDF758F808B1FBF78DFE13B0DC
:1057C00000BD0000403802400070004003480068FF
:1057D00040F47000014908607047000088ED00E067
:1057E00010B50248FDF759FF10BD00001802002057
:1057F00010B50248FDF751FF10BD0000A8020020BF
:1058000010B502682B4B98420ED0B0F1804F0BD0F0
:10581000294B984208D0294B984205D0284B9842F2
:1058200002D0284B984203D122F070024B681A43F1
:10583000204B984220D0B0F1804F1DD01E4B984293
:105840001AD01E4B984217D01D4B984214D01D4BB6
:10585000984211D01C4B98420ED01C4B98420BD052
:105860001B4B984208D01B4B984205D01A4B9842CC
:1058700002D01A4B984203D122F44072CB681A43EB
:1058800022F080034C6943EA04028B68C3620B6810
:105890008362084B984202D00A4B984201D10B69AF
:1058A0000363036843F00403036001234361026060
:1058B00010BD00000000014000040040000800404E
:1058C000000C004000040140004001400044014041
:1058D0000048014000180040001C0040002000402B
:1058E00030B501F01F05012404FA05F3046A9C4356
:1058F0000462046A01F01F0502FA05F52C430462F4
:1059000030BD30B501F00F05042404FA05F3046A34
:105910009C430462046A01F00F0502FA05F52C436A
:10592000046230BD30B50C46816821F47F4142EA03
:10593000032525432943816030BD0A46816821F053
:10594000700142F0070319438160704730B5026A65
:10595000056A25F0010505624368846924F0700436
:1059600024F003040D682C4322F002028D682A43C0
:10597000104DA84200D103E00F4DA84206D100BF50
:1059800022F00802CD682A4322F00402094DA84201
:1059900002D0094DA84207D123F4807323F4007389
:1059A0004D692B438D692B43436084614D6845638A
:1059B000026230BD000001400004014030B5026ABF
:1059C000056A25F0100505624368846924F4E04403
:1059D00024F440740D6844EA052422F020028D6806
:1059E00042EA0512124DA84200D103E0114DA8422F
:1059F00007D100BF22F08002CD6842EA051222F0F2
:105A000040020B4DA84202D00A4DA84209D123F40E
:105A1000806323F400634D6943EA85038D6943EA9B
:105A20008503436084614D688563026230BD000078
:105A3000000001400004014030B5026A056A25F407
:105A4000807505624368C46924F0700424F003047F
:105A50000D682C4322F400728D6842EA0522124D33
:105A6000A84200D103E0114DA84207D100BF22F4A3
:105A70000062CD6842EA052222F480620A4DA84203
:105A800002D00A4DA84209D123F4805323F40053D5
:105A90004D6943EA05138D6943EA05134360C46108
:105AA0004D68C563026230BD000001400004014042
:105AB00030B5036A056A25F4805505624468C269F9
:105AC00022F4E04222F440720D6842EA052223F4F7
:105AD00000538D6843EA0533084DA84202D0084DB3
