:020000040800F2
:10000000000900209D010008F9310008F9290008C5
:10001000AD30000899090008293C000800000000E4
:100020000000000000000000000000005F32000837
:10003000450A0008000000005D320008593500083C
:10004000B7010008B7010008B7010008B7010008B0
:10005000B7010008B7010008B7010008B7010008A0
:10006000B7010008B7010008B7010008B701000890
:10007000B7010008B7010008B7010008B701000880
:10008000B7010008B701000865080008B7010008BB
:10009000B7010008B7010008B7010008470A0008C7
:1000A000B7010008B7010008B7010008B701000850
:1000B000B701000801360008B7010008B7010008C1
:1000C000B7010008B7010008B7010008B701000830
:1000D000B7010008A53B0008B7010008B7010008F8
:1000E000B7010008B7010008B7010008B701000810
:1000F0000D360008B7010008B7010008B701000875
:10010000B7010008B7010008B7010008B7010008EF
:10011000B7010008B7010008B7010008B7010008DF
:10012000B7010008B7010008B7010008B7010008CF
:10013000B7010008B7010008B7010008B7010008BF
:10014000B7010008B7010008B7010008B7010008AF
:10015000B7010008B7010008B7010008B70100089F
:10016000B7010008B7010008B7010008B70100088F
:10017000B7010008B7010008B7010008000000003F
:10018000B7010008B7010008DFF80CD000F0BEFA94
:1001900000480047494300080009002006488047FE
:1001A00006480047FEE7FEE7FEE7FEE7FEE7FEE75C
:1001B000FEE7FEE7FEE7FEE7F135000889010008EB
:1001C0002DE9F05F0546002092469B46884606468C
:1001D000814640241BE0284641464746224600F01F
:1001E0009BF953465A46C01A914110D311461846FE
:1001F000224600F082F92D1A67EB01084F4622468D
:100200000120002100F079F917EB00094E41201E72
:10021000A4F10104DFDC484631462A464346BDE8E6
:10022000F09F40EA01039B0703D009E008C9121FB1
:1002300008C0042AFAD203E011F8013B00F8013BA0
:10024000521EF9D27047D2B201E000F8012B491ECC
:10025000FBD270470022F6E710B513460A46044663
:100260001946FFF7F0FF204610BD2DE9FE4F8046EE
:1002700081EA0300C00F0C46009021F0004123F0FA
:100280000045B8EB0200A94105D240462146904600
:100290001C460B46024623F00040104347D0270D72
:1002A000C7F30A00C3F30A510290401A0190402894
:1002B0006BDAC3F3130040F4801B0098924620B120
:1002C0000023D2EB030A63EB0B0B01985946C0F1F4
:1002D0004002504600F011F906460D465046594678
:1002E000019A00F029F910EB08006141002487EA27
:1002F000115284EAE7731A4340D0009A62B3019A1C
:10030000012A4FEA075215DC001B61EB02014FF096
:10031000004202EA0752CDE90042001C41F580117B
:1003200032462B4600F060F903B0BDE8F08F40463E
:100330002146F9E7001B61EB0201001C41F5801327
:1003400000185B412018A2F5001747EB030140EAB3
:10035000D570B6196D4111E06D084FEA360645EAD1
:10036000C0754FEA0752001B61EB0201001C41F50A
:10037000801149084FEA30000019514132462B469E
:1003800003B0BDE8F04F00F020B900980122400012
:100390000023D0EB020263EBE073009821464FEAA2
:1003A000E074B8EB000061EB0401E9E783F000437F
:1003B0005BE781F0004158E72DE9FE4F81EA030435
:1003C00004F0004421F0004100944FF0000B23F0B2
:1003D000004350EA01045ED052EA03045BD0C3F349
:1003E0000A54C1F30A552C44A4F2F3340194A0FB3F
:1003F0000254C1F3130141F48011C3F3130343F416
:10040000801301FB024400FB034E840A970A44EA6E
:10041000815447EA8357A4FB076802958D0A05FBC0
:1004200007854FEA932C04FB0C542705029D4FEAE5
:10043000065847EA1637B5EB08056EEB070C870E32
:10044000920E47EA811742EA8312A7FB0201B6EB3C
:100450000B0164EB00042B0D43EA0C335E1844EBF4
:100460001C50DA465146E7FB0201C5F313044FEA7C
:100470000B3343EA14534FEA0432019C43EA060368
:10048000A4F10C040294009CCDE900B400F0ACF897
:1004900003B0BDE8F08F00200146F9E700F000420C
:1004A00030F000400AD0C10D01F56071C0F31600B4
:1004B00042EA0151C208400711437047002001463B
:1004C000704701F0004330B421F0004150EA0102CE
:1004D00006D00A0DA2F56072C1F31301002A02DCF6
:1004E00030BC00207047440F44EAC104C100E0184A
:1004F00030BC00EBC25000F031B8202A04DB203AB7
:1005000000FA02F1002070479140C2F1200320FA66
:1005100003F3194390407047202A04DB203A21FA64
:1005200002F00021704721FA02F3D040C2F120020C
:100530009140084319467047202A06DBCB17203A22
:1005400041FA02F043EAE07306E041FA02F3D040D8
:10055000C2F1200291400843194670470029A8BF04
:100560007047401C490008BF20F00100704710B4DC
:10057000B0FA80FC00FA0CF050EA010404BF10BC91
:10058000704749B1CCF1200421FA04F411FA0CF1BE
:1005900018BF012121430843A3EB0C01CB1D4FEAF7
:1005A00000614FEA102042BF002010BC704700EBF2
:1005B000C35010440029A4BF10BC7047401C490020
:1005C00008BF20F0010010BC704710B5141E73F175
:1005D000000408DA401C41F1000192185B411A4303
:1005E00001D120F0010010BD2DE9F04D92469B464F
:1005F00011B1B1FA81F202E0B0FA80F220329046F5
:10060000FFF77BFF04460F4640EA0A0041EA0B0170
:1006100053465A46084313D0114653EA010019D0F5
:10062000C8F140025046FFF777FF05460E46504698
:1006300059464246FFF761FF084305D0012004E018
:1006400020463946BDE8F08D0020054346EAE076B5
:100650002C4337430A986305E40AA0EB0800002204
:10066000FD0A44EA47540A3002D500200146E9E772
:10067000010510196941DDE9084500196941BDE826
:10068000F04DA2E72DE9FE4FC3F30A5701F00045F4
:100690000024C1F30A56C3F31303C1F3130143F457
:1006A000801312EB020AA64641F48011009543EB39
:1006B000030CA7F1010B16E0B0EB0A0061EB0C0193
:1006C000071E71F1000707DA4FF00008D0EB0800B1
:1006D00085F0004568EB0101171A73EB0107EBD3B6
:1006E000761E001849415E45F6DA50EA010209D04B
:1006F000CDE900E5002213460296FFF775FF03B02F
:10070000BDE8F08F20460099F9E70000064C074D40
:1007100006E0E06840F0010394E8070098471034D1
:10072000AC42F6D3FFF734FD044500082445000829
:100730002DE9F04D81EA030404F0004B21F000455F
:1007400014464FF0000A23F0004150EA050220D081
:1007500054EA01021DD0C5F30A570246C5F313033C
:10076000C1F31300C1F30A5640F4801543F480131B
:10077000A7EB0608101BD64608F2FD3873EB050000
:1007800002D308F1010801E092185B41B8F1000FB3
:1007900003DA00200146BDE8F08D00204FF48011FF
:1007A000064684460EE0171B73EB050705D3121BA4
:1007B00063EB050306434CEA010C49084FEA30009D
:1007C00092185B4150EA0107EDD152EA030012D0C2
:1007D00082EA040083EA0501084305D0101BAB41FF
:1007E00006D20122002306E000224FF0004302E07F
:1007F0006FF0010253101AEB06004CEB085110EB9E
:100800000A0041EB0B01BDE8F04DFFF7DEBE70B50D
:100810008C1810F8015B15F0070301D110F8013BAB
:100820002A1106D110F8012B03E010F8016B01F832
:10083000016B5B1EF9D12B0705D40023521E0DD48A
:1008400001F8013BFAE710F8013BCB1A921C03E0D8
:1008500013F8015B01F8015B521EF9D5A142D8D310
:10086000002070BD014800F053BB00007C01002057
:10087000464910B54A6822F440324A604A684368E3
:100880001A434A6001684A6822F480724A6001682B
:100890004A68036942EA03224A6001684A6822F012
:1008A00040724A6001684A6883681A434A60016876
:1008B0008A6822F400628A6001688A68C3681A4301
:1008C0008A60816A6FF07062D14201688A6822F0A2
:1008D00070628A6001688A680CD0836A1A438A60F1
:1008E00001688A6822F040528A6001688A68C36A97
:1008F0001A4301E022F040528A6001688A6822F0BF
:1009000002028A6001688A68037E42EA43028A60C2
:1009100090F82010002901684A680FD042F4006264
:100920004A6001684A6822F460424A6001684A6885
:10093000174C436A04EB43331A4301E022F400628C
:100940004A600168CA6A22F47002CA620168CA6A0F
:10095000838B104C04EB03531A43CA6201688A6804
:1009600022F400728A6001688A6890F8303042EAA6
:1009700043228A6001688A6822F480628A60016882
:100980008A68406942EA8020886010BD00230140E7
:1009900000E0FFFF0000F0FFFEE7000070B590ED03
:1009A000040AB0EE001A80ED070AD0ED050A0D46E4
:1009B000044600EE810ADFED1F0A80EE201A80ED6A
:1009C000081A91ED060A03F07DFA85ED020A95ED0D
:1009D000060A03F04DF985ED030AD4ED070A94EDFC
:1009E000081AD5ED021A20EE800A134801EE210AFA
:1009F00084ED030AD5ED031A21EE211AD5ED021A72
:100A000000EEE11A84ED021A00F02DF884ED030ADD
:100A100094ED020A094800F026F884ED020A08481D
:100A200094ED030A80ED030A94ED020A243880ED68
:100A3000030A70BDD7B3DD3F380100202C01002030
:100A4000C00000207047402000F00EBC72B6FEE7E8
:100A500010B502F085FB02F0A9FB01F0CFFFBDE865
:100A6000104002F055BBF0EE400A90ED021AB7EECE
:100A7000000AD0ED011A30EE410A20EE210A01EE03
:100A8000200A80ED000A80ED010A704770B590F8E9
:100A90003C20694D012A19D0012280F83C200A68C7
:100AA00007230468092A13D9E6680A3A02EB4202CE
:100AB00093409E43E6600A788B680A3A02EB420252
:100AC00093400268D4682343D36010E0022070BDD5
:100AD000266902EB420293409E4326610A788B68A6
:100AE00002EB4202934002681469234313610268D7
:100AF000936B23F4401393630268936B0C8A4F4EFD
:100B000006EB0454234393630A790B7CD21AD21C5C
:100B100002EB82021F2393400268946B9C43946310
:100B20000A790B7CD21AD21C02EB82030A8892B299
:100B30009A4003689C6B22439A638A69AA420268BE
:100B4000936823F470239360026893680CD08C69D7
:100B5000234393600268936823F440139360026810
:100B60009368CC69234301E023F4401393604A7DEA
:100B7000002A0268536802D043F4806301E023F442
:100B8000806353600A7D002A0268536802D043F4F0
:100B9000805301E023F4805353604A68012A16D041
:100BA000022A1FD0032A026827D0136A6FF30B03AF
:100BB00013620268136ACC6823431362214B0468F2
:100BC0001F4A9C4227D10C68122C20D023E00268D7
:100BD00053696FF30B03536102685369CC68234375
:100BE0005361EBE7026893696FF30B03936102684B
:100BF0009369CC6823439361E0E7D3696FF30B03F8
:100C0000D3610268D369CC682343D361D6E75468C3
:100C100044F48004546004689C4208D10968102997
:100C200001D0112903D1516841F400015160002124
:100C300080F83C10084670BD01000F000000F0FF76
:100C4000002301400020014070B51E481E4C1F4D7E
:100C500000781F4E012820462DD003F041FB96ED71
:100C6000080A00BF85ED060A18491748FFF796FEE7
:100C7000184802F0C2FA84ED0A0A174802F0BDFAD9
:100C800084ED090A1149104801F0DAFE0E4802F01D
:100C9000E7FA12490C4801F077FF114896ED080A6F
:100CA000022180ED000A95ED060A80ED010ABDE8FB
:100CB000704002F093BF03F013FB044803F0D8FA2E
:100CC000D0E7000000000020E4000020E002002047
:100CD00060000020C00000209C00002028000020B0
:100CE0006801002018B50021009190F83C20012AED
:100CF00007D0012280F83C2002689368DB0702D00D
:100D000011E0022018BD936843F001039360284A64
:100D1000284B1268B2FBF3F202EB420200E0521ED3
:100D20000092002AFBD102689368DB0735D0036C80
:100D300042F20104A34343F480530364036CDB05D4
:100D400000D4416480F83C106FF0040111601A492E
:100D500049680068C906816801F440110FD0D1B11B
:100D600000224168154B41F38021491C98421CD157
:100D7000DAB1D1B1816841F48001816015E041B1FF
:100D80000021426842F38022521C71B1002AF1D145
:100D90000BE00121F5E70122E3E7016C41F01001CE
:100DA0000164416C41F001014164002018BD000064
:100DB0001800002040420F000023014000200140A5
:100DC00078B50024009490F83C20012A19D0012223
:100DD00080F83C200A6807230568092A13D9EE68C1
:100DE0000A3A02EB420293409E43EE600B788A6817
:100DF0000A3B03EB43039A400368DD682A43DA6049
:100E000010E0022078BD2E6902EB420293409E431F
:100E10002E610B788A6803EB43039A4003681D69CF
:100E20002A431A614A681F23072A13D205686E6B8A
:100E3000521E02EB820293409E436E630B790A8836
:100E40005B1E92B203EB83039A4003685D6B2A43F7
:100E50005A6327E005680D2A12D22E6BD21F02EBCF
:100E6000820293409E432E630B790A88DB1F92B265
:100E700003EB83039A4003681D6B2A431A6311E056
:100E8000EE6A0D3A02EB820293409E43EE620B79CA
:100E90000A880D3B92B203EB83039A400368DD6A34
:100EA0002A43DA62164B0568144A9D4206D10D6842
:100EB000122D03D1556845F48005556005689D42A3
:100EC00018D10B68102B01D0112B13D1536843F4A8
:100ED00000035360096810290CD10A490A4A0968BD
:100EE000B1FBF2F101EB8101490000E0491E0091E4
:100EF0000029FBD180F83C40002078BD0023014050
:100F0000002001401800002040420F007047704749
:100F100070B50446006801684268C1F34001C2F33D
:100F2000401251B34AB3216CC90603D4216C41F479
:100F300000712164816811F0405F17D1217EA9B949
:100F4000C16A11F4700F02D0816849050ED441685E
:100F500021F020014160206C20F480702064206C1E
:100F6000C00403D4206C40F0010020642046FFF749
:100F7000CDFF21686FF012000860206801684268A8
:100F8000C1F38001C2F3C01289B382B3216CC906D8
:100F900003D4216C41F400512164816811F4401F95
:100FA0001ED1816B11F4401F02D08168490517D40E
:100FB0004168490514D4816811F0405F10D1217E49
:100FC00071B9416821F080014160206C20F48050AB
:100FD0002064206CC00503D4206C40F00100206424
:100FE0002046FFF731FE21686FF00C000860206892
:100FF0000168426811F0010FC2F380120ED06AB18D
:101000000068C0070AD0206C40F48030206420467D
:1010100000F046F821686FF0010008602068016860
:101020004268C1F34011C2F3806200290DD0002A4A
:101030000BD0616C41F0020161646FF02005056026
:101040002046FFF764FF2068056070BD70B504009E
:101050004FF0000503D0206C002610B107E00120FE
:1010600070BD204600F01EF8666484F83C60206C79
:10107000C00610D4206C20F4885040F00200206498
:101080002046FFF7F5FB6664206C20F0020040F07C
:101090000100206400E0012584F83C60284670BD12
:1010A0007047000030B587B0044614216846FFF74A
:1010B000D1F824492068884241D12348002501689D
:1010C00041F480710160006800F4807005901E4852
:1010D0001438016841F004010160016801F0040165
:1010E0000591016841F001010160016801F0010111
:1010F0000591016841F0020101600068032400F0DD
:101100000200059008208DE8310069460F4800F084
:10111000B7F840208DE8310069460D4800F0B0F87E
:10112000009469460B48CDE9014500F0A9F800227A
:101130000121122000F014FA122000F003FA07B087
:1011400030BD000000200140443802400008024049
:1011500000000240000402402DE9F0410446876D82
:1011600000F090F9064694F835000025022806D0D4
:101170008020606584F834500120BDE8F08120684B
:10118000016821F0160101602068416921F08001A9
:101190004161206C08B9A06C20B12068016821F081
:1011A000080101602068016821F0010101600CE084
:1011B00000F068F9801B052807D92020606503200E
:1011C00084F8350084F83450D7E720680068C007F9
:1011D000EED194F85C103F208840B860012084F87C
:1011E000350084F834500020C7E790F83510022904
:1011F00003D08021416501207047052180F835101A
:101200000068016821F001010160002070470000C2
:1012100070B5044600F036F90546601C02D004485B
:101220000078044400F02EF9401BA042FAD370BDB0
:101230000C00002040280BD10749084800228B7879
:10124000006823B901238B70416A054B1980426203
:10125000044940200860704700000020C4010020BD
:10126000E0020020143C0140044910B50A68024223
:1012700002D00860FFF7DEFF10BD0000143C014003
:101280002DE9F84FDFF8BCA1002201250AF1040B7B
:1012900003264FF00F090BF1040E00BF0B6805FA8F
:1012A00002F42340A34270D10F7907F00307012F06
:1012B00001D0022F16D187684FEA420806FA08FCCF
:1012C00027EA0C07D1F80CC00CFA08FC4CEA070C12
:1012D000C0F808C04768A7430C79C4F300149440D1
:1012E0003C4344600C79E443A4070AD0C4684FEA45
:1012F000420C06FA0CF7BC438F6807FA0CF7274339
:10130000C7600C7904F00304022C12D1D40800EB5E
:10131000840CDCF820405707FF0E09FA07F824EA8E
:101320000804D1F8108008FA07F848EA0408CCF855
:10133000208004684FEA420C06FA0CF7BC430F7990
:1013400007F0030707FA0CF7274307604C6814F40B
:10135000403F70D03C4C276847F4804727602468A2
:1013600022F0030704F480440094384C07EB040C8B
:10137000DCF8084897074FEA177809FA08F7BC43E2
:10138000334FB84202D1002724E054E0314FB84235
:1013900001D101271EE0304FB84201D1022719E0E8
:1013A0002E4FB84201D1032714E02D4FB84201D18E
:1013B00004270FE02B4FB84201D105270AE02A4F3E
:1013C000B84201D1062705E0284FB84201D10727CE
:1013D00000E0082707FA08F72743CCF80878DAF87E
:1013E00000405746D1F804C09C435FEACC3C00D58E
:1013F0001C433C60DBF800405F46D1F804C09C43CE
:101400005FEA8C3C00D51C433C60DEF80040774628
:10141000D1F804C09C435FEACC2C00D51C433C604F
:10142000084F0C373C68D1F804C09C435FEA8C2C11
:1014300000D51C433C60521C102AFFF42FAFBDE8BE
:10144000F88F0000003C0140443802400030014069
:10145000000002400004024000080240000C02406C
:10146000001002400014024000180240001C02401C
:101470000069084000D0012070470AB181617047BF
:101480000904FBE701488068704700000C00002059
:101490000248816802781144816070470C00002086
:1014A0000B4810B5016841F400710160016841F416
:1014B00080610160016841F480710160032000F0E7
:1014C0006FF80F2000F006F800F024F8002010BD9F
:1014D000003C024070B50D4D04464FF47A712878F7
:1014E000B1FBF0F00A490968B1FBF0F000F00CFB29
:1014F00048B9102C07D200222146501E00F030F8C7
:1015000000206C6070BD012070BD00000C00002048
:10151000180000200A4808B5016841F480410160C4
:10152000006800F4804000900548001F016841F009
:1015300080510160006800F08050009008BD0000FC
:1015400044380240002809DB00F01F0201219140CD
:101550004009800000F1E020C0F800117047000051
:10156000F0B40E4B1B680C46C3F30223C3F107050E
:10157000042D00D90425191D072901D2002300E0FC
:10158000DB1E012606FA05F1491E214099409E40C6
:10159000761E16403143F0BC02F05ABB0CED00E061
:1015A000064900F0070208684FF6FF03184040EABA
:1015B0000220034A10430860704700000CED00E071
:1015C0000000FA052DE9F0470E46050065D0DFF86A
:1015D0001481D8F80000F7B200F00700B04207D23B
:1015E00088F80070D8F8000000F00700B04254D12D
:1015F00028683D4C810712D5400703D5206840F488
:10160000E05020602878000703D5206840F460404F
:1016100020602068A96820F0F00008432060287846
:10162000C0072DD0304968680839012812D0022837
:1016300013D0032811D00968890700292DDA216801
:1016400021F0030101432160FFF71CFF814641F2B5
:10165000883A0EE009688903EFE709688901ECE739
:10166000FFF710FFA0EB0901514502D90320BDE8A7
:10167000F0872068696800F00C00B0EB810FEFD1B3
:10168000D8F80010404601F00701B14207D90770B1
:10169000006800F00700B04201D00120E7E7287899
:1016A000400705D52068E96820F4E0500843206031
:1016B0002878000706D52068296920F4604040EAB0
:1016C000C100206000F038F82168084AC1F3031116
:1016D000515CC8400649086006480068FFF7FAFEFA
:1016E0000020C4E7003C024008380240CC44000817
:1016F000180000201000002004480549006809680F
:10170000044AC1F38221515CC84070471800002090
:1017100008380240DC4400080448054900680968AC
:10172000044AC1F34231515CC840704718000020A0
:1017300008380240DC440008154810B5006810F075
:101740000C02144813D01449042A0FD0082A0ED1D1
:101750000F4C241F2268236802F03F025B0207D56A
:101760002068C0F38810A0FB010106E0084610BD08
:101770002168C1F38811A1FB00010023FEF720FDC1
:101780002168C1F30141491C4900B0FBF1F010BDD3
:10179000083802400024F40040787D012DE9F84F1C
:1017A00004006ED02078DFF84C93C007A9F104053F
:1017B0004AD009F104000168C1F38101012908D070
:1017C0000068C0F3810002280AD1D9F80000400265
:1017D00006D52868800337D560680028E1D033E05B
:1017E0006068B0F5803F10D0B0F5A02F286810D009
:1017F00020F480302860286820F480202860606809
:10180000A8B1FFF73FFE06460DE0286840F480309F
:10181000F4E740F480202860F7E700BFFFF732FECE
:10182000801B642873D828688003F7D50CE0FFF785
:1018300029FE064605E000BFFFF724FE801B642852
:10184000F0D828688003F7D42078DFF8AC828007CE
:101850004FF0000A3ED5A748001D016811F00C0F9B
:1018600008D00068C0F3810002280BD1D9F800002D
:10187000400207D42868800716D5E068012800D107
:1018800012E033E1E068B8B10120C8F80000FFF7CA
:10189000F9FD064605E000BFFFF7F4FD801B0228B6
:1018A000C0D828688007F7D52868216920F0F8009B
:1018B00040EAC10028600DE0C8F800A0FFF7E2FD93
:1018C000064604E0FFF7DEFD801B02281FD82868CB
:1018D0008007F7D42078000722D5864F87486169B2
:1018E000703771B101210160FFF7CCFD064604E0BD
:1018F000FFF7C8FD801B022809D838688007F7D594
:101900000EE0C0F800A0FFF7BDFD064605E082E04E
:10191000FFF7B8FD801B02287DD838688007F7D410
:101920002078400768D5DFF8CCB100270BF13C0BDD
:10193000DBF80000C0000BD4DBF8001041F0805150
:10194000CBF80010DBF80000012700F08050009079
:101950006B4E3068C00510D4306840F48070306041
:10196000FFF790FD009005E0FFF78CFD0099401A0D
:10197000022850D83068C005F6D55E4EA0686C3697
:1019800001280FD00528306810D020F00100306009
:10199000306820F004003060A068B8B1FFF772FD35
:1019A00000900FE0306840F00100F4E740F00400E0
:1019B0003060F7E7FFF766FD0099411A41F2883081
:1019C000814266D830688007F4D50EE0FFF75AFDF3
:1019D000009007E0FFF756FD0099411A41F2883068
:1019E000814256D830688007F4D42FB1DBF800105C
:1019F00021F08051CBF80010A069C8B33D49091D02
:101A00000968C1F3810102294AD00228504607D053
:101A1000C8F8600000E03CE0FFF734FD04463BE01E
:101A20004746C8F86000FFF72DFD064605E000BFF9
:101A3000FFF728FD801B02282BD828688001F7D4E7
:101A4000D4E907010843A16A2E4A490802EB014183
:101A5000626A41EA8211084394F82C1040EA01615D
:101A6000C9F8001001203866FFF70CFD044606E0B7
:101A70003EE000BFFFF706FD001B022809D82868DA
:101A80008001F7D534E000BFFFF7FCFC001B022803
:101A900002D90320BDE8F88F28688001F4D427E03C
:101AA0000128F7D0D9F80000E26900F480019142E2
:101AB0001CD1226A00F03F01914217D147F6C07154
:101AC000626A0140B1EB821F10D1A26A4FF0FF336E
:101AD00000F4403103EB5202B1EB024F06D194F80F
:101AE0002C1000F07060B0EB016F01D00120D1E745
:101AF0000020CFE70438024000004742800E4742F2
:101B0000007000400000FFFF10B5401EB0F1807F64
:101B100001D3012010BD4FF0E02460610F21601758
:101B200002F096F80020A06107202061002010BD7F
:101B30007047704710B590F83C20012A22D001224E
:101B400080F83C20CA688C6822F4407222434C68BA
:101B500022F4806222430C6822F4006222430C6962
:101B600022F4805222434C6922F400522243C96974
:101B7000002322F480420A4301684A6480F83C3022
:101B8000002010BD022010BD70B590F83C20012A45
:101B900032D0012480F83C40022280F83D200368C6
:101BA0005A689D6822F070060A6832435A60134BE7
:101BB00002689A4214D0B2F1804F11D0104B9A4271
:101BC0000ED0104B9A420BD00F4B9A4208D00F4BBD
:101BD0009A4205D00E4B9A4202D00E4B9A4204D143
:101BE000496825F080031943916080F83D40002149
:101BF00080F83C10084670BD022070BD0000014016
:101C00000004004000080040000C004000040140B7
:101C1000004001400018004010B50446022249B1BE
:101C200004290ED0082913D094F84500012816D0B5
:101C3000012010BD94F842000128F9D184F8422017
:101C40000FE094F843000128F2D184F8432008E023
:101C500094F844000128EBD184F8442001E084F892
:101C600045200422206801F048FD2068416C41F4C1
:101C70000041416411492068884214D0B0F1804F7E
:101C800011D00F4988420ED00E4988420BD00E4920
:101C9000884208D00D49884205D00D49884202D0BB
:101CA0000C49884204D1816801F00701062903D05C
:101CB000016841F001010160002010BD00000140F9
:101CC0000004004000080040000C004000040140F7
:101CD000004001400018004010B5040003D094F803
:101CE0003D0010B107E0012010BD002084F83C0049
:101CF000204600F01FF8022084F83D00211D2068D6
:101D000001F08AFC012084F8460084F83E0084F843
:101D10003F0084F8400084F8410084F8420084F8D1
:101D2000430084F8440084F8450084F83D00002016
:101D300010BD000008B50068154988420FD115484C
:101D4000016841F0020101600068002200F0020019
:101D5000009001211D20FFF703FC1D2012E00E4919
:101D6000884213D10B48001D016841F00201016057
:101D70000068002200F00200009001212C20FFF7F3
:101D8000EFFB2C20BDE80840FFF7DCBB08BD0000DE
:101D900000040040403802400004014090F83D102B
:101DA000012901D001207047022180F83D1001680F
:101DB000CA6842F00102CA6000681149884214D022
:101DC000B0F1804F11D00F4988420ED00E498842A1
:101DD0000BD00E49884208D00D49884205D00D49E4
:101DE000884202D00C49884204D1816801F0070181
:101DF000062903D0016841F001010160002070470D
:101E0000000001400004004000080040000C0040B9
:101E10000004014000400140001800400168CA6809
:101E200022F00102CA6001680A6A41F211131A42E3
:101E300007D10A6A9B101A4203D10A6822F00102F4
:101E40000A60012180F83D100020704770B50446FB
:101E500090F83C000025012817D0012684F83C604A
:101E6000022084F83D002068826822F0770222F484
:101E70007F4282600868502838D00DDC20284FD07F
:101E800005DC90B3102811D14AE0022070BD302843
:101E900046D040280AD13BE060282FD070280DD0D2
:101EA000B0F5805F03D0B0F5005F12D0012584F853
:101EB0003D60002084F83C00284670BDCB68D1E925
:101EC0000121206801F026FC2068816841F077013B
:101ED00009E0CB68D1E90121206801F01BFC2068F2
:101EE000816841F480418160E1E719E0CA6849688E
:101EF000206801F0E3FC5021206806E0CA684968C8
:101F0000206801F0ECFC6021206801F00DFCCEE7B8
:101F1000CA684968206801F0D1FC40212068F4E7D4
:101F2000226801461046F0E72DE9F0410D46040015
:101F300003D094F83D0018B108E00120BDE8F0811D
:101F4000002084F83C00204600F040F8022084F88D
:101F50003D002068816844F2070291438160211DA1
:101F6000206801F059FB226890689169166A2B6815
:101F7000AF69034340F20330814341EA0721A86877
:101F8000EF6908434FF6FC418843E96840EA0720BF
:101F9000014328692F6A000140EA07300843696855
:101FA0006D6926F0AA0646EA051529439360226862
:101FB000906154F8460B0162012004F81F09E07596
:101FC0002076E0762077A0750020B7E770B586B060
:101FD000044614216846FEF73DF92068B0F1804FB1
:101FE00032D11A480024016841F001010160006803
:101FF00000F00100059015481038016841F001011A
:102000000160016801F001010591016841F00201E0
:1020100001600068022500F0020005904FF40040C6
:102020000090CDE901540126CDE9034669460848F0
:10203000FFF726F908200090CDE90154CDE90346C9
:1020400069460448FFF71CF906B070BD40380240ED
:10205000000002400004024070B590F83E60044663
:1020600090F83F5090F8423090F84320022021B180
:1020700004290ED0012E1BD114E0012E18D1012B02
:1020800016D184F83E0084F8420001220021206825
:1020900020E0012D0CD1012A0AD184F83F0084F8F8
:1020A000430014E0012D03D1012B01D1012A01D0FD
:1020B000012070BD84F83E0084F83F0084F842009F
:1020C00084F8430001220021206801F009FB01226D
:1020D0000421206801F004FB2068016841F001013F
:1020E0000160002070BD704770B50446006801694A
:1020F0004FF00005C943890715D4C168C943890752
:1021000011D4E91E016101202077206880698007D1
:10211000204602D0FFF7E7FF04E000F0EDF820468C
:1021200000F07FF9257720680169C943490717D472
:10213000C168C943490713D46FF00401016102204B
:1021400020772068806910F4407F204602D0FFF796
:10215000CAFF04E000F0D0F8204600F062F92577CD
:1021600020680169C943090716D4C168C943090732
:1021700012D46FF008010161042020772068C06943
:102180008007204602D0FFF7AEFF04E000F0B4F86D
:10219000204600F046F9257720680169C943C90641
:1021A00017D4C168C943C90613D46FF01001016187
:1021B000082020772068C06910F4407F204602D0B4
:1021C000FFF791FF04E000F097F8204600F029F9AE
:1021D000257720680169C943C90708D1C168C94387
:1021E000C90704D1891E0161204600F0BDF92068AD
:1021F0000169C943090609D4C168C943090605D460
:102200006FF0800101612046FFF792FC20680169B0
:10221000C943490609D4C168C943490605D46FF0CA
:1022200040010161204600F0E5F920680169C943D9
:1022300089060BD4C168C943890607D46FF0200111
:1022400001612046BDE87040FFF773BC70BD00001F
:1022500070B586B0044614216846FDF7FBFF21499E
:10226000206888423BD120480025016841F00401E4
:102270000160016801F004010591016841F08001ED
:102280000160016801F080010591016841F48071ED
:1022900001600068022600F4807005904FF4007021
:1022A0000090CDE901650324CDE9035469460F4848
:1022B000FEF7E6FF4FF46040CDE90006CDE9025499
:1022C000694604940A48FEF7DBFFE020CDE90006EA
:1022D000CDE90254694604940648FEF7D1FF06B0E2
:1022E00070BD000000040140303802400008024088
:1022F000001C024000200240704770B5044690F870
:102300003C0000260D4601280FD0012084F83C0037
:102310006AB1042A1DD0082A2FD00C2A3FD00126EA
:10232000002084F83C00304670BD022070BD20685B
:1023300001F002FA2068816941F00801816120689A
:10234000816921F004018161206881692A69114352
:1023500011E0206801F020FA2068816941F40061F1
:1023600081612068816921F48061816120688169CF
:102370002A6941EA02218161D2E7206801F042FA2C
:102380002068C16941F00801C1612068C16921F07C
:102390000401C1612068C1692A69114311E0206804
:1023A00001F064FA2068C16941F40061C1612068EC
:1023B000C16921F48061C1612068C1692A6941EA6B
:1023C0000221C161ACE710B5040003D094F83D00D0
:1023D00010B107E0012010BD002084F83C00204629
:1023E00000F01EF8022084F83D00211D206801F055
:1023F00013F9012084F8460084F83E0084F83F0079
:1024000084F8400084F8410084F8420084F84300D6
:1024100084F8440084F8450084F83D00002010BD95
:102420007047704710B50446022249B104290ED006
:10243000082913D094F84100012816D0012010BDBE
:1024400094F83E000128F9D184F83E200FE094F87A
:102450003F000128F2D184F83F2008E094F84000C2
:102460000128EBD184F8402001E084F841200122CA
:10247000206801F035F916492068164A884201D0D3
:10248000904203D1436C43F4004343642068884284
:1024900013D0B0F1804F10D00F4988420DD00F49B2
:1024A00088420AD00E49884207D0904205D00D4993
:1024B000884202D00C49884204D1816801F00701AA
:1024C000062903D0016841F001010160002010BD20
:1024D00000000140000401400004004000080040EA
:1024E000000C0040004001400018004030B5044698
:1024F0000D460068002201F0F3F8194B41F211116A
:1025000020688A10984202D0164B984209D1036A7B
:102510000B4206D1036A134203D1436C23F40043F8
:1025200043642068036A0B4206D1016A114203D159
:10253000016821F00101016001203DB1042D08D0A6
:10254000082D09D084F84100002030BD84F83E00F9
:10255000FAE784F83F00F7E784F84000F4E700006A
:10256000000001400004014010B500681C49884289
:1025700010D11C488168491C81600A290ADB0021AE
:1025800081604FF080414278496A012A03D0C180BE
:102590000121417010BD09B28180B0F9062040F6DA
:1025A0009F748A1A02F2CF73A34216D2C2EB0212B0
:1025B00000EE102A0C4AF1EE000AB8EEC00A82EDD5
:1025C0000D0A20EE200ADFED090A20EE200ADFEDD9
:1025D000080A80EE201A82ED0E1AC18010BD00009C
:1025E0000004014000000020E4000020DB0FC9408F
:1025F000000070427047704770470000F8B50168EE
:1026000004460868CA684B6910F00F0F4FF00005C8
:102610005AD003F0010602F49077374365D0C10722
:1026200005D0D10503D5216C41F00101216441079A
:1026300005D5D90703D0216C41F00201216481073F
:1026400005D5D90703D0216C41F0040121640107AD
:1026500007D502F02001314303D0216C41F008017D
:102660002164216C00293BD0800604D5900602D558
:10267000204601F075F920684069216CC0F3801094
:1026800001F00801014320462BD001F042F92068F7
:102690004069400621D52068143050E8001F21F021
:1026A000400140E80012002AF5D1A06BA8B16C49A6
:1026B0000165A06BFEF799FD002811D0A06B016D9C
:1026C00001B0BDE8F040084783060ED593060CD54F
:1026D0002046BDE8F84001F043B92046FFF78CFFE3
:1026E000F8BDFFF789FF2564F8BD266B2023012E76
:1026F00079D1C60677D5D60675D5086848680090A2
:102700004869400640D5A16B086840680004000C89
:10271000EAD0A28D8242E7D9E085C869B0F5807F12
:102720002DD020680C3050E8001F21F4807140E863
:102730000012002AF5D12068143050E8001F21F063
:10274000010140E80012002AF5D12068143050E859
:10275000001F21F0400140E80012002AF5D184F862
:102760003E30256320680C3050E8001F21F0100136
:1027700040E80012002AF5D1A06BFEF7EDFCA08D19
:10278000E18D401A81B229E0A08DE18D401A81B21D
:10279000E08D0028A8D00029A6D020680C3050E891
:1027A000002F22F4907240E80026002EF5D1206818
:1027B000143050E8002F22F0010240E80026002EDD
:1027C000F5D184F83E30256320680C3050E8002FA6
:1027D00022F0100240E80023002BF5D12046FFF73D
:1027E0000AFFF8BDFFE705062BD5150629D594F895
:1027F0003D002128F5D1A068B0F5805F01D12069A6
:10280000B0B1206A411C2162216800784860E08CE8
:10281000401E0004000CE084E3D12068C16821F070
:102820008001C1602068C16841F04001C160D8E703
:10283000206A0088C0F308004860206A801C20627B
:10284000E5E74006CDD55006CBD5CA68204622F034
:102850004002CA6084F83D3000F0CDF8C1E70000C6
:102860000339000870B5040004D094F83D00002539
:1028700010B106E0012070BD84F83C50204600F005
:1028800023F8242084F83D002068C16821F4005119
:10289000C160204601F0C4F82068016921F490412C
:1028A00001612068416921F02A0141612068C16805
:1028B00041F40051C1602564202084F83D0084F873
:1028C0003E00002070BD000010B586B00446142103
:1028D0006846FDF7BFFC17492068884228D1164892
:1028E0000021026842F010020260006800F010004F
:1028F000059011481438026842F002020260006834
:1029000000F002000590C02000900220CDE90101F6
:10291000032003900720049069460848FEF7B0FCA6
:10292000002211462520FEF71BFE2520FEF70AFE99
:1029300006B010BD001001404438024000040240BF
:10294000704700002DE9F843044690F83D001F460B
:1029500016460D4620284CD1C5B1BEB194F83C00B6
:10296000012846D0012084F83C004FF00008C4F84C
:102970004080212084F83D00FEF784FDA684814636
:10298000E684A068B0F5805F03D004E00120BDE8D4
:10299000F883206928B12E465FF0000584F83C805A
:1029A0000EE00026FAE78021204601F0BFF8A0B92A
:1029B000AEB116F8010B21684860E08C401EE0843F
:1029C000E08C4B464FF0000200970028EBD14FF00F
:1029D0004001204601F0AAF830B10320D7E735F8CE
:1029E000020BC0F30800E6E7202084F83D00002039
:1029F000CDE70220CBE77047FEE700000D4910B598
:102A000009686FF0010008610B48FFF7C7F9094832
:102A1000FFF704FA084941F26500096808640748AD
:102A2000FEF760F905480068416841F080014160A7
:102A300010BD00000C020020540200207C01002088
:102A400090ED0A0AD1ED030AD1ED021A20EE201A08
:102A5000D0ED090A00EEE11A80ED0B1A91ED031A90
:102A600060EE810A91ED021A40EE010AC0ED0C0AF7
:102A7000704700EE900AB0EEC01AF8EEE00AB4EE2D
:102A8000E01AF1EE10FA09DDB5EEC00AF1EE10FA27
:102A900000DC404200EE100AB8EEC00A70470000A9
:102AA00070B50C462DED028B054691ED090A01F03B
:102AB000DFF8D5ED080AB1EE400A20EE208A94ED49
:102AC000090A01F0FFF9D5ED090A00EE608A84EDEC
:102AD000028A94ED0A0AD4ED010A00EE880A84ED18
:102AE0000A0AD4ED000A00EE880A84ED060AD4ED45
:102AF000050AFDEEE00A10EE900AFFF7BAFF84ED3A
:102B0000060A1B48FDF7AFFF84ED060AD4ED080A5C
:102B10009FED181A40EE010AC4ED080AF5EEC00A4E
:102B2000F1EE10FA08DD10EE900AFDF7B7FC41EC6B
:102B3000100B9FED111B0CE0F5EEC00AF1EE10FA40
:102B40000ED210EE900AFDF7A9FC41EC100B9FEDA0
:102B50000C1B01F035F951EC100BFDF7B2FC2062B3
:102B600094ED080A84ED090ABDEC028B70BD0000EB
:102B70005C01002017B7D13800000060FB2139400C
:102B800000000060FB2139C010B5D1ED020A90EDC4
:102B9000070AF6EE083ADFED364A30EEC03A0C4648
:102BA00081ED0C3A91ED030A90ED081A30EE411ACE
:102BB00081ED0D1AD1ED082A90ED0B2A94ED0A4A09
:102BC000F0EE621A40EEA31A31EEC22AC2EE241AC7
:102BD00054EE031AC4ED001A94ED092AB0EE425ADD
:102BE00000EE235AD0ED0C3A224835EE635AC5EE7A
:102BF000243A54EE013AC4ED013A94ED0B4AD0ED7B
:102C0000064A24EE033A04EEC23A84ED063A90ED09
:102C1000062A1A4822EE222A04EE012A9FED161AED
:102C200041EE810A03EE810A84ED072AC4ED020A0F
:102C300084ED030A94ED040A03EE010A84ED040A0C
:102C4000D4ED050A42EE010AC4ED050AFDF70BFFBB
:102C500084ED080A94ED050A0948FDF704FF84EDA8
:102C6000090A0449BDE81040A1F13800FFF718BF78
:102C7000E02D103A6000002017B7D1384401002041
:102C80005001002030B58DB00024089409940A94B6
:102C9000202168460B94FDF7DDFA2B4829490125D0
:102CA00001604FF480310561C0E90114047680F8B9
:102CB00020402649C0E90A14C561C46080F830404C
:102CC0004461FEF7C3F908B1FDF7C0FE0D20CDE960
:102CD000080508A91C480A95FEF772F808B1FDF727
:102CE000B5FE0620CDE900054FF480100294079050
:102CF0004FF46020032506908DF8154004958DF85B
:102D00001440694610480394FDF7C0FE08B1FDF772
:102D10009DFE082000900220019069460A48FDF7B8
:102D2000B5FE08B1FDF792FE0920CDE90005694620
:102D30000548FDF7ABFE002801D0FDF787FE0DB07A
:102D400030BD0000002001407C0100200100000F88
:102D50002DE9F04387B014216846FDF77BFA41481E
:102D60000024016841F010010160016801F01001C8
:102D70000591016841F080010160016801F0800166
:102D80000591016841F004010160016801F004014E
:102D90000591016841F001010160016801F0010144
:102DA0000591016841F002010160016801F0020132
:102DB0000591016841F4807101600068DFF8A88026
:102DC00000F480700590012220214046FEF755FB5B
:102DD0000122DFF89890570239464846FEF74DFB2E
:102DE0001F2001258DE8310069464046FEF748FA6C
:102DF00020200090CDE90154694640460394FEF737
:102E00003FFA402000904FF488100226CDE90106D9
:102E100069464046FEF734FA03200090CDE90104EC
:102E200069461348FEF72CFA0097CDE9015469462C
:102E300048460394FEF724FA4FF4E0500090CDE9A1
:102E40000164CDE9034669464846FEF719FA0022B7
:102E500011461720FEF784FB1720FEF773FB07B01F
:102E6000BDE8F0833038024000100240001C0240F0
:102E70000004024010B58CB024216846FDF7EAF941
:102E80000024154809944FF080410A94C0E90014C9
:102E90004FF6FF71C0E90241046184610320CDE96E
:102EA00000040120CDE902040494CDE90540079413
:102EB000694609480894FFF737F808B1FDF7C6FDE1
:102EC000099409A904480A94FEF75EFE002801D07F
:102ED000FDF7BCFD0CB010BDC401002010B586B0DC
:102EE0000024174800940194029403940494134915
:102EF000059401605321C0E9011440F2E731C0E9B3
:102F000003148461FEF7E8FE08B1FDF79FFD4FF45E
:102F10008050009069460A48FEF798FF08B1FDF717
:102F200095FD049404A906480594FEF72DFE00289B
:102F300001D0FDF78BFD06B010BD0000000400407D
:102F40000C02002070B596B000240F9410941194D8
:102F5000129413941C2168461494FDF77BF92021E8
:102F600007A8FDF777F9404D3E4841F26701286018
:102F700001202026E960C5E90106C5E9044028468C
:102F8000AC61FEF7A9FE08B1FDF760FD4FF480507B
:102F90000F900FA93448FEF759FF08B1FDF756FD11
:102FA0003148FFF710FA08B1FDF750FDCDE9136481
:102FB00013A92D48FEF7E8FD08B1FDF747FD602095
:102FC000CDE9000402940394049405940022694618
:102FD00025480694FFF791F908B1FDF737FD2868F9
:102FE000816921F008018161042269461E48FFF7CA
:102FF00084F908B1FDF72AFD2868816921F4006190
:103000008161082269461848FFF777F908B1FDF792
:103010001DFD2868C16921F00801C1617020009080
:103020000C2269461048FFF768F908B1FDF70EFD5C
:103030004FF4006007904010CDE908040520CDE969
:103040000A044FF400500C9040000E9007A9064867
:10305000FEF770FD08B1FDF7F9FC0348FFF7F8F83B
:1030600016B070BD00040140540200200D4810B598
:103070000B4901600C494160002181600C22C16054
:10308000C0E9041281614FF40041C161FFF7EAFB1E
:10309000002803D0BDE81040FDF7D8BC10BD0000EB
:1030A000001001409C020020808D5B00FEE70000C4
:1030B00010B500224FF400711348FEF7DEF900212D
:1030C0001248FFF713FA04211048FFF70FFA0821FE
:1030D0000E48FFF70BFA0C210C48FFF707FA002106
:1030E0000A48FFF703FA04210848FFF7FFF908210F
:1030F0000648FFF7FBF905480021026851630268A2
:1031000091630068C16310BD001C0240540200209E
:1031100010B5012251021048FEF7AFF900210F4807
:10312000FFF780F904210D48FFF77CF908210B48CF
:10313000FFF778F90C210948FFF774F900210748D7
:10314000FEF76AFD04210548FEF766FDBDE8104064
:1031500008210248FEF760BD001C02405402002016
:1031600010B500211048FFF75DF904210E48FFF764
:1031700059F908210C48FFF755F90C210A48FFF7C7
:1031800051F900210848FEF747FD04210648FEF7E3
:1031900043FD08210448FEF73FFDBDE810404FF411
:1031A0007A70FEF735B800005402002070B5104C5C
:1031B0004FF42F70216848632068002585632068DC
:1031C000C5634FF49670FEF723F8206845632068C6
:1031D00085632068C5634FF47A70FEF719F83C21C7
:1031E0000448FEF739FF03480068456270BD0000DF
:1031F00054020020C4010020FEE700B590ED040A4F
:10320000D0ED030A014630EE600A80ED050AD0EDEC
:10321000060A30EE800A80ED060AD0ED080AFDEEBF
:10322000E00A10EE900AFFF724FC81ED060AD1EDCA
:10323000010A91ED051A20EE800AD1ED000A00EE98
:10324000810A81ED070AD1ED080AFDEEE00A10EED1
:10325000900AFFF70EFC81ED070A00BD704770472A
:1032600030B590ED0C0A90ED0B1ADFEDB50AF0EEDB
:10327000401A51EE201AF6EE000A61EEA02A9FEDE8
:10328000B12AF0EE401AB5EEC00A51EE021A21EE54
:10329000A02AF1EE10FA01DD012200E00022F5EE95
:1032A000C02AF1EE10FA01DD012100E00021B5EEA7
:1032B000C02AF1EE10FA01DD012000E000208000BC
:1032C00000EB41008118A04800F108020170525C37
:1032D0009FED9E1ADFED9E1A41F26801072A38D24F
:1032E000DFE802F004084171A0CEFE000021418019
:1032F00081802DE062EE811A20EE010AFDEEE11AD6
:10330000BDEEC00A11EE902A13B210EE102A12B2CE
:103310009C188C420CDD41F2680513FB05F393FB0E
:10332000F4F31BB212FB05F41A4494FBF2F212B24E
:10333000C91A891A00EE101A1344B8EEC00A20EE1A
:10334000200ABDEEC00A10EE101A0B44438037E08D
:10335000C180804A41881160121D81881160111D51
:10336000C088086030BD22EEA10ABDEEC00A10EE92
:10337000102A22EE210A13B2BDEEC00A10EE102A66
:1033800012B29C188C420CDD41F2680513FB05F368
:1033900093FBF4F31BB212FB05F41A4494FBF2F214
:1033A00012B2C91A891A00EE101AB8EEC00A20EE3D
:1033B000200ABDEEC00A10EE101A541844801A44B8
:1033C0000A448280C4E720EE010ABDEEC00A10EE76
:1033D000102A22EE010A13B2BDEEC00A10EE102A26
:1033E00012B29C188C420CDD41F2680513FB05F308
:1033F00093FBF4F31BB212FB05F41A4494FBF2F2B4
:1034000012B2C91A891A00EE101A1344B8EEC00A93
:1034100020EE200ABDEEC00A10EE101A41800B44C7
:1034200083808BE020EE210ABDEEC00A10EE102A48
:1034300022EEA10A13B2BDEEC00A10EE102A12B29B
:103440009C188C420CDD41F2680513FB05F393FBDD
:10345000F4F31BB212FB05F41A4494FBF2F212B21D
:10346000C91A891A00EE101AB8EEC00A20EE200A16
:10347000BDEEC00A10EE101A4180541884802CE072
:1034800022EE010ABDEEC00A10EE102A22EE810AD9
:1034900013B2BDEEC00A10EE102A12B29C188C4274
:1034A0000CDD41F2680513FB05F393FBF4F31BB24B
:1034B00012FB05F41A4494FBF2F212B2C91A891AEB
:1034C00000EE101AB8EEC00A20EE200ABDEEC00AC7
:1034D00010EE101A5418448081801A442EE0FFE741
:1034E00022EE211A20EE210ABDEEC11ABDEEC00A5D
:1034F00011EE102A13B210EE102A12B29C188C4250
:103500000CDD41F2680513FB05F393FBF4F31BB2EA
:1035100012FB05F41A4494FBF2F212B2C91A891A8A
:1035200000EE101A1344B8EEC00A20EE200ABDEED9
:10353000C00A10EE101A0B4443808180114407E743
:10354000D7B3DD3FD7B3DDBF8C000020F08D9743AC
:10355000F08D97C334040140FDF79ABF30B593B0A6
:1035600030216846FCF776FE14210CA8FCF772FEA9
:103570001D480025016841F080510160006800F09D
:10358000805011901948016841F480410160006841
:10359000022400F480401190012003901020049038
:1035A000009406940820CDE90750A820CDE909042D
:1035B00004200B906846FEF7F1F808B172B6FEE7FA
:1035C0000CA90F2081E831004FF4A0500F904FF468
:1035D0008050109005210CA8FDF7F4FF002801D0C1
:1035E00072B6FEE713B030BD4038024000700040B4
:1035F0000248016841F470010160704788ED00E005
:103600000148FEF771BD00000C0200200148FEF7E2
:103610006BBD000054020020F0B50268254C264D19
:10362000264E274F274B4FF0804CA04209D06045D3
:1036300007D0A84205D0B04203D0B84201D098428A
:1036400004D122F0700E4A6842EA0E02A0421BD05A
:10365000604519D0A84217D0B04215D0B84213D057
:10366000984211D0184DA8420ED0184DA8420BD048
:10367000174DA84208D0174DA84205D0164DA842B4
:1036800002D0164DA84203D122F44075CA682A43DD
:103690004D6922F080022A4302608A68C2620A6889
:1036A0008262A04201D0984201D1096901630121DF
:1036B0004161F0BD000001400004004000080040EE
:1036C000000C004000040140004001400044014063
:1036D0000048014000180040001C0040002000404D
:1036E00010B501F01F030121046A99408C43046264
:1036F000016A9A401143016210BD10B501F01F0329
:103700000421046A99408C430462016A9A4011437F
:10371000016210BD10B5846842EA032224F47F449C
:103720000A432243826010BD826822F070020A437D
:1037300042F0070181607047F0B5026A22F0010291
:103740000262036A42688469124E24F073050C68B1
:103750002C4323F002058B682B430D4DA84201D06A
:10376000B04205D123F00807CB683B4323F00403A4
:10377000A84201D0B04205D14D6922F440721543F0
:103780008A692A4342608461496841630362F0BDEB
:103790000000014000040140F0B5026A22F010026E
:1037A0000262026A436884690D6824F4E64444EACC
:1037B00005248D6822F0200242EA05120F4D104EBA
:1037C000A84201D0B04206D1CF6822F0800242EA7E
:1037D000071222F04002A84201D0B04207D14D6941
:1037E00023F4406343EA85038D6943EA850343601C
:1037F0008461496881630262F0BD000000000140FD
:1038000000040140F0B5026A22F480720262026A8A
:103810004368C46922F4007224F073050C68124EE8
:103820002C438D6842EA05220E4DA84201D0B042D9
:1038300006D1CF6822F4006242EA072222F48062B5
:10384000A84201D0B04207D14D6923F4405343EA66
:1038500005138D6943EA05134360C4614968C16378
:103860000262F0BD000001400004014030B5026A70
:1038700022F480520262046A4268C3690D6823F42C
:10388000E64343EA05238D6824F4005444EA0534F2
:10389000084DA84202D0084DA84204D14D6922F437
:1038A000804242EA85124260C36149680164046251
:1038B00030BD0000000001400004014010B5036A63
:1038C000046A24F001040462846924F0F00444EAE8
:1038D000021423F00A020A438461026210BD10B58B
:1038E000036A23F0100303628369046A23F47043BC
:1038F00043EA023224F0A00343EA0111826101622B
:1039000010BD10B5806B0021C185C184FEF774FE27
:1039100010BD01680C3151E8002F22F4907241E88B
:103920000023002BF5D10168143151E8002F22F05B
:10393000010241E80023002BF5D1016B012909D1D7
:1039400001680C3151E8002F22F0100241E80023F9
:10395000002BF5D1202180F83E1000210163704733
:1039600008B590F83E10222901D0022008BD8268D7
:103970004FF480539A4201D1016921B1816A9A4280
:103980001BD04AB10AE00268816A5268C2F3080299
:103990000A80816A891C08E0026972B10268526873
:1039A00002F07F020A70816A491C8162C18D491E42
:1039B0000904090CC18503D019E002685268F1E7D7
:1039C0000168CA6822F02002CA600168CA6822F44D
:1039D0008072CA6001684A6922F001024A612021AE
:1039E00080F83E10016B012903D0FEF7A9FF0020EB
:1039F00008BD0021016301680C3151E8002F22F05D
:103A0000100241E80023002BF5D101680A68D206B4
:103A100002D50A6849680091818DFEF7ECFDE6E762
:103A200070B5044600680169E26821F44051114311
:103A300001612169A068E269084361691143084393
:103A40002168CA6849F20C639A430243CA6020683D
:103A50004169A26921F440711143416131492068F3
:103A6000884202D03049884202D1FDF755FE01E07C
:103A7000FDF742FEE2690023192164253226B2F5E2
:103A8000004F626828D0A0FB0101930F9200FCF761
:103A900097FB0146B0FBF5F06FF01802504301EBC5
:103AA000800006EB0010B0FBF5F000F0F002B1FB77
:103AB000F5F002EB0012B1FBF5F06FF0180358437C
:103AC00001EB800006EB0010B0FBF5F000F00F00FA
:103AD00021681044886070BDA0FB010192185B4111
:103AE000FCF76EFB0146B0FBF5F00201B1FBF5F00F
:103AF0006FF01803584301EB800006EBC000B0FBE9
:103B0000F5F000F0F80002EB4002B1FBF5F058438D
:103B100001EB800006EBC000B0FBF5F000F0070001
:103B2000D6E7000000100140001401402DE9F041EB
:103B3000984617460E460446069D27E0681C25D089
:103B40002DB1FDF79FFCA0EB0800A8421ED920680C
:103B50000C3050E8001F21F4D07140E80012002A18
:103B6000F5D12068143050E8001F21F0010140E831
:103B70000012002AF5D1202084F83D0084F83E0090
:103B8000002084F83C000320BDE8F0812068006834
:103B900036EA000004D00020B842CFD00020F3E77E
:103BA0000120F9E70148FEF729BD00009C02002032
:103BB0002DE9F0410D46064600244FF6FF7707E059
:103BC00031193B4601220448FEF7BCFE641CA4B236
:103BD000AC42F5D3BDE8F0819C0200202DE9F04114
:103BE00007460D46042000EB8500C6B2304600F0C3
:103BF00037FC040016D0AA003946FCF712FB00215E
:103C000004EB850004F825104170802181707F212C
:103C1000C17031462046FFF7CBFF2046BDE8F0419A
:103C200000F0FEBABDE8F081FEE74100080218BFCF
:103C300004200A0E18BF40F001004FF07F4232EA24
:103C4000010108BF40F00200012808BF05207047AD
:103C50000907090E002804DB00F1E02080F80014B9
:103C6000704700F00F0000F1E02080F8141D70474D
:103C700010EE101A08B5444A6846B2EB410F28D935
:103C80004FF0E640B0EB410F94BF00204FF0FF3003
:103C900000900098002861DB60EE000A10F0010F30
:103CA00045D010F0020FDFED391A9FED391A00EE02
:103CB000E11ADFED381A40EE811A21EEA01AF0EE7B
:103CC000400A40EE010A08BFF1EE600AB0EE600A59
:103CD00008BD314B21F0004293423CD911F0004F16
:103CE000DFED2E0A20EE201ADFED2D0A19BF31EE8E
:103CF000601A71EE200A31EE201A71EE600ABDEEF4
:103D0000E01A11EE100A9FED271A00F0030000EEF2
:103D1000C10A9FED251A009000EEC10A9FED231AFB
:103D200000EEC10A9FED221A00EEC10AB1E79FED35
:103D3000211A9FED210A10F0020F00EE810A9FED7B
:103D40001F1A00EE801AB7EE000A00EE810A18BFB3
:103D5000B1EE400A08BD00F0A3F99AE710EE100A90
:103D60004000B0F17F4F3CBFB7EE000A08BD07D15D
:103D70004FF0010000F04EFABDE8084000F080B9B5
:103D8000BDE8084000F078B9B61F927E336D4C391B
:103D9000DA82083CA0AA2ABE490E494683F9223F8E
:103DA0000000004B0000C93F00A0FD390020A233F5
:103DB0001A61342CB93AB2BACA9F2A3DDDFFFFBE60
:103DC00010B52DED040B86B09DED060B10EE100A1C
:103DD00010EE901A8DED000B002818BF012008434B
:103DE00020F00040C0F17F6000F1E040C00F21D121
:103DF0009DED080B10EE101A10EE900A8DED000BE1
:103E0000002918BF0121084320F00040C0F17F6065
:103E100000F1E040C00F0DD129490798B1EB400FE8
:103E200004BF0698002842D00998400004BF0898B3
:103E300000283CD09DED080B53EC102B9DED060B9C
:103E400051EC100BFCF71EFCCDE902019DED020BBD
:103E500040F2FF7110EE900A8DED000B31EA105028
:103E600021D00798039900F0004001F000418842FA
:103E700019D09DED080B8DED040B9DED020B8DED22
:103E8000000B10EE900A059961F31E0005909DED60
:103E9000041B9DED020B51EC110B53EC102BFCF7A6
:103EA00088FACDE902019DED020B0AB010BD012098
:103EB00000F0B0F90AB0BDE8104000F0CDB8000045
:103EC0000000E0FF00B510EE101A2DED028B81B05E
:103ED000524A6846B2EB410F2ED94FF0E640B0EBA4
:103EE000410F94BF00204FF0FF3000900098B0EEDB
:103EF000408A00286ADB10F0010F4BD068EE080AF8
:103F00009FED471A9FED470A00EE810A9FED461A82
:103F100010F0020F00EE801AB7EE000A00EE810AE0
:103F200002BF01B0BDEC028B00BD00BF01B0B1EE1D
:103F3000400ABDEC028B00BD3C4B21F00042934295
:103F400041D911F0004FDFED3A0A20EE201ADFEDE3
:103F5000390A19BF31EE601A71EE200A31EE201ACB
:103F600071EE600ABDEEE01A11EE100A9FED321AF2
:103F700000F0030000EEC10A9FED301A009000EE41
:103F8000C10A9FED2F1A00EEC10A9FED2E1A00EE16
:103F9000C10AABE728EE080A9FED2B1ADFED2B0ACA
:103FA00010F0020F40EE410A9FED291A00EE201A90
:103FB00061EE000AB0EE480A08EE200AB6D101B060
:103FC000BDEC028B00BD00F06BF88FE718EE100A15
:103FD0004000B0F17F4F0DD218EE100AFFF725FE1A
:103FE000042808BF00F054F8B0EE480A01B0BDEC58
:103FF000028B00BD09D1012000F00CF901B0BDEC2D
:10400000028B5DF804EB00F03BB801B0B0EE480A5B
:10401000BDEC028B5DF804EB00F02EB8B61F927E6B
:10402000B93AB2BACA9F2A3DDDFFFFBE490E4946E2
:1040300083F9223F0000004B0000C93F00A0FD397A
:104040000020A2331A61342C336D4C39DA82083CDB
:10405000A0AA2ABE000000009FED050B10B553EC8E
:10406000102B51EC100BFCF763FB41EC100B10BD57
:10407000000000000000000030EE000A7047000061
:10408000DFED020A80EEA00A704700000000000089
:104090009FED020A20EE000A7047000000000010A9
:1040A0002DE9F0014FF07F42B2EB410F9FBF4FF07F
:1040B000FF310160BDE8F00170474FF0004242EA75
:1040C0000123C1F3C752783A551112F01F0C434C2B
:1040D000CCF120067C44C1F3C752A2F178024FEA2A
:1040E000621204EB820254F8254008BFD2E901565F
:1040F00012D0556804FA0CF425FA06F73C43976889
:1041000005FA0CF527FA06F8D26807FA0CFCF2401B
:1041100045EA08054CEA0206A4FB034CA5FB035242
:10412000A6FB03631D449D4234BF012600261319DC
:10413000334416B1934202D903E0934201D20122E3
:1041400000E00022624402F1200C9206DC0C42EAFC
:10415000443200EE102A5B03DFED210AF8EEC01AAC
:1041600000EE103A4FEA9C1C11F0004FB8EE400AE6
:10417000C0F800C020EE201A00EE105ADFED190A38
:10418000B8EE400A20EE200A71EE810A70EE800A35
:1041900010EE902A02F500626FF30B0200EE902AF7
:1041A00070EEE11A31EEC11ADFED101A30EE411A4D
:1041B0009FED0D0A20EE800A01EE210A9FED0C1AF8
:1041C00000EE810A04BFBDE8F0017047CCF18051D8
:1041D0000160BDE8F001B1EE400A70470C04000038
:1041E000000000360000802C22AAFD29DB0FC92F19
:1041F0000000C92F02E008C8121F08C1002AFAD126
:1042000070477047002001E001C1121F002AFBD156
:1042100070470000014908607047000078010020E5
:1042200010B5002821D0114B0022001F196803E0AF
:10423000814203D80A4649680029F9D152B113686E
:10424000841A9C4204D1006818441060104602E0B1
:10425000506000E0186039B102680B1A934203D134
:104260000B681A4402604968416010BD700100206B
:1042700010B54FF08041496A41800288DFED120A93
:10428000114409B200EE101A9FED101A8180B8EEA9
:10429000C00A60EE200A80EE810A10EE100AFCF7D8
:1042A000FDF841EC100B9FED0A1BFFF789FD9FED18
:1042B0000A1B51EC100B53EC112BFCF77DF8FCF7AB
:1042C00000F900EE100A10BDDB0FC94000007A456E
:1042D00000000060FB2119400000000000001040B9
:1042E00015490968CA6B0B6CA2F2F372524212B202
:1042F000A3F2F3735B42496C1BB200EE102ADFEDB0
:104300000F0A9FED0F1AB8EEC00A60EE201A81EE78
:10431000810ADFED0C1A80EE212A00EE103AB8EE89
:10432000C00A20EE200AC0EE010A80ED042A80EEC9
:10433000A10A80ED050A70477C0100203333534009
:1043400000F07F45C1A8A43D2DED028BFDF7A8F834
:10435000FFF704F9FEF7FCFCFEF788FEFEF7F2FD1E
:10436000FEF788FDFEF7BAFDFEF78CFCFCF770FB4C
:10437000344C354D9FED358B01212046FDF778F803
:1043800028B102212046FDF773F868B118E0BFF3A9
:104390004F8F30480168304A01F4E06111430160F9
:1043A000BFF34F8F00BFFDE70A20FCF731FF02216A
:1043B0002046FDF75DF80028F9D028490220087052
:1043C00010212046FDF754F850B90A20FCF720FFD1
:1043D00010212046FDF74CF80028F9D0FEF768FEC2
:1043E00004212046FDF744F890B90A20FCF710FF9D
:1043F00004212046FDF73CF80028F9D02869FCF795
:104400004DF853EC182BFBF730FFFCF75AF82861F6
:1044100008212046FDF72CF80028ADD10A20FCF732
:10442000F7FE08212046FDF723F80028F9D0286977
:10443000FCF734F853EC182BFBF7B8FFFCF741F806
:10444000286199E7001002409C0000209A999999F0
:104450009999D93F0CED00E00400FA050000002016
:10446000F0B50B30154D20F007010024144A0FE081
:1044700003688B420BD38B4205D95E1A43184768F9
:10448000C3E9006700E04368136002C004E0021D56
:1044900010680028ECD12046002802D1286808B115
:1044A0000020F0BD064A07481060074A121A22F0A1
:1044B0000702C0E9002401202860D7E7740100202A
:1044C000700100200403002000050020000000000F
:1044D00000000000010203040607080900000000B4
:1044E00001020304000000006E83F9A22915444E66
:1044F000D15727FCC0DD34F5999562DB4190433CF0
:10450000AB6351FE24450008000000207C01000040
:104510000E0800087C4500087C010020840700008C
:1045200004420008C132018210033724F4234842B8
:10453000A31644E7A041CDCCCC3D9A9D2001131792
:104540000206010403050009180772933F7CD92075
:104550003E0D2266665E4124013C13714202100842
:104560000D129A99593F0C0C133333330CC00DCDF7
:0C457000CCCC3DE17A9C3F9A9931400090
:040000050800018965
:00000001FF
