:020000040800F2
:100000005005002045010008D12600086F23000894
:1000100089260008190D0008712D00080000000055
:1000200000000000000000000000000001270008A0
:10003000310E000800000000D3260008292800081F
:100040005F0100085F0100085F0100085F01000810
:100050005F0100085F0100085F0100085F01000800
:100060005F0100085F0100085F0100085F010008F0
:100070005F0100085F0100085F0100085F010008E0
:100080005F0100085F0100085F0100085F010008D0
:100090005F0100085F0100085F0100085F010008C0
:1000A0008D280008B1280008A52800089928000814
:1000B000BD2800085F0100085F0100085F0100081B
:1000C0005F0100085F0100085F0100085F01000890
:1000D0005F010008652D00085F0100085F0100084E
:1000E0005F0100085F0100085F0100085F01000870
:1000F0005F0100085F0100085F0100085F01000860
:100100005F0100085F0100085F0100085F0100084F
:100110005F0100085F0100085F0100085F0100083F
:100120005F0100085F0100085F0100085F0100082F
:10013000DFF80CD000F0AAFC00480047E1350008C9
:10014000500500200648804706480047FEE7FEE7C6
:10015000FEE7FEE7FEE7FEE7FEE7FEE7FEE7FEE777
:100160008B28000831010008202A04DB203A21FAFC
:1001700002F00021704721FA02F3D040C2F12002C0
:100180009140084319467047D2B201E000F8012BB4
:10019000491EFBD270470022F6E710B513460A4607
:1001A00004461946FFF7F0FF204610BDF0B480EA80
:1001B0000102D40F4200B2EB410F02D202460846C0
:1001C00011464A0042D0C30DDDB2C1F3C752AD1A89
:1001D000202D35DAC1F3160141F4000204B1524278
:1001E000C5F1200602FA06F12A411044B3EBD05FB4
:1001F00023D0C4B1012DA0EBC35009DCF0BC4FF0FB
:10020000004202EAC352DBB200F5000000F0E6BA99
:10021000400000F1807000EBC350A0F1807040EA14
:10022000D170490009E0490841EAC071A0EBC35010
:1002300000F50000400800EBC350F0BC00F0C5BA68
:100240006142012202EB4101001BF6E7F0BC70475E
:1002500081F00041AAE780F00040A7E780EA0102B0
:1002600010B502F00043400022D04A001FD0010E1A
:1002700001EB1261C0F35600C2F3560240F40000D5
:1002800042F40002A0FB022000047F39140400D0D5
:10029000401C50EA124001D44000491EC2B20C0674
:1002A00004EBD010401C4008802A02D003E000205C
:1002B00010BD20F00100002900DA0020184310BD15
:1002C00030B480EA010202F0004530F0004221F033
:1002D000004013D090B1C30DD40DC2F31601C0F38A
:1002E0001600E41A41F4000140F400027D3491420A
:1002F00001D3641C00E04900002C02DA30BC00206D
:1003000070474FF400000023914201D3891A034340
:1003100040084FEA4101F7D151B1914202D14FF06B
:10032000004105E002D24FF0010101E06FF0010150
:1003300003EBC450284430BC00F047BA420005D05B
:10034000C0F3C7525242914201DC0020704700EBDB
:10035000C15070472DE9FE4F804681EA0300C00F6F
:100360000C46009021F0004123F00045B8EB02005C
:10037000A94105D24046214690461C460B460246FE
:1003800023F00040104347D0270DC7F30A00C3F302
:100390000A510290401A019040286BDAC3F313000F
:1003A00040F4801B0098924620B10023D2EB030A50
:1003B00063EB0B0B01985946C0F14002504600F028
:1003C000E3F906460D4650465946019A00F0EBF90E
:1003D00010EB08006141002487EA115284EAE773B8
:1003E0001A4340D0009A62B3019A012A4FEA075299
:1003F00015DC001B61EB02014FF0004202EA0752DC
:10040000CDE90042001C41F5801132462B4600F038
:100410007AFA03B0BDE8F08F40462146F9E7001BA9
:1004200061EB0201001C41F5801300185B412018AC
:10043000A2F5001747EB030140EAD570B6196D41EC
:1004400011E06D084FEA360645EAC0754FEA0752DB
:10045000001B61EB0201001C41F5801149084FEAC5
:1004600030000019514132462B4603B0BDE8F04F31
:1004700000F03ABA0098012240000023D0EB0202BB
:1004800063EBE073009821464FEAE074B8EB00009C
:1004900061EB0401E9E783F000435BE781F0004191
:1004A00058E72DE9FE4F81EA030404F0004421F0EF
:1004B000004100944FF0000B23F0004350EA010488
:1004C0005ED052EA03045BD0C3F30A54C1F30A5569
:1004D0002C44A4F2F3340194A0FB0254C1F31301A1
:1004E00041F48011C3F3130343F4801301FB02446E
:1004F00000FB034E840A970A44EA815447EA835773
:10050000A4FB076802958D0A05FB07854FEA932C2B
:1005100004FB0C542705029D4FEA065847EA16379C
:10052000B5EB08056EEB070C870E920E47EA8117B4
:1005300042EA8312A7FB0201B6EB0B0164EB000455
:100540002B0D43EA0C335E1844EB1C50DA4651463F
:10055000E7FB0201C5F313044FEA0B3343EA1453DC
:100560004FEA0432019C43EA0603A4F10C0402940E
:10057000009CCDE900B400F0C6F903B0BDE8F08FEF
:1005800000200146F9E72DE9F04D81EA030404F06B
:10059000004B21F0004514464FF0000A23F00041C3
:1005A00050EA050220D054EA01021DD0C5F30A57D3
:1005B0000246C5F31303C1F31300C1F30A5640F416
:1005C000801543F48013A7EB0608101BD64608F2EB
:1005D000FD3873EB050002D308F1010801E0921821
:1005E0005B41B8F1000F03DA00200146BDE8F08D51
:1005F00000204FF48011064684460EE0171B73EB73
:10060000050705D3121B63EB050306434CEA010CF7
:1006100049084FEA300092185B4150EA0107EDD1DA
:1006200052EA030012D082EA040083EA050108437B
:1006300005D0101BAB4106D20122002306E00022A8
:100640004FF0004302E06FF0010253101AEB060076
:100650004CEB085110EB0A0041EB0B01BDE8F04DEB
:1006600000F042B9C10F80EAE0700844CA0796233F
:10067000002100F0B3B896230022114600F0AEB876
:100680000EB540F2334102910021CDE900110A4636
:100690000B4600F038F903B000BD20F00040C10D5A
:1006A000C0F3160040F400007F2901DA00207047F3
:1006B000962903DCC1F19601C840704796398840FD
:1006C000704770B5C1F30A5201F000450024C1F330
:1006D000130140F2FF3341F480119A4201DA002005
:1006E00070BD40F233439A42A2F2334203DC5242DD
:1006F000FFF73AFD00E090402C43F1D0404270BD3E
:1007000000F0004230F000400AD0C10D01F56071E8
:10071000C0F3160042EA0151C20840071143704776
:1007200000200146704701F0004330B421F0004141
:1007300050EA010206D00A0DA2F56072C1F313015E
:10074000002A02DC30BC00207047440F44EAC10498
:10075000C100E01830BC00EBC25000F036B8000019
:10076000002801DBC0F10040002901DBC1F100419C
:1007700081427047002801DBC0F10040002901DB05
:10078000C1F1004188427047202A04DB203A00FA78
:1007900002F1002070479140C2F1200320FA03F3D8
:1007A000194390407047202A06DBCB17203A41FAC4
:1007B00002F043EAE07306E041FA02F3D040C2F1EE
:1007C000200291400843194670470029A8BF70478E
:1007D000401C490008BF20F00100704710B4B0FA77
:1007E00080FC00FA0CF050EA010404BF10BC704712
:1007F00049B1CCF1200421FA04F411FA0CF118BF2C
:10080000012121430843A3EB0C01CB1D4FEA0061FA
:100810004FEA102042BF002010BC704700EBC350CD
:1008200010440029A4BF10BC7047401C490008BFF9
:1008300020F0010010BC7047F0B4002802DCF0BCCE
:1008400000207047C0F3C751C0F3160040F4000009
:10085000CA0701D14000491E3F2202EB6105002278
:1008600011464FF4000626FA01F31344D4188442CB
:1008700001D8001B1A464000491C1729F3DD51001E
:10088000814202D24FF0FF3100E0002102EBC5505F
:10089000F0BCFFF79ABFF0B400F0004221F0004135
:1008A00020F00040CE0DC30DC1F3160141F400014C
:1008B000C0F316004C42154640F40000761E09E0D5
:1008C00010EB440002D582F0004240428842F7D843
:1008D00040005B1EB342F9DA18B1F0BC0021FFF70B
:1008E0007DBF2846F0BC704710B5141E73F100049C
:1008F00008DA401C41F1000192185B411A4301D112
:1009000020F0010010BD2DE9F04D92469B4611B13B
:10091000B1FA81F202E0B0FA80F220329046FFF79D
:1009200033FF04460F4640EA0A0041EA0B015346F2
:100930005A46084313D0114653EA010019D0C8F1B2
:1009400040025046FFF710FC05460E4650465946F9
:100950004246FFF719FF084305D0012004E0204676
:100960003946BDE8F08D0020054346EAE0762C4389
:1009700037430A986305E40AA0EB08000022FD0A49
:1009800044EA47540A3002D500200146E9E7010550
:1009900010196941DDE9084500196941BDE8F04DCC
:1009A000A2E700002DE9F041054621F000400C4689
:1009B000284309D0C4F30A5040F23341884205DD90
:1009C00028462146BDE8F0812846FBE740F2FE318B
:1009D000884210DC0CDB4FEA043040EA155050EA44
:1009E000053105D0104804F0004101430020E9E73B
:1009F00000200146E6E7A0F233404642C6F140023D
:100A000028462146FFF7C0FE07468846284621466D
:100A10003246FFF7A9FB43463A46FFF765FF3246E9
:100A2000BDE8F041FFF7B0BE0000F03F30B5041E56
:100A300071F1000404DB4FF00044404264EB01011B
:100A4000141E73F1000405DB1C464FF000435242B4
:100A500063EB04038B4208BF824230BD30B5041EF5
:100A600071F1000404DB4FF00044404264EB0101EB
:100A7000141E73F1000405DB1C464FF00043524284
:100A800063EB0403994208BF904230BD064C074D0A
:100A900006E0E06840F0010394E80700984710344E
:100AA000AC42F6D3FFF748FB083C0008283C00089E
:100AB00070B521F0004303430CD0C1F30A55002464
:100AC000D5EB040564EB0403D617AD1AB34102DB82
:100AD0000020014670BD201841EB025170BD0EB5DB
:100AE000C10F80EAE0700844CA07002140F2334396
:100AF0008DE80E000A460B46FFF705FF03B000BD68
:100B000070B501F083FC6C2001F06CFC01F036FC48
:100B10000C2001F067FC01F031FC01F077FC6D2046
:100B200001F060FC01F02AFC01F037FC044601F002
:100B300025FC01F06BFC6D2001F054FC01F01EFC63
:100B400001F02BFC0546012001F041FC01F06DFC99
:100B500045EA0420BDE87040FFF78DBD01F096BD69
:100B600010B5064C214602F005FD10F1FF4F04D3ED
:100B70002146BDE81040FFF719BB10BDDB0FC9408F
:100B800070B50D461C461946FFF768FB0646214620
:100B90002846FFF763FB134C6168FFF707FB124918
:100BA0000546884202D91148114907E01149884297
:100BB00002DB0E48104901E0FFF7A2FDFFF7B3FD8D
:100BC00001463046FFF7F2FA0C4A0146904201D93D
:100BD000114603E00A48814200DD0146084665608F
:100BE00070BD000044000020CDCCCCBD9A999999ED
:100BF0009999B9BFCDCCCC3D9999B93F0000A0C01F
:100C00000000A04070B5FFF723FB084C084D02E040
:100C10002146FFF71DFBA842FADC064DA84203D986
:100C20002146FFF7C3FAF9E770BD0000DB0FC940AA
:100C3000DB0F4940DB0F49C010B5064800F01EFF2E
:100C4000012202211C2000F087FBBDE810401C207F
:100C500000F074BBBC0000202DE9F0412C48DFF807
:100C6000A080284C284F29490068FFF729FB02F093
:100C7000F7FC05463946FFF799FA02F0F1FC064603
:100C800039462846FFF7E4FA02F0EAFC0546014639
:100C90003046FFF76FFD2068294605D2FFF76AFD51
:100CA00018D8314620680BE0FFF764FD03D81949D6
:100CB0002068884207DB206810F1FF4F0AD23146D6
:100CC000FFF74EFD06D8206800F028F8C8F80C00A1
:100CD000BDE8F08130462168FFF794FF20F000471F
:100CE00028462168FFF78EFF20F000413846FFF7C5
:100CF00037FD02D2C8F80C60EAE7C8F80C50E7E705
:100D00004C00002008000020DB0FC93F0000E0403D
:100D100004000020DB0FC940FEE7000010B502F020
:100D20009FFC0D4C2146FFF7CBFAFFF7E9FC02F0E0
:100D3000A7FCFFF7C6FCC11700EB517121F00701BA
:100D4000401A0649C0B20870FFF795FC2146BDE87D
:100D50001040FFF783BA0000DB0F493F000000207E
:100D600070B50749FFF77AFA074D044605496869E7
:100D7000FFF774FA2146FFF719FA686170BD0000A9
:100D8000CDCC4C3ECDCC4C3F4C0000202DE9F04169
:100D90001D4D1E4E1E4C29693068FFF733FF1D495B
:100DA000FFF78EFAFFF7DCFF1B49FFF757FA804683
:100DB0001A4F20464146FFF7DDFC01D2204607E0EE
:100DC00039464046FFF7D6FC01D2384600E040469F
:100DD0001349FFF743FA04461249A869FFF73EFAA0
:100DE0002146FFF7E3F90446A8610F4801680F4860
:100DF0000068FFF72DFA02460021204602F08AFC27
:100E000030682861BDE8F0814C0000200800002017
:100E1000000020C06F12833A9A9919BE000020404A
:100E2000CDCC4C3D3333733F040000200C00002038
:100E3000704772B6FEE700001148016841F00101F9
:100E400001600F4920310A6840F211131A430A6009
:100E50000B4944310A6842F400420A6008491831DB
:100E60000A6840F608031A430A60091D0A6842F03E
:100E700008020A60016841F08001016070470000CB
:100E8000002C014070B500F02BF8124C054661684B
:100E9000FFF7DEF9104A20F0004191420CDDB0F579
:100EA000000F02DB4FF0FF3000E00120FFF7DAFB1C
:100EB0002168FFF77BF92060656001212068FFF75A
:100EC0003DFA0649FFF7CAF92946BDE87040FFF729
:100ED0006DB90000240000207CD9A040DB0F494000
:100EE00010B5FFF70DFE6FF00B01FFF727FABDE815
:100EF00010400149FFF7B2B9DB0FC94010B590F8B7
:100F000021100022022905D00421816380F82020CD
:100F1000012010BD01680B6823F00E030B6001680F
:100F20000B6823F001030B6090F84030C46B012183
:100F300001FA03F3636080F8211080F82020104646
:100F400010BD00002DE9F05F90F821100024022967
:100F500003D004218163012485E001680A6822F03E
:100F60000E020A6001680A6822F001020A603F4E20
:100F70003E4FB215DFF8F4C0DFF8F090DFF8ECA0D8
:100F8000DFF8E8B0DFF8E4E00168783F130115020C
:100F9000ACF1640CA9F15009AAF13C0AABF1280BA1
:100FA000AEF1140E4FF48018B14227D9B9420ED0D9
:100FB000614512D049451DD0514518D0594518D02A
:100FC000714501D1424615E0294EB14201D10122BD
:100FD00010E0274E1436B14201D110220AE0244E0F
:100FE0002836B14206D0224A3C32914201D11A46FB
:100FF00000E02A461E49091F0A602BE0B94213D0BF
:10100000614517D0494522D051451DD059451DD0C5
:10101000714501D142461AE0B14202D14FF08072CF
:1010200015E0134EB14201D1012210E0104E1436EA
:10103000B14201D110220AE00D4E2836B14206D04D
:101040000B4A3C32914201D11A4600E02A46074938
:1010500080394A60012180F82110002180F8201099
:10106000416B01B188472046BDE8F09F80000240F7
:10107000080402402DE9F84FDFF8C8910024A9F1D7
:10108000040B23460F2709F1040AABF1040ED1E04B
:101090000125A54006EA0502AA4276D1DFF8A8C1DB
:1010A0004E68A6EB0C0866452BD00DDC032E34D021
:1010B00005DC36B3012E19D0022E2FD11BE0112EE4
:1010C00016D0122E2AD119E0B8F5881F19D006DCE7
:1010D000B8F5803F15D0B8F5801F1FD111E0B8F5E5
:1010E000001F0ED0B8F5041F18D10AE0CB6815E038
:1010F000CB681B1D12E0CB6808330FE0CB680C33C4
:101100000CE08B682BB1012B4FF0080303D0456135
:1011100004E0042302E0056100E00023FF2A01D877
:10112000064601E000F104064FEA840501D9A5F165
:101130002005D6F8008007FA05FC28EA0C0803FA17
:1011400005F548EA0508C6F800804D68ED0070D541
:101150003E4DAE6946F00106AE61AD6924F003066E
:1011600005F0010500953A4D06EB050CDCF808503A
:10117000A607360F07FA06F825EA0805DFF8D48037
:10118000404503D14FF0000825E052E0DFF8C88069
:10119000404502D14FF001081DE0DFF8C080404516
:1011A00002D14FF0020816E0DFF8B480404502D1CA
:1011B0004FF003080FE0DFF8AC80404502D14FF05C
:1011C000040808E0DFF8A080404502D14FF0050890
:1011D00001E04FF0060808FA06F848EA0508CCF8DE
:1011E00008804D68D9F80060ED024D4601D51643E0
:1011F00000E096432E604D68DAF80060AD02554677
:1012000001D5164300E096432E604D68DBF8006080
:10121000AD035D4601D5164300E096432E604D6850
:10122000DEF80060ED03754601D5164300E09643F5
:101230002E60641C0A681646E2407FF429AFBDE8C0
:10124000F88F000008040140000011100010024057
:101250000000014000080140000C01400010014066
:101260000014014000180140001C01408068084043
:1012700000D0012070470AB1016170470904FBE703
:10128000014880687047000014000020024881680F
:10129000027811448160704714000020074810B59F
:1012A000016841F010010160032000F075F80F2083
:1012B00000F006F800F024F8002010BD00200240E5
:1012C00070B50D4D04464FF47A712878B1FBF0F0FB
:1012D0000A490968B1FBF0F000F0DCFA48B9102CBB
:1012E00007D200222146501E00F036F800206C6024
:1012F00070BD012070BD00001400002020000020FF
:101300000C4808B5816941F001018161816901F0F2
:1013100001010091C16941F08051C161C06900F0D3
:10132000805000900448416821F0E06141F0007174
:10133000416008BD0010024000000140002809DBA8
:1013400000F01F02012191404009800000F1E020DF
:10135000C0F8001170470000F0B40E4B1B680C463B
:10136000C3F30223C3F10705042D00D90425191D79
:10137000072901D2002300E0DB1E012606FA05F151
:10138000491E214099409E40761E16403143F0BCD4
:1013900001F058BD0CED00E0064900F007020868B6
:1013A0004FF6FF03184040EA0220034A104308604A
:1013B000704700000CED00E00000FA052DE9F04751
:1013C0000F46050061D0434E306800F00700B84278
:1013D00009D2306820F0070038433060306800F0F0
:1013E0000700B84251D128683B4C810712D540070D
:1013F00003D5606840F4E06060602878000703D59A
:10140000606840F4605060606068A96820F0F00097
:10141000084360602878C00728D06868012810D089
:101420002168022810D0890700292EDA616821F08E
:10143000030101436160FFF723FF804641F28839D1
:101440000DE021688903EFE78901EDE7FFF718FF59
:10145000A0EB0801494502D90320BDE8F087606888
:10146000696800F00C00B0EB810FEFD1306800F03C
:101470000700B8420BD9306820F0070038433060CD
:10148000306800F00700B84201D00120E5E7287875
:10149000400705D56068E96820F4E06008436060B3
:1014A0002878000706D56068296920F4605040EA72
:1014B000C100606000F038F86168084AC1F30311A8
:1014C000515CC8400649086006480068FFF7F8FE0E
:1014D0000020C2E70020024000100240CE3A00087F
:1014E00020000020180000200448054900684968D1
:1014F000044AC1F30221515CC8407047200000201B
:1015000000100240DE3A00080448054900684968B6
:10151000044AC1F3C221515CC8407047200000203A
:1015200000100240DE3A00080E4A51680E4801F0F1
:101530000C03042B11D0082B0FD10C48C1F38343AB
:10154000C903C05C0AD55168084AC1F34041921EE4
:10155000515C054A5043B0FBF1F0704704494843E1
:10156000704700000010024000127A00BE3A0008E6
:1015700000093D002DE9F84F040070D02078C04DDF
:10158000C00749D06868C0F38100012807D06868A7
:10159000C0F38100022809D16868C00306D5286815
:1015A000800339D560680028E7D035E06068B0F581
:1015B000803F0BD010B1B0F5A02F11D0286820F4D7
:1015C00080302860286820F4802002E0286840F4F9
:1015D00080302860606890B1FFF752FE06460AE04E
:1015E000286840F480202860F0E700BFFFF748FE3D
:1015F000801B642873D828688003F7D50CE0FFF7B8
:101600003FFE064605E000BFFFF73AFE801B642858
:10161000F0D828688003F7D420789A4E80074FF0DE
:1016200001094FF0000839D5686810F00C0F07D099
:101630006868C0F38100022809D16868C00306D435
:101640002868800714D52069012808D110E0206996
:10165000B0B1C6F80090FFF713FE074605E00AE1B7
:10166000FFF70EFEC01B0228C4D828688007F7D5F4
:101670002868616920F0F80040EAC10028600DE0A8
:10168000C6F80080FFF7FCFD074604E0FFF7F8FD11
:10169000C01B022823D828688007F7D420780007C9
:1016A0002CD57948A169D9B1C0F80090FFF7E8FDC1
:1016B000074604E0FFF7E4FDC01B02280FD8686A64
:1016C0008007F7D571484FF4FA510068B0FBF1F08C
:1016D000009000BF0098411E0091FAD20EE080E019
:1016E000C0F80080FFF7CCFD074604E0FFF7C8FD17
:1016F000C01B022875D8686A8007F7D42078400795
:1017000060D5E8690027C00008D4E86940F080503F
:10171000E861E869012700F0805000905C480168AA
:10172000C90513D40168834641F480710160FFF755
:10173000A7FD824606E000BFFFF7A2FDA0EB0A006E
:1017400064284ED8DBF80000C005F5D5E068012814
:101750000AD008B1052813D0286A20F001002862B9
:10176000286A20F0040002E0286A40F001002862A4
:10177000E06841F2883B98B1FFF782FD82460BE0BA
:10178000286A40F004002862EEE700BFFFF778FD0A
:10179000A0EB0A0159455AD8286A8007F6D50CE013
:1017A000FFF76EFD824605E0FFF76AFDA0EB0A0138
:1017B00059454CD8286A8007F6D41FB1E86920F053
:1017C0008050E861E06988B36968C1F3810102294A
:1017D00044D00228C6F8608004D0FFF751FD0446CB
:1017E00038E034E0FFF74CFD074604E0FFF748FD22
:1017F000C01B02282BD828688001F7D4206AB0F5D6
:10180000803F05D16868A16820F400300843686013
:10181000D4E908010843696821F474110843686039
:10182000C6F86090FFF72CFD044606E025E000BFF7
:10183000FFF726FD001B022809D828688001F7D58C
:101840001BE000BFFFF71CFD001B022802D903208C
:10185000BDE8F88F28688001F4D40EE00128F7D0A5
:101860006868226A00F48031914204D1616A00F410
:101870007010884201D00120EAE70020E8E700006C
:10188000001002400000424280044242200000203A
:101890000070004010B5401EB0F1807F01D30120E0
:1018A00010BD4FF0E02460610F21601701F0CAFA0B
:1018B0000020A06107202061002010BD7047704704
:1018C00010B590F83C20012A22D0012280F83C205B
:1018D000CA688C6822F4407222434C6822F4806209
:1018E00022430C6822F4006222430C6922F48052E5
:1018F00022434C6922F400522243C969002322F496
:1019000080420A4301684A6480F83C30002010BDE0
:10191000022010BD70B590F83C20012A2CD0012483
:1019200080F83C40022280F83D2003685A689D6898
:1019300022F070060A6832435A60104B02689A42DD
:101940000ED00F4B9A420BD0B2F1804F08D00D4B06
:101950009A4205D00C4B9A4202D00C4B9A4204D1C9
:10196000496825F080031943916080F83D400021CB
:1019700080F83C10084670BD022070BD002C01406C
:10198000003401400004004000080040000C00400A
:1019900010B5040003D094F83D0010B107E0012019
:1019A00010BD002084F83C00204600F01FF8022003
:1019B00084F83D00211D206800F086FF012084F896
:1019C000460084F83E0084F83F0084F8400084F824
:1019D000410084F8420084F8430084F8440084F80D
:1019E000450084F83D00002010BD000008B5214AE4
:1019F00001682148914226D1816941F400618161E9
:101A00008069002200F40060009011461820FFF762
:101A1000A3FC1820FFF792FC002211461920FFF7C3
:101A20009BFC1920FFF78AFC002211461A20FFF7C1
:101A300093FC1A20FFF782FC002211461B20FFF7BF
:101A40008BFC1B2010E0B1F1804F11D1C16941F036
:101A50000101C161C069002200F00100009011463F
:101A60001C20FFF779FC1C20BDE80840FFF766BC8E
:101A700008BD0000002C01400010024090F83D100D
:101A8000012901D001207047022180F83D10016832
:101A9000CA6842F00102CA6000680E4988420ED04E
:101AA0000D4988420BD0B0F1804F08D00B498842D5
:101AB00005D00B49884202D00A49884204D1816886
:101AC00001F00701062903D0016841F0010101601E
:101AD00000207047002C0140003401400004004009
:101AE00000080040000C004070B5044690F83C002F
:101AF0000025012817D0012684F83C60022084F8D4
:101B00003D002068826822F0770222F47F428260E2
:101B10000868502838D00DDC20284FD005DC90B361
:101B2000102811D14AE0022070BD302846D040284C
:101B30000AD13BE060282FD070280DD0B0F5805F2F
:101B400003D0B0F5005F12D0012584F83D6000207D
:101B500084F83C00284670BDCB68D1E9012120689B
:101B600000F000FF2068816841F0770109E0CB6850
:101B7000D1E90121206800F0F5FE2068816841F478
:101B800080418160E1E719E0CA684968206800F097
:101B9000BDFF5021206806E0CA684968206800F04F
:101BA000C6FF6021206800F0E7FECEE7CA684968FA
:101BB000206800F0ABFF40212068F4E7226801466E
:101BC0001046F0E770472DE9F04104460068C6680A
:101BD00005694FF00007A90713D5B10711D5F91E04
:101BE000016101202077206880698007204602D0AB
:101BF000FFF7E8FF04E000F0C3F8204600F055F9D5
:101C00002777680716D5700714D521686FF0040090
:101C10000861022020772068806910F4407F204608
:101C200002D0FFF7CFFF04E000F0AAF8204600F052
:101C30003CF92777280715D5300713D521686FF0B1
:101C400008000861042020772068C06980072046CA
:101C500002D0FFF7B7FF04E000F092F8204600F052
:101C600024F92777E80616D5F00614D521686FF019
:101C700010000861082020772068C06910F4407FB8
:101C8000204602D0FFF79EFF04E000F079F82046DE
:101C900000F00BF92777E80708D0F00706D0216895
:101CA0006FF001000861204600F000F9280608D511
:101CB000300606D521686FF0800008612046FFF7E6
:101CC000FDFD680608D5700606D521686FF0400056
:101CD0000861204600F076F9A8060AD5B00608D5B6
:101CE00021686FF0200008612046BDE8F041FFF751
:101CF000E6BDBDE8F081000030B585B0002100915F
:101D00000191029103910068184988422BD118482B
:101D1000816941F004018161816901F0040104914C
:101D2000816941F0080181618069022500F00800A5
:101D300004904FF4F060CDE9000503246946039454
:101D40000C48FFF797F9CDE9004569460A48039426
:101D5000FFF790F90948416821F0C00141F0E061C6
:101D600041F04001416005B030BD0000002C014051
:101D70000010024000080140000C0140000001403A
:101D8000704770B5044690F83C0000260D460128C7
:101D90000FD0012084F83C006AB1042A1DD0082A23
:101DA0002FD00C2A3FD00126002084F83C0030467A
:101DB00070BD022070BD206800F0E6FD20688169DA
:101DC00041F0080181612068816921F0040181618D
:101DD000206881692A69114311E0206800F004FE3F
:101DE0002068816941F4006181612068816921F482
:101DF00080618161206881692A6941EA02218161EB
:101E0000D2E7206800F026FE2068C16941F0080191
:101E1000C1612068C16921F00401C1612068C16904
:101E20002A69114311E0206800F048FE2068C1696A
:101E300041F40061C1612068C16921F48061C16120
:101E40002068C1692A6941EA0221C161ACE710B585
:101E5000040003D094F83D0010B107E0012010BD4C
:101E6000002084F83C00204600F01EF8022084F890
:101E70003D00211D206800F027FD012084F8460068
:101E800084F83E0084F83F0084F8400084F8410064
:101E900084F8420084F8430084F8440084F8450044
:101EA00084F83D00002010BD704770472DE9F041D7
:101EB0000068B0F1804F62D10026FEF7E3FF354D98
:101EC000286001F0CDFB804633492860FEF7C6F953
:101ED000324F334C3860207838B101280AD00228BC
:101EE0004FD0032851D0002020704046FEF716FF47
:101EF000E06001E0FEF7B0FE2968E068FEF782FED0
:101F0000284920F000428A4206DDB0F5000F00DAD1
:101F10002549FEF79DF9064600223346114623481F
:101F2000FEF72EFEE06161682868FEF791F900F087
:101F3000D1FB0146E069FEF78BF9034600221C49FC
:101F40001C4800F031FC064620621B4801683868D6
:101F5000FEF77EF902460021304601F0DBFB2868DF
:101F600060600146FEF774F9FEF7CAFB134A144B92
:101F7000FEF709FBFEF7D7FB00F0ACFBA060BDE865
:101F8000F081BDE8F041FEF701BFBDE8F04100F08F
:101F9000B9BB0000080000200000E0400C00002059
:101FA0004C000020CDCCCC3DCDCCCCBD0000484277
:101FB00000000C43EC51383E04000020FCA9F1D293
:101FC0004D62503F7047704770470000F8B5016898
:101FD00004460868CA684B6910F00F0F4FF00005FF
:101FE0005AD003F0010602F49077374365D0C10759
:101FF00005D0D10503D5616C41F001016164410751
:1020000005D5D90703D0616C41F0020161648107F5
:1020100005D5D90703D0616C41F004016164010763
:1020200007D502F02001314303D0616C41F0080173
:102030006164616C00293BD0800604D5900602D50E
:10204000204600F0B5FD20684069616CC0F3801047
:1020500001F00801014320462BD000F082FD2068EA
:102060004069400621D52068143050E8001F21F057
:10207000400140E80012002AF5D1E06BA8B16D499B
:102080004163E06BFEF75EFF002811D0E06B416B0F
:1020900001B0BDE8F040084783060ED593060CD585
:1020A0002046BDE8F84000F083BD2046FFF78CFFD6
:1020B000F8BDFFF789FF6564F8BD266B2023012E6C
:1020C0007CD1C6067AD5D60678D5086848680090CF
:1020D00048694FF00206400640D5E16B0868406849
:1020E0000004000CE8D0A28D8242E5D9E085886921
:1020F00020282DD020680C3050E8001F21F480717A
:1021000040E80012002AF5D12168143151E8000F8F
:1021100020F0010041E80002002AF5D120681430C7
:1021200050E8001F21F0400140E80012002AF5D1DC
:1021300084F84230256320680C3050E8001F21F0FD
:10214000100140E80012002AF5D1E06BFEF7D6FE40
:102150006663A08DE18D401A81B22AE0A08DE18DE9
:10216000401A81B2E08D0028A6D00029A4D02268B0
:102170000C3252E8000F20F4907042E80007002F64
:10218000F5D12068143050E8002F22F0010240E819
:102190000027002FF5D184F84230256320680C30E9
:1021A00050E8002F22F0100240E80023002BF5D168
:1021B00066632046FFF707FFF8BDFFE705062BD54E
:1021C000150629D594F841002128F5D1A068B0F56D
:1021D000805F01D12069B0B1206A411C2162216871
:1021E00000784860E08C401E0004000CE084E3D1DD
:1021F0002068C16821F08001C1602068C16841F099
:102200004001C160D8E7206A0088C0F30800486038
:10221000206A801C2062E5E74006CDD55006CBD56C
:10222000CA68204622F04002CA6084F8413000F0BB
:102230009DF8C1E7532B000870B5040004D094F852
:102240004100002510B106E0012070BD84F8405027
:10225000204600F023F8242084F841002068C1685B
:1022600021F40051C160204600F004FD206801699E
:1022700021F4904101612068416921F02A01416106
:102280002068C16841F40051C1606564202084F871
:10229000410084F842006563002070BD30B585B010
:1022A0000024009401940294039400681B4988421E
:1022B00032D11B48816941F480418161816901F417
:1022C00080410491816941F0080181618069154D67
:1022D00000F00800049040200090022001900320AC
:1022E000039069462846FEF7C5FE8020CDE900042C
:1022F000694628460294FEF7BDFE0B48416841F04E
:10230000E06141F004014160002211462520FFF701
:1023100023F82520FFF712F805B030BD0038014042
:1023200000100240000C01400000014090F84230D3
:10233000202B01D00220704721B11AB10023036382
:1023400000F0F4BC0120704700680549884206D1BE
:1023500004490120024648700348FFF7E7BF704771
:102360000038014010000020040100207047FEE703
:1023700002210148FEF77ABF0010014010B501208C
:1023800000F068F8012000F05DF8FFF7F1FF044667
:10239000002000F057F8204610BD70B50025012040
:1023A00000F058F800248026012000F04BF8FFF7D9
:1023B000DFFF012802D126FA04F00543002000F0D7
:1023C00041F8641CE4B2082CEED3284670BD10B569
:1023D00000F040F8012000F035F8BDE81040002082
:1023E00000F030B870B500240546802626FA04F0C7
:1023F000284000F02FF8012000F024F8002000F021
:1024000021F8641CE4B2082CF0D370BD10B5012093
:1024100000F018F8012000F01DF8002000F01AF874
:10242000BDE81040002000F00DB810B5002000F00D
:1024300011F8012000F006F8BDE81040012000F07E
:1024400009B80000024601210148FEF714BF000050
:1024500000100140024602210148FEF70CBF0000B7
:102460000010014070B5FEF7E7FBFEF70BFD0E4EC6
:102470000E4C00253060C4E90105FEF74FFCE0601A
:102480003068C4E90405A56125700949FDF7E6FE39
:1024900008490968FDF7DCFEBDE8704002460021EE
:1024A000084601F037B90000080000204C00002069
:1024B0000000E04004000020114808B5816941F0A7
:1024C00010018161816901F010010091816941F081
:1024D00020018161816901F020010091816941F051
:1024E00004018161816901F004010091816941F079
:1024F00008018161806900F00800009008BD0000BB
:102500000010024010B596B000240F94109411945E
:10251000129413941C2168461494FDF73CFE20216C
:1025200007A8FDF738FE30482E49C0E900142021E5
:1025300081604FF4B461C0E9031444618461FFF722
:1025400027FA08B1FEF775FC4FF480500F900FA9E1
:102550002548FFF7C9FA08B1FEF76BFC2248FFF7E0
:1025600076FC08B1FEF765FC139413A91E48149479
:10257000FFF7D0F908B1FEF75CFC7020CDE900044C
:102580000294039404940594002269461648069424
:10259000FFF7F7FB08B1FEF74CFC0422694612482E
:1025A000FFF7EFFB08B1FEF744FC082269460E482E
:1025B000FFF7E7FB08B1FEF73CFC07940894099489
:1025C0004FF400500A94CDE90B4007A906480E9439
:1025D000FFF776F908B1FEF72CFC0348FFF78CFBF8
:1025E00016B010BD002C01407400002010B586B05C
:1025F00000241648009401940294039404944FF02C
:102600008041059401604721C0E9011440F2E7319F
:10261000C0E903148461FFF7BBF908B1FEF709FCB8
:102620004FF48050009069460848FFF75DFA08B102
:10263000FEF7FFFB049404A904480594FFF76AF928
:10264000002801D0FEF7F5FB06B010BDBC0000204D
:102650000C4810B50A4901604FF4E1314160002196
:1026600081600C22C160C0E904128161C161FFF781
:10267000E3FD002803D0BDE81040FEF7DABB10BD33
:102680000038014004010020FEE7000010B586B0CC
:10269000002002900C48816941F01001816180693D
:1026A000112100F0100004900320CDE90001074C37
:1026B000039069462046FEF7DDFC012203212046F7
:1026C000FEF7D9FD06B010BD001002400010014019
:1026D000FEE7704770B50749FDF7C0FD074D04469A
:1026E0000549A868FDF7BAFD2146FDF75FFDA86022
:1026F00070BD0000CDCCCC3D6666663F4C0000202E
:10270000704700002DE9F0411D4D1E4E1E4C2969F9
:102710003068FEF777FA1D49FDF7D2FDFEF720FB82
:102720001B49FDF79BFD80461A4F20464146FEF7A8
:1027300021F801D2204607E039464046FEF71AF854
:1027400001D2384600E040461349FDF787FD0446B4
:102750001249A869FDF782FD2146FDF727FD0446D1
:10276000A8610F4801680F480068FDF771FD024637
:102770000021204600F0CEFF30682861BDE8F081DE
:102780004C00002008000020000020C06F12833A97
:10279000CDCCCC3C000020400AD7A33D1F856B3F29
:1027A000040000200C00002070B50D461C461946A0
:1027B000FDF754FD064621462846FDF74FFD124C15
:1027C0002168FDF7F3FC11490546884202D91048FB
:1027D000104907E01049884202DB0D480F4901E02B
:1027E000FDF78EFFFDF79FFF01463046FDF7DEFC4B
:1027F00001460B48814202D80A48814200DD014669
:102800000846256070BD000044000020CDCCCCBD42
:102810009A9999999999B9BFCDCCCC3D9999B93FDD
:102820000000C0C00000C040FEF730BD30B58FB022
:1028300028216846FDF7AFFC14210AA8FDF7ABFC80
:1028400001210804CDE9001000240294022504911E
:10285000CDE907504FF4E01009906846FEF78AFE74
:1028600008B172B6FEE70F20CDE90A054FF480608B
:10287000CDE90C4002210AA80E94FEF79FFD002826
:1028800001D072B6FEE70FB030BD70470148FFF7C8
:102890009AB90000740000200148FFF794B90000C5
:1028A000740000200148FFF78EB90000740000207A
:1028B0000148FFF788B90000740000200148FFF7C5
:1028C00082B90000BC000020F0B50268204C214D08
:1028D000214E224F224B4FF0804CA04209D098420B
:1028E00007D0604505D0A84203D0B04201D0B8421D
:1028F00004D122F0700E4A6842EA0E02A04209D0CA
:10290000984207D0604505D0A84203D0B04201D01C
:10291000B84203D122F44075CA682A434D6922F0B7
:1029200080022A4302608A68C2620A688262A04208
:1029300001D0984201D10969016301214161016916
:10294000C90703D0016921F001010161F0BD000058
:10295000002C01400004004000080040000C004032
:102960000034014010B5846842EA032224F47F4415
:102970000A432243826010BD826822F070020A433B
:1029800042F0070181607047F0B5036A026A22F0E5
:102990000102026242688469124E24F073050C68D9
:1029A0002C4323F002058B682B430D4DA84201D028
:1029B000B04205D123F00807CB683B4323F0040362
:1029C000A84201D0B04205D14D6922F440721543AE
:1029D0008A692A4342608461496841630362F0BDA9
:1029E000002C014000340140F0B5026A036A23F074
:1029F00010030362436884690D6824F4E64444EAE2
:102A000005248D6822F0200242EA05120F4D104E77
:102A1000A84201D0B04206D1CF6822F0800242EA3B
:102A2000071222F04002A84201D0B04207D14D69FE
:102A300023F4406343EA85038D6943EA85034360D9
:102A40008461496881630262F0BD0000002C01408E
:102A500000340140F0B5026A036A23F48073036214
:102A60004368C46922F4007224F073050C68124EA6
:102A70002C438D6842EA05220E4DA84201D0B04297
:102A800006D1CF6822F4006242EA072222F4806273
:102A9000A84201D0B04207D14D6923F4405343EA24
:102AA00005138D6943EA05134360C4614968C16336
:102AB0000262F0BD002C01400034014030B5046AD0
:102AC000026A22F4805202624268C3690D6823F4EC
:102AD000E64343EA05238D6824F4005444EA0534B0
:102AE000084DA84202D0084DA84204D14D6922F4F5
:102AF000804242EA85124260C3614968016404620F
:102B000030BD0000002C01400034014010B5036AC4
:102B1000046A24F001040462846924F0F00444EAA5
:102B2000021423F00A020A438461026210BD10B548
:102B3000036A046A24F010040462846923F0A00389
:102B400024F4704444EA023243EA011182610162D2
:102B500010BD10B5406A0021C185C184FFF734FA69
:102B600010BD01680C3151E8002F22F4907241E849
:102B70000023002BF5D10168143151E8002F22F019
:102B8000010241E80023002BF5D1016B012909D195
:102B900001680C3151E8002F22F0100241E80023B7
:102BA000002BF5D1202180F84210002101637047ED
:102BB00008B590F84210222901D0022008BD826891
:102BC0004FF480539A4201D1016921B1816A9A423E
:102BD0001BD04AB10AE00268816A5268C2F3080257
:102BE0000A80816A891C08E0026972B10268526831
:102BF00002F07F020A70816A491C8162C18D491E00
:102C00000904090CC18503D01BE002685268F1E792
:102C10000168CA6822F02002CA600168CA6822F40A
:102C20008072CA6001684A6922F001024A6120216B
:102C300080F8421000214163026B012A03D0FFF7A4
:102C400083FB002008BD016301680C3151E8002FAF
:102C500022F0100241E80023002BF5D101680A6838
:102C6000D20602D50A6849680091818DFFF7ABF959
:102C7000E7E7000070B5044600680169E26821F4E6
:102C80004051114301612169A0680843616908430B
:102C90002168CA6841F20C639A430243CA60206803
:102CA0004169A26921F44071114341611E492068C4
:102CB000884202D1FEF728FC01E0FEF715FC00EB8C
:102CC000C00101EB0012606864218000B2FBF0F3E8
:102CD000B3FBF1F36FF018067343B2FBF0F5B2FBF0
:102CE000F0F605EB8305322303EB0515B5FBF1F593
:102CF000B6FBF1F605F0F00505EB0615B2FBF0F6B4
:102D0000B2FBF0F0B0FBF1F06FF01802504306EBAD
:102D1000800003EB0010B0FBF1F0216800F00F0021
:102D20002844886070BD00000038014081628285BF
:102D3000C28500214164222180F84210016921B13D
:102D40000168CA6842F48072CA6001684A6942F048
:102D500001024A610068C16841F02001C1600020A1
:102D6000704700000148FFF731B90000040100205E
:102D7000FEE700002DE9F05F224D234E234FDFF8E0
:102D8000908000244FF4FA7A4FF496792046FDF7AC
:102D900069FC2946FDF762FA3146FDF791FA39469A
:102DA000FDF704FA02460021404600F0B3FC484615
:102DB00000F03CFC641C5445E8DD5446AB46B2468A
:102DC00045464E462046FDF74DFC5946FDF746FA6E
:102DD0005146FDF775FA3946FDF7E8F9024600213C
:102DE000284600F097FC304600F020FC641EE9D530
:102DF000FEF748F80749FDF731FA07494860BDE892
:102E0000F09F0000DB0FC9400000FA43E4CB96407E
:102E1000000040400000E04000000020490050EA6F
:102E2000C12018BF04204A0D18BF40F0010040F235
:102E3000FF72B2EB515F08BF40F00200012808BFEB
:102E4000052070470907090E002804DB00F1E02087
:102E500080F80014704700F00F0000F1E02080F8C7
:102E6000141D70472DE9F74F144694B00021C4E9B2
:102E700002111599079121F00045C9498D4206DCE0
:102E80001599C4E9000117B00020BDE8F08FC549CD
:102E9000DFF814A3A9423CDD0799C44E0029C44FB2
:102EA000C44A1599534619DDFDF7F5FA554506D084
:102EB000C14AC24BFDF7EFFAC4E900010AE04FF046
:102EC000D352BE4BFDF7E7FA32463B46FDF7E3FA35
:102ED000C4E9000117B00120BDE8F08FFDF73AFA10
:102EE000554506D0B44AB54BFDF734FAC4E90001A4
:102EF0000AE04FF0D352B14BFDF72CFA32463B4675
:102F0000FDF728FAC4E9000117B04FF0FF30BDE823
:102F1000F08FAB49A942159978DB21F00041834637
:102F20008846A84AA84BFDF7BCFA0022A74BFDF73C
:102F300011FAFDF7C6FB0990FDF7D1FD06460F46D5
:102F40009C4A5346FDF7ADFA43465A46FDF7A6FAAA
:102F500080468A46984A994B30463946FDF7A1FA91
:102F60002A0D01250B9242465346FDF797FA032D91
:102F7000C4E9000139D00B98C1F30A51401A05EB9E
:102F800045111139814230DA9148C346784400EB4B
:102F90000510CDF80CA00C90D0E90023304639463E
:102FA000FDF77FFA02460B460491069058460399B6
:102FB000FDF771FA80468A4602460B465846039949
:102FC000FDF769FA049B069AFDF765FA83460C98AB
:102FD00003913946D0E902233046FDF762FA5A469A
:102FE000039BFDF758FA6D1CBDE707980028A2BFA8
:102FF000099817B0BDE8F08F616881F00041616009
:10300000099817B04042BDE8F08FFFE78446159855
:10301000C1F31301C0F30A50A0F2F5304FEA601873
:1030200000F01F06C6F120001390002006900790C4
:1030300041F4801E05206D4676B1664A08EB00011A
:103040007A4452F8213002EB8101B3404A68139967
:1030500022FA01F1194305E05F4908EB00027944C7
:1030600051F82210A1FB0E27A1FB0C131A449A421F
:1030700034BF0123002303EB070A05EB8003D3E9E8
:1030800001B70F448F4234BF0121002193448B4488
:1030900011B1934502D903E0934501D2012100E02B
:1030A0000021C3E901B7514445F82010011EA0F1E9
:1030B0000100C1DC0298059F00F10050800F1290C2
:1030C0000298DDE903568000FDF709FD8346284696
:1030D0000D91FDF7D5FA6FF01D02FDF7E9FCCDE982
:1030E0000E013046FDF7CCFA6FF03D02FDF7E0FC33
:1030F00080468A463846FDF7C3FA6FF05D02FDF759
:10310000D7FC0746424653461191FDF723F9DDE906
:103110000E23FDF71FF95A460D9BFDF71BF90025FD
:103120000E465A4628460D9BFDF7B5F9DDE90E23FC
:10313000FDF7B1F942465346FDF7ADF93A46119B0A
:10314000FDF7ACF9DFF898A0244A5346FDF7A9F93A
:1031500007468846234A244B31462846FDF7A1F905
:103160003A464346FDF7F6F8074688464FF0A84230
:10317000534631462846FDF794F93A464346FDF753
:10318000E9F8159A12F0004F04D0129A81F000412C
:1031900052421292C4E90001129817B0BDE8F08FB4
:1031A000FB21E93F7CD90240FB21F93F7370032EDC
:1031B0008A19A33B000040543163621A61B4D03DC8
:1031C000FB21394183C8C96D305FE43F0000E03F17
:1031D000880B0000040B0000E60A0000182D445480
:1031E000FB21F93D3326A611460B113C2DE9FF4D7D
:1031F00021F0004807460C46B8F1795F08DAFDF780
:1032000060FA002801BF0020324904B0BDE8F08D0B
:103210003A46234610461946FDF743F9054602464D
:103220002D480E460B460621784400F05DF82A46EC
:103230003346FDF736F9DDE9022382468B463846F0
:103240002146FDF72EF904460F4652465B462846B6
:103250003146FDF726F922463B46FDF71CF90746A5
:103260008A464FF0FF3228463146FDF721FC1B4AC3
:1032700090450ADA3A465346FDF70DF904B00022AC
:10328000BDE8F04D134BFDF709B9154A4245A8BFFB
:10329000A8F500154FF00004B8BF124D22462B468A
:1032A000FDF7F9F80646884622462B4600200949D4
:1032B000FDF7F1F804460D463A465346304641467E
:1032C000FDF7E9F804B022462B46BDE8F04DFDF7C6
:1032D000E5B800000000F03FBC0800003333D33FE6
:1032E0000000E93F0000D23F2DE9F0414F1E00EB06
:1032F000C7010446D1E9000115461E4637F0060213
:103300000DD02A463346FDF7CCF87F1E04EBC703E9
:10331000D3E90023FDF71EF837F00602F1D1022FA2
:1033200025D0042F13D0062F18BFBDE8F0812A4600
:103330003346FDF7B6F8D4E90A23FDF70BF82A4621
:103340003346FDF7AEF8D4E90823FDF703F82A4623
:103350003346FDF7A6F8D4E90623FCF7FBFF2A461F
:103360003346FDF79EF8D4E90423FCF7F3FF2A4621
:103370003346FDF796F8D4E90223FCF7EBFF2A4623
:103380003346FDF78EF8D4E90023BDE8F041FCF7A1
:10339000E1BF00002DE9FF4D054621F0004084B05B
:1033A0000C46B0F1795F0BDA2846FFF737FD0428A9
:1033B00008BF00F06FF8284608B02146BDE8F08D40
:1033C0002A460B461046FDF76CF806460F462A467D
:1033D0002346FDF766F8804626488A4632463B4635
:1033E00005217844FFF780FF83461098029160B36F
:1033F000214A224B40465146FDF753F8CDE90001E2
:103400005A4640465146029BFDF74BF88246884695
:10341000DDE906014FF0FF32FDF74AFB5246434615
:10342000FDF739F832463B46FDF73BF8DDE9062368
:10343000FDF731F8DDE90023FDF72DF808B02A4645
:103440002346BDE8F04DFDF729B80B465A463046F5
:103450003946FDF726F8084A084BFCF77BFF424641
:103460005346FDF71EF808B02A462346BDE8F04D46
:10347000FCF770BFFA070000495555555555C5BFB3
:103480000122FDF715BB0022134610461146FDF739
:103490007AB80000024A00201107FDF709BB0000BE
:1034A00001FDFFFF00210846FCF70ABF02E008C843
:1034B000121F08C1002AFAD170477047002001E0AE
:1034C00001C1121F002AFBD17047000001490860AA
:1034D000704700007000002000B5244B21F000422E
:1034E00087B09A42DCBF0022134629DD204B9A4266
:1034F00008D140B94FF00100FFF7E8FFFFF7C3FF25
:1035000007B000BD03DBFFF7BBFF07B000BD02AA99
:10351000FFF7A8FC10F0030104BF0DF1080C9CE8B4
:103520000F000DD0012001290ED0022914D00DF179
:10353000080C00909CE80F00FFF72CFF07B000BDBF
:10354000FFF754FE07B000BD0DF1080C00909CE899
:103550000F00FFF71FFF05E00DF1080C9CE80F00BE
:10356000FFF744FE07B081F0004100BDFB21E93FB9
:103570000000F07F70B5054620F00040C0F1FF402C
:103580000C46C00F05D124F00040C0F1FF40C00F31
:1035900017D02846FDF77FF96FEAD05111F0FF0FE1
:1035A00008BF70BDE917B1EBE07F08BF70BD0146F1
:1035B00064F31E01BDE870400A4601461046FCF760
:1035C0004ABE4FF07F40B0EB450F18BF5FEA4400A2
:1035D000DFD10120FFF77AFFBDE87040FFF762BF3F
:1035E000FDF75CFEFFF722F9FEF766FFFEF78AFFA4
:1035F000FEF7FCFFFFF72CF8FDF7B0FAFDF71CFC17
:10360000FFF7B8FBFEF72EFF064C074DFDF73AFC1F
:10361000A060FDF783FB2946FCF752FEFDF73DF85D
:103620002070F3E700000020DB0F493F15E00A217E
:1036300000BF00BF00BF00BF00BF00BF00BF00BF92
:1036400000BF00BF00BF00BF00BF00BF00BF491EDA
:1036500011F0FF01ECD1401E80B20028E7D1704785
:1036600010B5064C2146FFF785FF10F1FF4F04D33C
:103670002146BDE81040FCF799BD10BDDB0FC940E5
:103680002DE9F04D07460E46FDF78CF904460D4630
:103690003A463346FCF702FFDFF86CA0DFF86CB067
:1036A0001B4B0746884616F0004F4FF000020AD029
:1036B000FDF7BCF90AD900225B4638464146FDF7C2
:1036C000CDF91BD212E0FDF7B1F908D20022534622
:1036D00020462946FCF7DFFE04460D460EE0002298
:1036E0005B4638464146FDF7B9F907D800225346F4
:1036F00020462946FCF72EFE04460D46314620465C
:1037000065F31E01BDE8F08D0000F03F0000E03FD2
:103710000000E0BF2DE9F74F82B01046FDF720FA18
:103720000490FCF7EDFF8B46044600F061F9054676
:103730000F460298FCF7E4FF06462A463B460191F5
:10374000FCF7AFFE0F46824620465946FFF7C4FEFF
:10375000804689460398FCF7D3FF054642464B4610
:103760000091FCF79EFE52463B46FCF794FEFCF7A8
:10377000DAFF074620465946FFF7AEFE02460B46E3
:1037800030460199FCF78DFE06468846204659468C
:1037900000F02EF90B46024628460099FCF781FE00
:1037A00032464346FCF7D6FDFCF7BDFF0146FCF769
:1037B00055FD044639460846FCF750FD2146FCF706
:1037C000F5FC00F065F97F49FCF77AFD7E4A7F49F8
:1037D0000446904201DB144602E08C4200D90C46BC
:1037E00002987B49B0F5000F049802DBFCF7DEFC81
:1037F00001E0FCF72DFDFDF7B3F9764F064639469B
:10380000FCF75EFD4FF07E5A5146FCF7CFFCFCF70B
:1038100044FF1FFA80F92046FCF772FF04460D466C
:103820004846FCF728FF3946FCF718FD3146FCF7FF
:103830000FFDFCF765FF00F0DBF84FF0604B5A46D8
:10384000654BFCF72EFE22462B46FCF72AFEFCF7C2
:103850006AFF0090A8464846FCF712FF00225F4B23
:10386000FCF719FE7A075E4BFCF71BFE05460F4678
:103870003046FCF745FF3B462A46FCF70CFE00F0BD
:10388000B7F85A46544BFCF70CFE22464346FCF769
:1038900008FEFCF748FF064650460099FCF7D8FCA6
:1038A0003146FCF7D5FC4F4C02464FF0FF31B9F1E1
:1038B000070F62D2DFE809F061040E20303F5100AB
:1038C0001046FCF73BFD206005460099FCF76EFCB6
:1038D000606008E01046FCF731FD05463146FCF714
:1038E00065FCC4E9000531460098FCF75FFC2946F9
:1038F000FCF75CFCA06044E01046FCF71FFD0546A9
:1039000031460098FCF752FC2946FCF74FFCC4E90D
:10391000000528460099EBE71046FCF70FFD054629
:1039200031460098FCF742FC2946FCF73FFC20603A
:10393000284631460CE01046FCF700FD054600998C
:10394000FCF734FC206031460098FCF72FFC294638
:10395000FCF72CFCC4E9010513E01046FCF7EEFC73
:103960000546206031460098FCF720FC2946FCF70C
:103970001DFC606028463146BAE70020A060606008
:103980002060194E20683146FCF768FCFCF785FE84
:10399000164D80B22968486331466068FCF75EFCCA
:1039A000FCF77BFE296880B288633146A068FCF78B
:1039B00055FCFCF772FE296880B2C86305B0BDE80B
:1039C000F08F00000000404146B6133F46B613BFDB
:1039D000DB0FC93F920A863F7AB6FB3F0000F03FFB
:1039E00052C1F03F380000200000B44474000020B1
:1039F00000B5254B21F0004287B09A4203DC00223B
:103A0000134600922BE0214B9A4208D140B94FF067
:103A10000100FFF75BFDFFF736FD07B000BD03DBDC
:103A2000FFF72EFD07B000BD02AAFFF71BFA10F04A
:103A300003014FF001000DD0012914D002291AD042
:103A40000DF1080C9CE80F00FFF7D0FB07B081F0E8
:103A5000004100BD0DF1080C00909CE80F00FFF73D
:103A600099FC07B000BD0DF1080C9CE80F00FFF7B2
:103A7000BDFB07B000BD0DF1080C00909CE80F00E5
:103A8000FFF788FCE2E70000FB21E93F0000F07F40
:103A900070B50546FCF7D0FE044620F00040C0F1AA
:103AA000FF40C00F08D025F00040C0F1FF40C00F1C
:103AB00004BF0120FFF70AFD204670BD010202038A
:103AC0000405060708090A0B0C0D0E0F1010000064
:103AD00000000000000001020304060708090000BE
:103AE00000000102030400004C5555555555A53FF3
:103AF0007751C1166CC156BF9015CB19A001FA3E83
:103B0000AD529C804F7E92BEC4B1B4BD9EEE213EAC
:103B1000D43888BEE9FAA8BD00004054FB21F93F23
:103B20003163621A61B4D03D0000601A61B4D03DC7
:103B30007370032E8A19A33B0000002E8A19A33B41
:103B4000C14920259A837B39000000000000000055
:103B50006E83F9A22915444ED15727FCC0DD34F5F8
:103B6000999562DB4190433CAB6351FE61C5BBDE7E
:103B70003A6E24B7E0D24D42EA2E49061C92D10992
:103B80001CEB1DFE3EA729B1F53582E88444BB2E0F
:103B900026709CE9417E5FB439D69139F43953835C
:103BA0008B5F849C3B28F9BDFF97F81F0F9805DEBB
:103BB0008B112FEF1F6D0A5ACF7E366DB709CB27B9
:103BC000663F464F2DEA5F9EC7BA27757BF1E5EB4E
:103BD000F739073DEA92528AB15FFB6B085D8D1F92
:103BE000A6F810111111813FD561C119A0012ABF9A
:103BF0007DFEB157E31DC73EEB9C2B8AE6E55ABE1E
:103C00007CD5CF5A3AD9E53D283C00080000002079
:103C100074000000AC3400089C3C000874000020D4
:103C2000DC040000BC3400080000000000000000BC
:103C30000000000000000000000000000100000083
:103C4000100000000000000000127A0000000000D8
:103C50000000000000000000000000000000000064
:103C60000000000000000000000000000000000054
:103C70000000000000000000000000000000000044
:103C80000000000000000000000000000000000034
:0C3C900000000000000000000000000028
:0400000508000131BD
:00000001FF
